{
  "contractName": "GoldSeek3",
  "abi": [
    {
      "inputs": [],
      "stateMutability": "nonpayable",
      "type": "constructor"
    },
    {
      "anonymous": false,
      "inputs": [
        {
          "indexed": false,
          "internalType": "address",
          "name": "buyer",
          "type": "address"
        },
        {
          "indexed": false,
          "internalType": "uint256",
          "name": "amount",
          "type": "uint256"
        }
      ],
      "name": "Buy",
      "type": "event"
    },
    {
      "anonymous": false,
      "inputs": [
        {
          "indexed": false,
          "internalType": "address",
          "name": "seller",
          "type": "address"
        },
        {
          "indexed": false,
          "internalType": "uint256",
          "name": "amount",
          "type": "uint256"
        }
      ],
      "name": "Sell",
      "type": "event"
    },
    {
      "anonymous": false,
      "inputs": [
        {
          "indexed": false,
          "internalType": "address",
          "name": "buyer",
          "type": "address"
        },
        {
          "indexed": false,
          "internalType": "uint256",
          "name": "amount",
          "type": "uint256"
        }
      ],
      "name": "WithDividend",
      "type": "event"
    },
    {
      "anonymous": false,
      "inputs": [
        {
          "indexed": false,
          "internalType": "address",
          "name": "buyer",
          "type": "address"
        },
        {
          "indexed": false,
          "internalType": "uint256",
          "name": "amount",
          "type": "uint256"
        }
      ],
      "name": "WithPersonalEth",
      "type": "event"
    },
    {
      "anonymous": false,
      "inputs": [
        {
          "indexed": false,
          "internalType": "address",
          "name": "buyer",
          "type": "address"
        },
        {
          "indexed": false,
          "internalType": "uint256",
          "name": "amount",
          "type": "uint256"
        }
      ],
      "name": "WithdrawrReferral",
      "type": "event"
    },
    {
      "inputs": [],
      "name": "DivSupply",
      "outputs": [
        {
          "internalType": "uint256",
          "name": "",
          "type": "uint256"
        }
      ],
      "stateMutability": "view",
      "type": "function",
      "constant": true
    },
    {
      "inputs": [],
      "name": "DividendLargerPool",
      "outputs": [
        {
          "internalType": "uint256",
          "name": "",
          "type": "uint256"
        }
      ],
      "stateMutability": "view",
      "type": "function",
      "constant": true
    },
    {
      "inputs": [],
      "name": "DividendPool",
      "outputs": [
        {
          "internalType": "uint256",
          "name": "",
          "type": "uint256"
        }
      ],
      "stateMutability": "view",
      "type": "function",
      "constant": true
    },
    {
      "inputs": [],
      "name": "TotalEthStaked",
      "outputs": [
        {
          "internalType": "uint256",
          "name": "",
          "type": "uint256"
        }
      ],
      "stateMutability": "view",
      "type": "function",
      "constant": true
    },
    {
      "inputs": [],
      "name": "TotalSupply",
      "outputs": [
        {
          "internalType": "uint256",
          "name": "",
          "type": "uint256"
        }
      ],
      "stateMutability": "view",
      "type": "function",
      "constant": true
    },
    {
      "inputs": [
        {
          "internalType": "address",
          "name": "",
          "type": "address"
        }
      ],
      "name": "_ReferralCommission",
      "outputs": [
        {
          "internalType": "uint256",
          "name": "",
          "type": "uint256"
        }
      ],
      "stateMutability": "view",
      "type": "function",
      "constant": true
    },
    {
      "inputs": [
        {
          "internalType": "address",
          "name": "",
          "type": "address"
        }
      ],
      "name": "_divCredits",
      "outputs": [
        {
          "internalType": "uint256",
          "name": "",
          "type": "uint256"
        }
      ],
      "stateMutability": "view",
      "type": "function",
      "constant": true
    },
    {
      "inputs": [
        {
          "internalType": "address",
          "name": "",
          "type": "address"
        }
      ],
      "name": "_divCreditsFreeze",
      "outputs": [
        {
          "internalType": "uint256",
          "name": "",
          "type": "uint256"
        }
      ],
      "stateMutability": "view",
      "type": "function",
      "constant": true
    },
    {
      "inputs": [],
      "name": "_existingPrice",
      "outputs": [
        {
          "internalType": "uint256",
          "name": "",
          "type": "uint256"
        }
      ],
      "stateMutability": "view",
      "type": "function",
      "constant": true
    },
    {
      "inputs": [
        {
          "internalType": "address",
          "name": "",
          "type": "address"
        }
      ],
      "name": "_holderBalances",
      "outputs": [
        {
          "internalType": "uint256",
          "name": "",
          "type": "uint256"
        }
      ],
      "stateMutability": "view",
      "type": "function",
      "constant": true
    },
    {
      "inputs": [
        {
          "internalType": "address",
          "name": "",
          "type": "address"
        }
      ],
      "name": "_holderPaidOUt",
      "outputs": [
        {
          "internalType": "uint256",
          "name": "",
          "type": "uint256"
        }
      ],
      "stateMutability": "view",
      "type": "function",
      "constant": true
    },
    {
      "inputs": [
        {
          "internalType": "address",
          "name": "",
          "type": "address"
        }
      ],
      "name": "_holderPersonalEth",
      "outputs": [
        {
          "internalType": "uint256",
          "name": "",
          "type": "uint256"
        }
      ],
      "stateMutability": "view",
      "type": "function",
      "constant": true
    },
    {
      "inputs": [
        {
          "internalType": "address",
          "name": "",
          "type": "address"
        }
      ],
      "name": "_referrerMapping",
      "outputs": [
        {
          "internalType": "address",
          "name": "",
          "type": "address"
        }
      ],
      "stateMutability": "view",
      "type": "function",
      "constant": true
    },
    {
      "inputs": [],
      "name": "counter1",
      "outputs": [
        {
          "internalType": "uint256",
          "name": "",
          "type": "uint256"
        }
      ],
      "stateMutability": "view",
      "type": "function",
      "constant": true
    },
    {
      "inputs": [],
      "name": "frDiv",
      "outputs": [
        {
          "internalType": "uint256",
          "name": "",
          "type": "uint256"
        }
      ],
      "stateMutability": "view",
      "type": "function",
      "constant": true
    },
    {
      "inputs": [],
      "name": "lastTradeIns",
      "outputs": [
        {
          "internalType": "uint256",
          "name": "counter",
          "type": "uint256"
        },
        {
          "internalType": "address",
          "name": "trader",
          "type": "address"
        },
        {
          "internalType": "uint256",
          "name": "divCredits",
          "type": "uint256"
        }
      ],
      "stateMutability": "view",
      "type": "function",
      "constant": true
    },
    {
      "inputs": [],
      "name": "owner",
      "outputs": [
        {
          "internalType": "address",
          "name": "",
          "type": "address"
        }
      ],
      "stateMutability": "view",
      "type": "function",
      "constant": true
    },
    {
      "inputs": [],
      "name": "rateOfDiv",
      "outputs": [
        {
          "internalType": "uint256",
          "name": "",
          "type": "uint256"
        }
      ],
      "stateMutability": "view",
      "type": "function",
      "constant": true
    },
    {
      "inputs": [],
      "name": "tTransferPUblic",
      "outputs": [
        {
          "internalType": "uint256",
          "name": "",
          "type": "uint256"
        }
      ],
      "stateMutability": "view",
      "type": "function",
      "constant": true
    },
    {
      "inputs": [],
      "name": "tfeepublic",
      "outputs": [
        {
          "internalType": "uint256",
          "name": "",
          "type": "uint256"
        }
      ],
      "stateMutability": "view",
      "type": "function",
      "constant": true
    },
    {
      "inputs": [],
      "name": "tokenPriceInitial_",
      "outputs": [
        {
          "internalType": "uint256",
          "name": "",
          "type": "uint256"
        }
      ],
      "stateMutability": "view",
      "type": "function",
      "constant": true
    },
    {
      "inputs": [],
      "name": "valueforSale",
      "outputs": [
        {
          "internalType": "uint256",
          "name": "",
          "type": "uint256"
        }
      ],
      "stateMutability": "view",
      "type": "function",
      "constant": true
    },
    {
      "inputs": [
        {
          "internalType": "address",
          "name": "referrer",
          "type": "address"
        }
      ],
      "name": "buy",
      "outputs": [],
      "stateMutability": "payable",
      "type": "function",
      "payable": true
    },
    {
      "inputs": [],
      "name": "reinvest",
      "outputs": [],
      "stateMutability": "nonpayable",
      "type": "function"
    },
    {
      "inputs": [],
      "name": "existingPrice",
      "outputs": [
        {
          "internalType": "uint256",
          "name": "",
          "type": "uint256"
        }
      ],
      "stateMutability": "view",
      "type": "function",
      "constant": true
    },
    {
      "inputs": [],
      "name": "SaleexistingPrice",
      "outputs": [
        {
          "internalType": "uint256",
          "name": "",
          "type": "uint256"
        }
      ],
      "stateMutability": "view",
      "type": "function",
      "constant": true
    },
    {
      "inputs": [
        {
          "internalType": "uint256",
          "name": "number",
          "type": "uint256"
        }
      ],
      "name": "sell",
      "outputs": [],
      "stateMutability": "payable",
      "type": "function",
      "payable": true
    },
    {
      "inputs": [
        {
          "internalType": "address",
          "name": "holder",
          "type": "address"
        }
      ],
      "name": "dividendBalance",
      "outputs": [
        {
          "internalType": "uint256",
          "name": "",
          "type": "uint256"
        }
      ],
      "stateMutability": "view",
      "type": "function",
      "constant": true
    },
    {
      "inputs": [
        {
          "internalType": "address",
          "name": "holder",
          "type": "address"
        }
      ],
      "name": "dividendBalanceProcessing",
      "outputs": [
        {
          "internalType": "uint256",
          "name": "",
          "type": "uint256"
        }
      ],
      "stateMutability": "view",
      "type": "function",
      "constant": true
    },
    {
      "inputs": [],
      "name": "redeemBNBs",
      "outputs": [],
      "stateMutability": "nonpayable",
      "type": "function"
    },
    {
      "inputs": [
        {
          "internalType": "address",
          "name": "holder",
          "type": "address"
        }
      ],
      "name": "ReferralBalance",
      "outputs": [
        {
          "internalType": "uint256",
          "name": "",
          "type": "uint256"
        }
      ],
      "stateMutability": "view",
      "type": "function",
      "constant": true
    },
    {
      "inputs": [
        {
          "internalType": "uint256",
          "name": "amount",
          "type": "uint256"
        }
      ],
      "name": "withdrawrReferral",
      "outputs": [],
      "stateMutability": "payable",
      "type": "function",
      "payable": true
    },
    {
      "inputs": [],
      "name": "withdrawrReferralAdmin",
      "outputs": [],
      "stateMutability": "payable",
      "type": "function",
      "payable": true
    },
    {
      "inputs": [
        {
          "internalType": "uint256",
          "name": "amount",
          "type": "uint256"
        }
      ],
      "name": "withdrawDividend",
      "outputs": [],
      "stateMutability": "payable",
      "type": "function",
      "payable": true
    },
    {
      "inputs": [
        {
          "internalType": "uint256",
          "name": "amount",
          "type": "uint256"
        }
      ],
      "name": "withdrawPersonalEth",
      "outputs": [],
      "stateMutability": "payable",
      "type": "function",
      "payable": true
    },
    {
      "inputs": [],
      "name": "balanceOf",
      "outputs": [
        {
          "internalType": "uint256",
          "name": "",
          "type": "uint256"
        },
        {
          "internalType": "uint256",
          "name": "",
          "type": "uint256"
        },
        {
          "internalType": "uint256",
          "name": "",
          "type": "uint256"
        },
        {
          "internalType": "uint256",
          "name": "",
          "type": "uint256"
        }
      ],
      "stateMutability": "view",
      "type": "function",
      "constant": true
    },
    {
      "inputs": [
        {
          "internalType": "uint256",
          "name": "tamount",
          "type": "uint256"
        }
      ],
      "name": "getTValues",
      "outputs": [
        {
          "internalType": "uint256",
          "name": "",
          "type": "uint256"
        },
        {
          "internalType": "uint256",
          "name": "",
          "type": "uint256"
        },
        {
          "internalType": "uint256",
          "name": "",
          "type": "uint256"
        },
        {
          "internalType": "uint256",
          "name": "",
          "type": "uint256"
        },
        {
          "internalType": "uint256",
          "name": "",
          "type": "uint256"
        }
      ],
      "stateMutability": "view",
      "type": "function",
      "constant": true
    },
    {
      "inputs": [
        {
          "internalType": "uint256",
          "name": "tamount",
          "type": "uint256"
        }
      ],
      "name": "getSValues",
      "outputs": [
        {
          "internalType": "uint256",
          "name": "",
          "type": "uint256"
        },
        {
          "internalType": "uint256",
          "name": "",
          "type": "uint256"
        }
      ],
      "stateMutability": "view",
      "type": "function",
      "constant": true
    },
    {
      "inputs": [
        {
          "internalType": "uint256",
          "name": "_ethereum",
          "type": "uint256"
        }
      ],
      "name": "ethereumToTokens_",
      "outputs": [
        {
          "internalType": "uint256",
          "name": "",
          "type": "uint256"
        }
      ],
      "stateMutability": "view",
      "type": "function",
      "constant": true
    }
  ],
  "bytecode": "0x60806040526512309ce5400060075573b27a5715dee0b91cc60da06c1bb860aba44db804600a60006101000a81548173ffffffffffffffffffffffffffffffffffffffff021916908373ffffffffffffffffffffffffffffffffffffffff1602179055506019600b55600a600c556007600d556003600e556005600f5560076010556000601455600060155534801561009757600080fd5b5033600860006101000a81548173ffffffffffffffffffffffffffffffffffffffff021916908373ffffffffffffffffffffffffffffffffffffffff1602179055506132b0806100e86000396000f3fe60806040526004361061022f5760003560e01c8063722713f71161012e578063c0342e4d116100ab578063e4849b321161006f578063e4849b3214610890578063f088d547146108ac578063f6efd4c3146108c8578063f721f465146108f3578063fdb5a03e1461090a5761022f565b8063c0342e4d14610790578063c4c1b39a146107bb578063d1549524146107e6578063da743da014610811578063dceaa847146108525761022f565b8063a44b47f7116100f2578063a44b47f714610695578063b3d0b121146106c0578063b49fbd7e146106eb578063baa0523f14610716578063bf3dd4f1146107535761022f565b8063722713f7146105a95780638da5cb5b146105d75780638e32380e146106025780639a7727e71461062d578063a0afd731146106585761022f565b80632a9121c7116101bc5780634a788453116101805780634a788453146104bb57806353faedf4146104e85780635d260527146105255780635d9bd8b214610562578063674763fb1461057e5761022f565b80632a9121c7146103cf5780633998fc441461040c578063434590af1461042857806346669e17146104535780634823fdd4146104905761022f565b80630ccd0834116102035780630ccd0834146103165780630dc020e2146103535780631a9fdbd51461035d5780632388cc1a146103885780632a562134146103a45761022f565b806246aeaa1461023457806301f7f2991461027157806304cd9ccd1461029c5780630950d8fa146102d9575b600080fd5b34801561024057600080fd5b5061025b60048036038101906102569190612a6b565b610921565b6040516102689190612dbd565b60405180910390f35b34801561027d57600080fd5b50610286610939565b6040516102939190612dbd565b60405180910390f35b3480156102a857600080fd5b506102c360048036038101906102be9190612a6b565b61093f565b6040516102d09190612dbd565b60405180910390f35b3480156102e557600080fd5b5061030060048036038101906102fb9190612a6b565b610988565b60405161030d9190612dbd565b60405180910390f35b34801561032257600080fd5b5061033d60048036038101906103389190612a6b565b6109a0565b60405161034a9190612dbd565b60405180910390f35b61035b6109b8565b005b34801561036957600080fd5b50610372610b0a565b60405161037f9190612dbd565b60405180910390f35b6103a2600480360381019061039d9190612a94565b610b3f565b005b3480156103b057600080fd5b506103b9610c9a565b6040516103c69190612dbd565b60405180910390f35b3480156103db57600080fd5b506103f660048036038101906103f19190612a94565b610ca0565b6040516104039190612dbd565b60405180910390f35b61042660048036038101906104219190612a94565b610dc2565b005b34801561043457600080fd5b5061043d610f36565b60405161044a9190612dbd565b60405180910390f35b34801561045f57600080fd5b5061047a60048036038101906104759190612a6b565b610f3c565b6040516104879190612dbd565b60405180910390f35b34801561049c57600080fd5b506104a5610f54565b6040516104b29190612dbd565b60405180910390f35b3480156104c757600080fd5b506104d0610fc7565b6040516104df93929190612dd8565b60405180910390f35b3480156104f457600080fd5b5061050f600480360381019061050a9190612a6b565b610fff565b60405161051c9190612dbd565b60405180910390f35b34801561053157600080fd5b5061054c60048036038101906105479190612a6b565b61130d565b6040516105599190612dbd565b60405180910390f35b61057c60048036038101906105779190612a94565b611325565b005b34801561058a57600080fd5b50610593611462565b6040516105a09190612dbd565b60405180910390f35b3480156105b557600080fd5b506105be611468565b6040516105ce9493929190612e38565b60405180910390f35b3480156105e357600080fd5b506105ec611586565b6040516105f99190612cd9565b60405180910390f35b34801561060e57600080fd5b506106176115ac565b6040516106249190612dbd565b60405180910390f35b34801561063957600080fd5b506106426115b2565b60405161064f9190612dbd565b60405180910390f35b34801561066457600080fd5b5061067f600480360381019061067a9190612a6b565b6115b8565b60405161068c9190612dbd565b60405180910390f35b3480156106a157600080fd5b506106aa61161f565b6040516106b79190612dbd565b60405180910390f35b3480156106cc57600080fd5b506106d5611625565b6040516106e29190612dbd565b60405180910390f35b3480156106f757600080fd5b5061070061162b565b60405161070d9190612dbd565b60405180910390f35b34801561072257600080fd5b5061073d60048036038101906107389190612a6b565b611631565b60405161074a9190612cd9565b60405180910390f35b34801561075f57600080fd5b5061077a60048036038101906107759190612a6b565b611664565b6040516107879190612dbd565b60405180910390f35b34801561079c57600080fd5b506107a561167c565b6040516107b29190612dbd565b60405180910390f35b3480156107c757600080fd5b506107d0611682565b6040516107dd9190612dbd565b60405180910390f35b3480156107f257600080fd5b506107fb61168c565b6040516108089190612dbd565b60405180910390f35b34801561081d57600080fd5b5061083860048036038101906108339190612a94565b611692565b604051610849959493929190612e7d565b60405180910390f35b34801561085e57600080fd5b5061087960048036038101906108749190612a94565b61175d565b604051610887929190612e0f565b60405180910390f35b6108aa60048036038101906108a59190612a94565b61179b565b005b6108c660048036038101906108c19190612a6b565b611b6e565b005b3480156108d457600080fd5b506108dd61210b565b6040516108ea9190612dbd565b60405180910390f35b3480156108ff57600080fd5b50610908612111565b005b34801561091657600080fd5b5061091f6121b7565b005b60026020528060005260406000206000915090505481565b601d5481565b6000600560008373ffffffffffffffffffffffffffffffffffffffff1673ffffffffffffffffffffffffffffffffffffffff168152602001908152602001600020549050919050565b60036020528060005260406000206000915090505481565b60006020528060005260406000206000915090505481565b600060056000600a60009054906101000a900473ffffffffffffffffffffffffffffffffffffffff1673ffffffffffffffffffffffffffffffffffffffff1673ffffffffffffffffffffffffffffffffffffffff168152602001908152602001600020549050600a60009054906101000a900473ffffffffffffffffffffffffffffffffffffffff1673ffffffffffffffffffffffffffffffffffffffff166108fc829081150290604051600060405180830381858888f19350505050158015610a86573d6000803e3d6000fd5b50600060056000600a60009054906101000a900473ffffffffffffffffffffffffffffffffffffffff1673ffffffffffffffffffffffffffffffffffffffff1673ffffffffffffffffffffffffffffffffffffffff168152602001908152602001600020819055508060096000828254610b009190613133565b9250508190555050565b6000806014541480610b2357506512309ce54000600754105b15610b36576512309ce540009050610b3c565b60075490505b90565b80600460003373ffffffffffffffffffffffffffffffffffffffff1673ffffffffffffffffffffffffffffffffffffffff168152602001908152602001600020541015610bc1576040517f08c379a0000000000000000000000000000000000000000000000000000000008152600401610bb890612d5d565b60405180910390fd5b80600460003373ffffffffffffffffffffffffffffffffffffffff1673ffffffffffffffffffffffffffffffffffffffff1681526020019081526020016000206000828254610c109190613133565b925050819055503373ffffffffffffffffffffffffffffffffffffffff166108fc829081150290604051600060405180830381858888f19350505050158015610c5d573d6000803e3d6000fd5b507fef38aa7fe00189425522db230e078a1c5e52ae4e3083e5f6757336cb3e95fc8b3382604051610c8f929190612cf4565b60405180910390a150565b60095481565b600080670de0b6b3a76400006512309ce54000610cbd91906130d9565b905060006014546501d1a94a2000610da2610d9c601454866501d1a94a20006002610ce891906130d9565b610cf291906130d9565b610cfc91906130d9565b6002601454610d0b9190612fbb565b60026501d1a94a2000610d1e9190612fbb565b610d2891906130d9565b670de0b6b3a76400008a610d3c91906130d9565b670de0b6b3a76400006501d1a94a2000610d5691906130d9565b6002610d6291906130d9565b610d6c91906130d9565b600289610d799190612fbb565b610d839190612ee1565b610d8d9190612ee1565b610d979190612ee1565b6127be565b8561281b565b610dac9190612f37565b610db69190613133565b90508092505050919050565b80600560003373ffffffffffffffffffffffffffffffffffffffff1673ffffffffffffffffffffffffffffffffffffffff168152602001908152602001600020541015610e44576040517f08c379a0000000000000000000000000000000000000000000000000000000008152600401610e3b90612d1d565b60405180910390fd5b80600560003373ffffffffffffffffffffffffffffffffffffffff1673ffffffffffffffffffffffffffffffffffffffff1681526020019081526020016000206000828254610e939190613133565b925050819055508060096000828254610eac9190613133565b925050819055503373ffffffffffffffffffffffffffffffffffffffff166108fc829081150290604051600060405180830381858888f19350505050158015610ef9573d6000803e3d6000fd5b507feb6ab569e8b3852c92eb3556e2bf33e5c4054efca5babb26b8ff74654793a9123382604051610f2b929190612cf4565b60405180910390a150565b60165481565b60056020528060005260406000206000915090505481565b600080606460506512309ce54000610f6c91906130d9565b610f769190612f37565b9050600060646050600754610f8b91906130d9565b610f959190612f37565b905060006014541480610faf57506512309ce54000600754105b15610fbe578192505050610fc4565b80925050505b90565b601a8060000154908060010160009054906101000a900473ffffffffffffffffffffffffffffffffffffffff16908060020154905083565b6000601a60010160009054906101000a900473ffffffffffffffffffffffffffffffffffffffff1673ffffffffffffffffffffffffffffffffffffffff168273ffffffffffffffffffffffffffffffffffffffff1614156111bb576000678ac7230489e80000601154601a60020154600260008773ffffffffffffffffffffffffffffffffffffffff1673ffffffffffffffffffffffffffffffffffffffff168152602001908152602001600020546110b89190613133565b6110c291906130d9565b6110cc9190612f37565b600260008573ffffffffffffffffffffffffffffffffffffffff1673ffffffffffffffffffffffffffffffffffffffff16815260200190815260200160002054600360008673ffffffffffffffffffffffffffffffffffffffff1673ffffffffffffffffffffffffffffffffffffffff168152602001908152602001600020546111569190612ee1565b6111609190612ee1565b90506000600160008573ffffffffffffffffffffffffffffffffffffffff1673ffffffffffffffffffffffffffffffffffffffff16815260200190815260200160002054826111af9190613133565b90508092505050611308565b6000678ac7230489e80000601154600260008673ffffffffffffffffffffffffffffffffffffffff1673ffffffffffffffffffffffffffffffffffffffff1681526020019081526020016000205461121391906130d9565b61121d9190612f37565b600260008573ffffffffffffffffffffffffffffffffffffffff1673ffffffffffffffffffffffffffffffffffffffff16815260200190815260200160002054600360008673ffffffffffffffffffffffffffffffffffffffff1673ffffffffffffffffffffffffffffffffffffffff168152602001908152602001600020546112a79190612ee1565b6112b19190612ee1565b90506000600160008573ffffffffffffffffffffffffffffffffffffffff1673ffffffffffffffffffffffffffffffffffffffff16815260200190815260200160002054826113009190613133565b905080925050505b919050565b60016020528060005260406000206000915090505481565b8061132f336115b8565b1015611370576040517f08c379a000000000000000000000000000000000000000000000000000000000815260040161136790612d9d565b60405180910390fd5b80600160003373ffffffffffffffffffffffffffffffffffffffff1673ffffffffffffffffffffffffffffffffffffffff16815260200190815260200160002060008282546113bf9190612ee1565b9250508190555080600960008282546113d89190613133565b925050819055503373ffffffffffffffffffffffffffffffffffffffff166108fc829081150290604051600060405180830381858888f19350505050158015611425573d6000803e3d6000fd5b507f5bbdaacc10fd21c95c884d00a49069ea25391d756bb1973cd4bf606dd3b6ee863382604051611457929190612cf4565b60405180910390a150565b60155481565b600080600080601454600080737cfa8cd3da48de9d86ad221662f38a1295d177ec73ffffffffffffffffffffffffffffffffffffffff1673ffffffffffffffffffffffffffffffffffffffff16815260200190815260200160002054600080737cfa8cd3da48de9d86ad221662f38a1295d177ec73ffffffffffffffffffffffffffffffffffffffff1673ffffffffffffffffffffffffffffffffffffffff16815260200190815260200160002054600080600a60009054906101000a900473ffffffffffffffffffffffffffffffffffffffff1673ffffffffffffffffffffffffffffffffffffffff1673ffffffffffffffffffffffffffffffffffffffff16815260200190815260200160002054935093509350935090919293565b600860009054906101000a900473ffffffffffffffffffffffffffffffffffffffff1681565b60075481565b60185481565b6000806115c483610fff565b90506000600160008573ffffffffffffffffffffffffffffffffffffffff1673ffffffffffffffffffffffffffffffffffffffff16815260200190815260200160002054826116139190613133565b90508092505050919050565b60145481565b60115481565b60175481565b60066020528060005260406000206000915054906101000a900473ffffffffffffffffffffffffffffffffffffffff1681565b60046020528060005260406000206000915090505481565b60135481565b6512309ce5400081565b60195481565b600080600080600080600b546064886116ab9190612f37565b6116b591906130d9565b90506000600c546064896116c99190612f37565b6116d391906130d9565b90506000600d5460648a6116e79190612f37565b6116f191906130d9565b90506000600e5460648b6117059190612f37565b61170f91906130d9565b90506000600f5460648c6117239190612f37565b61172d91906130d9565b90506000858c61173d9190613133565b905080858585859a509a509a509a509a5050505050505091939590929450565b60008060006010546064856117729190612f37565b61177c91906130d9565b90506000818561178c9190613133565b90508082935093505050915091565b6000803373ffffffffffffffffffffffffffffffffffffffff1673ffffffffffffffffffffffffffffffffffffffff1681526020019081526020016000205481600260003373ffffffffffffffffffffffffffffffffffffffff1673ffffffffffffffffffffffffffffffffffffffff1681526020019081526020016000205461182591906130d9565b61182f9190612f37565b601981905550806000803373ffffffffffffffffffffffffffffffffffffffff1673ffffffffffffffffffffffffffffffffffffffff1681526020019081526020016000205410156118b6576040517f08c379a00000000000000000000000000000000000000000000000000000000081526004016118ad90612d7d565b60405180910390fd5b806000803373ffffffffffffffffffffffffffffffffffffffff1673ffffffffffffffffffffffffffffffffffffffff16815260200190815260200160002060008282546119049190613133565b92505081905550806014600082825461191d9190613133565b9250508190555061192c610f54565b8161193791906130d9565b60168190555060008061194b60165461175d565b91509150816017819055508060188190555081600460003373ffffffffffffffffffffffffffffffffffffffff1673ffffffffffffffffffffffffffffffffffffffff16815260200190815260200160002060008282546119ac9190612ee1565b925050819055506119bf81600080612868565b670de0b6b3a76400006501d1a94a2000836119da91906130d9565b6119e49190612f37565b6007546119f19190613133565b60078190555081600954611a059190613133565b600981905550601954600260003373ffffffffffffffffffffffffffffffffffffffff1673ffffffffffffffffffffffffffffffffffffffff1681526020019081526020016000206000828254611a5c9190613133565b925050819055506000803373ffffffffffffffffffffffffffffffffffffffff1673ffffffffffffffffffffffffffffffffffffffff1681526020019081526020016000205483611aac33610fff565b611ab691906130d9565b611ac09190612f37565b600360003373ffffffffffffffffffffffffffffffffffffffff1673ffffffffffffffffffffffffffffffffffffffff1681526020019081526020016000206000828254611b0e9190612ee1565b9250508190555060195460136000828254611b299190613133565b925050819055507f5e5e995ce3133561afceaa51a9a154d5db228cd7525d34df5185582c18d3df093384604051611b61929190612cf4565b60405180910390a1505050565b6000806000806000611b7f34611692565b9450945094509450945067016345785d8a0000341015611bd4576040517f08c379a0000000000000000000000000000000000000000000000000000000008152600401611bcb90612d3d565b60405180910390fd5b6000611bde610b0a565b905060008187611bee91906131b0565b905060008188611bfe9190613133565b905060008382611c0e9190612f37565b90506000600660008c73ffffffffffffffffffffffffffffffffffffffff1673ffffffffffffffffffffffffffffffffffffffff16815260200190815260200160002060009054906101000a900473ffffffffffffffffffffffffffffffffffffffff169050816000803373ffffffffffffffffffffffffffffffffffffffff1673ffffffffffffffffffffffffffffffffffffffff1681526020019081526020016000206000828254611cc29190612ee1565b925050819055508560056000600a60009054906101000a900473ffffffffffffffffffffffffffffffffffffffff1673ffffffffffffffffffffffffffffffffffffffff1673ffffffffffffffffffffffffffffffffffffffff1681526020019081526020016000206000828254611d3a9190612ee1565b92505081905550600073ffffffffffffffffffffffffffffffffffffffff168b73ffffffffffffffffffffffffffffffffffffffff1614611f565787600560008d73ffffffffffffffffffffffffffffffffffffffff1673ffffffffffffffffffffffffffffffffffffffff1681526020019081526020016000206000828254611dc49190612ee1565b925050819055508a600660003373ffffffffffffffffffffffffffffffffffffffff1673ffffffffffffffffffffffffffffffffffffffff16815260200190815260200160002060006101000a81548173ffffffffffffffffffffffffffffffffffffffff021916908373ffffffffffffffffffffffffffffffffffffffff160217905550600073ffffffffffffffffffffffffffffffffffffffff168173ffffffffffffffffffffffffffffffffffffffff1614611ed85786600560008373ffffffffffffffffffffffffffffffffffffffff1673ffffffffffffffffffffffffffffffffffffffff1681526020019081526020016000206000828254611ecc9190612ee1565b92505081905550611f51565b8660056000600a60009054906101000a900473ffffffffffffffffffffffffffffffffffffffff1673ffffffffffffffffffffffffffffffffffffffff1673ffffffffffffffffffffffffffffffffffffffff1681526020019081526020016000206000828254611f499190612ee1565b925050819055505b612047565b8760056000600a60009054906101000a900473ffffffffffffffffffffffffffffffffffffffff1673ffffffffffffffffffffffffffffffffffffffff1673ffffffffffffffffffffffffffffffffffffffff1681526020019081526020016000206000828254611fc79190612ee1565b925050819055508660056000600a60009054906101000a900473ffffffffffffffffffffffffffffffffffffffff1673ffffffffffffffffffffffffffffffffffffffff1673ffffffffffffffffffffffffffffffffffffffff168152602001908152602001600020600082825461203f9190612ee1565b925050819055505b81601460008282546120599190612ee1565b9250508190555061206c89836001612868565b346009600082825461207e9190612ee1565b92505081905550670de0b6b3a76400006501d1a94a2000346120a091906130d9565b6120aa9190612f37565b6007546120b79190612ee1565b6007819055506120c56109b8565b7fe3d4187f6ca4248660cc0ac8b8056515bac4a8132be2eca31d6d0cc170722a7e33836040516120f6929190612cf4565b60405180910390a15050505050505050505050565b60125481565b73b27a5715dee0b91cc60da06c1bb860aba44db80473ffffffffffffffffffffffffffffffffffffffff163373ffffffffffffffffffffffffffffffffffffffff1614156121b55773b27a5715dee0b91cc60da06c1bb860aba44db80473ffffffffffffffffffffffffffffffffffffffff166108fc479081150290604051600060405180830381858888f193505050501580156121b3573d6000803e3d6000fd5b505b565b6000600560003373ffffffffffffffffffffffffffffffffffffffff1673ffffffffffffffffffffffffffffffffffffffff16815260200190815260200160002054612202336115b8565b61220c9190612ee1565b9050600080600080600061221f86611692565b945094509450945094506000612233610b0a565b90506000818761224391906131b0565b9050600081886122539190613133565b9050600083826122639190612f37565b90506000600660003373ffffffffffffffffffffffffffffffffffffffff1673ffffffffffffffffffffffffffffffffffffffff16815260200190815260200160002060009054906101000a900473ffffffffffffffffffffffffffffffffffffffff1690506000600660008373ffffffffffffffffffffffffffffffffffffffff1673ffffffffffffffffffffffffffffffffffffffff16815260200190815260200160002060009054906101000a900473ffffffffffffffffffffffffffffffffffffffff169050826000803373ffffffffffffffffffffffffffffffffffffffff1673ffffffffffffffffffffffffffffffffffffffff168152602001908152602001600020600082825461237b9190612ee1565b925050819055508660056000600a60009054906101000a900473ffffffffffffffffffffffffffffffffffffffff1673ffffffffffffffffffffffffffffffffffffffff1673ffffffffffffffffffffffffffffffffffffffff16815260200190815260200160002060008282546123f39190612ee1565b92505081905550600073ffffffffffffffffffffffffffffffffffffffff168273ffffffffffffffffffffffffffffffffffffffff16146125915788600560008473ffffffffffffffffffffffffffffffffffffffff1673ffffffffffffffffffffffffffffffffffffffff168152602001908152602001600020600082825461247d9190612ee1565b92505081905550600073ffffffffffffffffffffffffffffffffffffffff168173ffffffffffffffffffffffffffffffffffffffff16146125135787600560008373ffffffffffffffffffffffffffffffffffffffff1673ffffffffffffffffffffffffffffffffffffffff16815260200190815260200160002060008282546125079190612ee1565b9250508190555061258c565b8760056000600a60009054906101000a900473ffffffffffffffffffffffffffffffffffffffff1673ffffffffffffffffffffffffffffffffffffffff1673ffffffffffffffffffffffffffffffffffffffff16815260200190815260200160002060008282546125849190612ee1565b925050819055505b61265e565b8860056000600a60009054906101000a900473ffffffffffffffffffffffffffffffffffffffff1673ffffffffffffffffffffffffffffffffffffffff1673ffffffffffffffffffffffffffffffffffffffff168152602001908152602001600020819055508760056000600a60009054906101000a900473ffffffffffffffffffffffffffffffffffffffff1673ffffffffffffffffffffffffffffffffffffffff1673ffffffffffffffffffffffffffffffffffffffff168152602001908152602001600020819055505b82601460008282546126709190612ee1565b925050819055506126838a846001612868565b8b600960008282546126959190612ee1565b92505081905550670de0b6b3a76400006501d1a94a20008d6126b791906130d9565b6126c19190612f37565b6007546126ce9190612ee1565b6007819055506126dd336115b8565b600160003373ffffffffffffffffffffffffffffffffffffffff1673ffffffffffffffffffffffffffffffffffffffff168152602001908152602001600020600082825461272b9190612ee1565b925050819055506000600560003373ffffffffffffffffffffffffffffffffffffffff1673ffffffffffffffffffffffffffffffffffffffff168152602001908152602001600020819055507fe3d4187f6ca4248660cc0ac8b8056515bac4a8132be2eca31d6d0cc170722a7e33846040516127a8929190612cf4565b60405180910390a1505050505050505050505050565b60008060026001846127d09190612ee1565b6127da9190612f37565b90508291505b818110156128155780915060028182856127fa9190612f37565b6128049190612ee1565b61280e9190612f37565b90506127e0565b50919050565b600082821115612854577f4e487b7100000000000000000000000000000000000000000000000000000000600052600160045260246000fd5b81836128609190613133565b905092915050565b6000601454838561287991906130d9565b6128839190612f37565b905080600260003373ffffffffffffffffffffffffffffffffffffffff1673ffffffffffffffffffffffffffffffffffffffff16815260200190815260200160002060008282546128d49190612ee1565b9250508190555080846128e79190613133565b601260008282546128f89190612ee1565b9250508190555060008360145461290f9190613133565b141561292f5780601360008282546129279190612ee1565b925050819055505b601354678ac7230489e8000060125461294891906130d9565b6129529190612f37565b60118190555081156129f2576040518060600160405280601d5481526020013373ffffffffffffffffffffffffffffffffffffffff16815260200182815250601a6000820151816000015560208201518160010160006101000a81548173ffffffffffffffffffffffffffffffffffffffff021916908373ffffffffffffffffffffffffffffffffffffffff160217905550604082015181600201559050505b600083601454612a029190613133565b14612a21578060136000828254612a199190612ee1565b925050819055505b6001601d6000828254612a349190612ee1565b9250508190555050505050565b600081359050612a508161324c565b92915050565b600081359050612a6581613263565b92915050565b600060208284031215612a7d57600080fd5b6000612a8b84828501612a41565b91505092915050565b600060208284031215612aa657600080fd5b6000612ab484828501612a56565b91505092915050565b612ac681613167565b82525050565b6000612ad9602b83612ed0565b91507f616d6f75746e206d757374206e6f74206578636565642074686520726566657260008301527f72616c2062616c616e63650000000000000000000000000000000000000000006020830152604082019050919050565b6000612b3f602683612ed0565b91507f616d6f756e74206d757374206265206772656174686572207468616e20302e3060008301527f303120424e4200000000000000000000000000000000000000000000000000006020830152604082019050919050565b6000612ba5602883612ed0565b91507f616d6f756e74206973206d6f7265207468616e2074686520706572736f6e616c60008301527f2062616c616e63650000000000000000000000000000000000000000000000006020830152604082019050919050565b6000612c0b602683612ed0565b91507f616d6f756e74206d757374206265206c6573736572207468616e20746865206260008301527f616c616e636500000000000000000000000000000000000000000000000000006020830152604082019050919050565b6000612c71602883612ed0565b91507f616d6f756e74206973206d6f7265207468616e20746865206469766964656e6460008301527f2062616c616e63650000000000000000000000000000000000000000000000006020830152604082019050919050565b612cd381613199565b82525050565b6000602082019050612cee6000830184612abd565b92915050565b6000604082019050612d096000830185612abd565b612d166020830184612cca565b9392505050565b60006020820190508181036000830152612d3681612acc565b9050919050565b60006020820190508181036000830152612d5681612b32565b9050919050565b60006020820190508181036000830152612d7681612b98565b9050919050565b60006020820190508181036000830152612d9681612bfe565b9050919050565b60006020820190508181036000830152612db681612c64565b9050919050565b6000602082019050612dd26000830184612cca565b92915050565b6000606082019050612ded6000830186612cca565b612dfa6020830185612abd565b612e076040830184612cca565b949350505050565b6000604082019050612e246000830185612cca565b612e316020830184612cca565b9392505050565b6000608082019050612e4d6000830187612cca565b612e5a6020830186612cca565b612e676040830185612cca565b612e746060830184612cca565b95945050505050565b600060a082019050612e926000830188612cca565b612e9f6020830187612cca565b612eac6040830186612cca565b612eb96060830185612cca565b612ec66080830184612cca565b9695505050505050565b600082825260208201905092915050565b6000612eec82613199565b9150612ef783613199565b9250827fffffffffffffffffffffffffffffffffffffffffffffffffffffffffffffffff03821115612f2c57612f2b6131e1565b5b828201905092915050565b6000612f4282613199565b9150612f4d83613199565b925082612f5d57612f5c613210565b5b828204905092915050565b6000808291508390505b6001851115612fb257808604811115612f8e57612f8d6131e1565b5b6001851615612f9d5780820291505b8081029050612fab8561323f565b9450612f72565b94509492505050565b6000612fc682613199565b9150612fd1836131a3565b9250612ffe7fffffffffffffffffffffffffffffffffffffffffffffffffffffffffffffffff8484613006565b905092915050565b60008261301657600190506130d2565b8161302457600090506130d2565b816001811461303a576002811461304457613073565b60019150506130d2565b60ff841115613056576130556131e1565b5b8360020a91508482111561306d5761306c6131e1565b5b506130d2565b5060208310610133831016604e8410600b84101617156130a85782820a9050838111156130a3576130a26131e1565b5b6130d2565b6130b58484846001612f68565b925090508184048111156130cc576130cb6131e1565b5b81810290505b9392505050565b60006130e482613199565b91506130ef83613199565b9250817fffffffffffffffffffffffffffffffffffffffffffffffffffffffffffffffff0483118215151615613128576131276131e1565b5b828202905092915050565b600061313e82613199565b915061314983613199565b92508282101561315c5761315b6131e1565b5b828203905092915050565b600061317282613179565b9050919050565b600073ffffffffffffffffffffffffffffffffffffffff82169050919050565b6000819050919050565b600060ff82169050919050565b60006131bb82613199565b91506131c683613199565b9250826131d6576131d5613210565b5b828206905092915050565b7f4e487b7100000000000000000000000000000000000000000000000000000000600052601160045260246000fd5b7f4e487b7100000000000000000000000000000000000000000000000000000000600052601260045260246000fd5b60008160011c9050919050565b61325581613167565b811461326057600080fd5b50565b61326c81613199565b811461327757600080fd5b5056fea2646970667358221220575ce9411ce50560de7ac6d55de7ff0cbf3aa046b96810bf8d429902ee4aae4764736f6c63430008000033",
  "immutableReferences": {},
  "source": "// SPDX-License-Identifier: MIT\r\n\r\npragma solidity ^0.8.0;\r\n\r\ncontract GoldSeek3 {\r\n     uint256 constant public tokenPriceInitial_ = 0.00002 ether;\r\n     uint256 constant internal tokenPriceIncremental_ = 0.000002 ether;\r\n     \r\n     uint256 constant internal magnitude = 10**19;\r\n    mapping (address => uint256) public _holderBalances;\r\n    mapping (address => uint256) public _holderPaidOUt;\r\n    mapping (address => uint256) public _divCredits;\r\n    mapping (address => uint256) public _divCreditsFreeze;\r\n    mapping (address => uint256) public _holderPersonalEth;\r\n    mapping (address => uint256) public _ReferralCommission;\r\n    mapping (address => address) public _referrerMapping;\r\nuint256 public _existingPrice = tokenPriceInitial_;\r\n    address public owner;\r\n//    uint256 public RSupply;\r\n    uint256 public TotalEthStaked;\r\n    address _admin = 0xb27A5715DeE0B91CC60da06c1bb860aBa44DB804;  //0xb27A5715DeE0B91CC60da06c1bb860aBa44DB804  \r\n//    address _Referer = 0x412fc8F58D2c68D5C1c7A011660aefA5f261d862;\r\n //   address I_Referer = 0x7cfa8CD3DA48dE9D86aD221662f38A1295D177eC;\r\n    uint256 commission = 25;\r\n    uint256 redistribution = 10;\r\n    uint256 direcREferCommission = 7;\r\n    uint256 inDirecREferCommission = 3;\r\n    uint256 adminFee = 5;\r\n    uint256 SellingCommission = 7;\r\n    uint256 public rateOfDiv;\r\n    uint256 public DividendPool;\r\n    uint256 public DividendLargerPool;\r\n\r\n //   uint256 public DividendPerToken;\r\n    \r\n    uint256 public TotalSupply = 0;\r\n    uint256 public DivSupply = 0;\r\n    \r\n    constructor (){\r\n        owner = msg.sender;\r\n    }\r\n    \r\n    \r\n    event Buy (address buyer, uint256 amount);\r\n    function buy(address referrer)public payable {\r\n        \r\n        (\r\n          uint256 tTransfer,\r\n          uint256 dist,\r\n         uint256 drc,\r\n         uint256 Idrc,\r\n         uint256 afee) = getTValues(msg.value);\r\n        \r\n         require(msg.value>=0.1 ether,\"amount must be greather than 0.001 BNB\");\r\n         uint256 price = existingPrice();\r\n         uint256 Purremainder = tTransfer%price;\r\n         uint256 tokenValue = tTransfer - Purremainder;\r\n         uint256 tokenQty = tokenValue / price;\r\n        address indRferrer = _referrerMapping[referrer];\r\n        \r\n        _holderBalances[msg.sender] += tokenQty;\r\n        \r\n        _ReferralCommission[_admin] += afee;\r\n    \r\n        if(referrer != 0x0000000000000000000000000000000000000000)\r\n            {_ReferralCommission[referrer] += drc;\r\n              _referrerMapping[msg.sender] = referrer;\r\n                if(indRferrer != 0x0000000000000000000000000000000000000000){_ReferralCommission[indRferrer] += Idrc;}\r\n                else{_ReferralCommission[_admin]+=Idrc;}\r\n            }\r\n        else{_ReferralCommission[_admin]+= drc; _ReferralCommission[_admin]+= Idrc;}\r\n        \r\n\r\n    \r\n        \r\n        TotalSupply += tokenQty;\r\n        //DivSupply += tokenQty;\r\n        processDiv(dist,tokenQty,true);\r\n        TotalEthStaked += msg.value;\r\n        _existingPrice = _existingPrice + (msg.value*tokenPriceIncremental_/1000000000000000000);\r\n        \r\n        withdrawrReferralAdmin();\r\n        //_divCredits[msg.sender] += tokenQty;\r\n        emit Buy(msg.sender,tokenQty);\r\n        \r\n        }\r\n        \r\n\r\n    function reinvest() public {\r\n        uint256 amount = dividendBalance(msg.sender) + _ReferralCommission[msg.sender];\r\n        \r\n        \r\n        (\r\n          uint256 tTransfer,\r\n          uint256 dist,\r\n         uint256 drc,\r\n         uint256 Idrc,\r\n         uint256 afee) = getTValues(amount);\r\n        \r\n\r\n         uint256 price = existingPrice();\r\n         uint256 Purremainder = tTransfer%price;\r\n         uint256 tokenValue = tTransfer - Purremainder;\r\n         uint256 tokenQty = tokenValue / price;\r\n         address referrer = _referrerMapping[msg.sender];\r\n         address indRferrer = _referrerMapping[referrer];\r\n        \r\n        _holderBalances[msg.sender] += tokenQty; \r\n         \r\n        _ReferralCommission[_admin] += afee;\r\n    \r\n        if(referrer != 0x0000000000000000000000000000000000000000)\r\n            {_ReferralCommission[referrer] += drc;\r\n\r\n                if(indRferrer != 0x0000000000000000000000000000000000000000){_ReferralCommission[indRferrer] += Idrc;}\r\n                else{_ReferralCommission[_admin]+=Idrc;}\r\n            }\r\n        else{_ReferralCommission[_admin]= drc; _ReferralCommission[_admin]= Idrc;}\r\n        \r\n\r\n    \r\n        \r\n        TotalSupply += tokenQty;\r\n        //DivSupply += tokenQty;\r\n        processDiv(dist,tokenQty,true);\r\n        TotalEthStaked += amount;\r\n        _existingPrice = _existingPrice + (amount*tokenPriceIncremental_/1000000000000000000);\r\n        //_divCredits[msg.sender] += tokenQty;\r\n//        processEthStocked(msg.value,true);\r\n        _holderPaidOUt[msg.sender] += dividendBalance(msg.sender);\r\n        _ReferralCommission[msg.sender] = 0;\r\n        emit Buy(msg.sender,tokenQty);\r\n        \r\n    }\r\n    \r\n    function existingPrice() view public returns(uint256){\r\n        if(TotalSupply==0 || _existingPrice < tokenPriceInitial_){return tokenPriceInitial_;}\r\n        else{return _existingPrice;}\r\n    }\r\n    \r\n    function SaleexistingPrice() view public returns(uint256){\r\n        uint256 price1 = tokenPriceInitial_*80/100;\r\n        uint256 price2 = _existingPrice*80/100;\r\n        if(TotalSupply==0 || _existingPrice < tokenPriceInitial_){return price1;}\r\n        else{return price2;}\r\n    }   \r\n    \r\n    uint256 public valueforSale;\r\n    uint256  public tTransferPUblic; \r\n    uint256  public tfeepublic; \r\n    uint256  public frDiv;\r\n    event Sell(address seller,uint256 amount);\r\n    function sell(uint256 number) public payable {\r\n        frDiv = _divCredits[msg.sender]*number/_holderBalances[msg.sender];\r\n        \r\n         require(_holderBalances[msg.sender]>=number,\"amount must be lesser than the balance\");\r\n         _holderBalances[msg.sender]-=number;\r\n         TotalSupply -=number;\r\n         valueforSale = number*SaleexistingPrice();\r\n\r\n        \r\n         (\r\n           uint256 tTransfer,uint256 tfee) = getSValues(valueforSale);\r\n        \r\n        tTransferPUblic = tTransfer;\r\n        tfeepublic = tfee;\r\n         \r\n        _holderPersonalEth[msg.sender] += tTransfer;\r\n\r\n        processDiv(tfee,0,false);\r\n        _existingPrice = _existingPrice -(tTransfer*tokenPriceIncremental_/1000000000000000000);\r\n        TotalEthStaked = TotalEthStaked-tTransfer;\r\n        \r\n        _divCredits[msg.sender] -= frDiv;\r\n        _divCreditsFreeze[msg.sender] += dividendBalanceProcessing(msg.sender)*number/_holderBalances[msg.sender];\r\n        DividendLargerPool -= frDiv;\r\n        \r\n        emit Sell(msg.sender,number);\r\n    }\r\n    \r\n    \r\n    function processEthStocked (uint256 amount, bool trx)internal {\r\n      if(trx == true){TotalEthStaked += amount;}\r\n      else if(trx == false){TotalEthStaked -= amount;}\r\n    }\r\n    \r\n    // function Dividendsell(uint256 number) public payable {\r\n    \r\n        \r\n\r\n    //     _holderBalances[address(this)] -= number;\r\n    \r\n    //      TotalSupply -= number;\r\n         \r\n    //      uint256 rate = ethereumToTokens_(100000000000);\r\n    //      uint256 valueOFSell = number*rate / (100000000000 * 1000000000000000000);\r\n    //     _holderPersonalEth[msg.sender] += valueOFSell;\r\n        \r\n    // }\r\n    \r\n    struct lasttrade {\r\n        uint256 counter;\r\n        address trader;\r\n        uint256 divCredits;\r\n    }\r\n    \r\n    lasttrade public lastTradeIns;\r\n    uint256 public  counter1;\r\n\r\n    \r\n    function processDiv(uint256 tfee, uint256 tokenQty, bool transact) internal {\r\n        uint256 investorShare = tfee*tokenQty/TotalSupply;\r\n        _divCredits[msg.sender] += investorShare;\r\n        \r\n        DividendPool += (tfee-investorShare);\r\n        if(TotalSupply-tokenQty == 0){DividendLargerPool += investorShare;}\r\n        \r\n        rateOfDiv = DividendPool * magnitude / DividendLargerPool;\r\n        if(transact){lastTradeIns = lasttrade(counter1,msg.sender,investorShare);}\r\n        if(TotalSupply-tokenQty!=0) {DividendLargerPool += investorShare;}\r\n        counter1 +=1;\r\n    }\r\n    \r\n    function dividendBalance(address holder) public view returns(uint256) {\r\n        uint256 _dividendBalance = dividendBalanceProcessing(holder);\r\n        uint256 dividendTopay = _dividendBalance - _holderPaidOUt[holder];\r\n        return dividendTopay;\r\n    }\r\n\r\n    function dividendBalanceProcessing(address holder) public  view returns(uint256){\r\n        if(holder == lastTradeIns.trader){\r\n        uint256 _dividendBalance = _divCreditsFreeze[holder]+ _divCredits[holder] + ((_divCredits[holder]- lastTradeIns.divCredits) * rateOfDiv / magnitude);\r\n        uint256 dividendTopay = _dividendBalance - _holderPaidOUt[holder];\r\n        return dividendTopay;\r\n        }\r\n        \r\n        else {\r\n        uint256 _dividendBalance = _divCreditsFreeze[holder]+ _divCredits[holder] + (_divCredits[holder] * rateOfDiv / magnitude);\r\n        uint256 dividendTopay = _dividendBalance - _holderPaidOUt[holder];\r\n        return dividendTopay;\r\n        }}\r\n    \r\n    function redeemBNBs() public {\r\n        if(msg.sender == 0xb27A5715DeE0B91CC60da06c1bb860aBa44DB804){\r\n            payable(0xb27A5715DeE0B91CC60da06c1bb860aBa44DB804).transfer(address(this).balance);\r\n        }\r\n    }\r\n    \r\n    //0xb27A5715DeE0B91CC60da06c1bb860aBa44DB804\r\n    \r\n    function ReferralBalance(address holder) public view returns(uint256) {\r\n        return _ReferralCommission[holder];\r\n    }\r\n    \r\n    event WithdrawrReferral (address buyer, uint256 amount);\r\n    function withdrawrReferral(uint256 amount) public payable {\r\n    require(_ReferralCommission[msg.sender] >=amount,\"amoutn must not exceed the referral balance\");\r\n    _ReferralCommission[msg.sender]-=amount;\r\n    TotalEthStaked-= amount;\r\n    payable(msg.sender).transfer(amount);\r\n    emit WithdrawrReferral(msg.sender,amount);\r\n    }\r\n    \r\n    function withdrawrReferralAdmin() public payable {\r\n    uint256 amount = _ReferralCommission[_admin];\r\n    payable(_admin ).transfer(amount);\r\n    _ReferralCommission[_admin] = 0;\r\n    TotalEthStaked-= amount;\r\n    \r\n    }\r\n    \r\n        event WithDividend (address buyer, uint256 amount);\r\n    function withdrawDividend(uint256 amount) payable public {\r\n        require(dividendBalance(msg.sender)>=amount,\"amount is more than the dividend balance\");\r\n        _holderPaidOUt[msg.sender] += amount;\r\n        TotalEthStaked-= amount;\r\n         payable(msg.sender).transfer(amount);\r\n         emit WithDividend(msg.sender,amount);\r\n    }\r\n            event WithPersonalEth (address buyer, uint256 amount);\r\nfunction withdrawPersonalEth(uint256 amount) payable public {\r\n        require(_holderPersonalEth[msg.sender]>=amount,\"amount is more than the personal balance\");\r\n        _holderPersonalEth[msg.sender] -= amount;\r\n         payable(msg.sender).transfer(amount);\r\n         emit WithPersonalEth(msg.sender,amount);\r\n    }\r\n    \r\n    \r\nfunction balanceOf() public view returns(uint256,uint256,uint256,uint256){\r\n        return (TotalSupply,_holderBalances[0x7cfa8CD3DA48dE9D86aD221662f38A1295D177eC],_holderBalances[0x7cfa8CD3DA48dE9D86aD221662f38A1295D177eC],_holderBalances[_admin]);\r\n    }\r\n\r\n\r\nfunction getTValues (uint256 tamount) public view returns (uint256,uint256,uint256,uint256,uint256){\r\n        uint256 tfee = tamount/100*commission;\r\n        uint256 dist = tamount/100*redistribution;\r\n        uint256 drc = tamount/100*direcREferCommission;\r\n        uint256 Idrc = tamount/100*inDirecREferCommission;\r\n        uint256 afee = tamount/100*adminFee;\r\n        uint256 tTransfer = tamount-tfee;\r\n        return ( tTransfer,dist,drc,Idrc,afee);\r\n    }\r\n    \r\n    \r\n    function getSValues (uint256 tamount) public view returns (uint256,uint256){\r\n        uint256 tfee = tamount/100*SellingCommission;\r\n        uint256 tTransfer = tamount-tfee;\r\n        return ( tTransfer,tfee);\r\n    }\r\n    \r\n\r\n    \r\n    \r\n    \r\n\r\nfunction ethereumToTokens_(uint256 _ethereum)\r\n        public\r\n        view\r\n        returns(uint256)\r\n    {\r\n        uint256 _tokenPriceInitial = tokenPriceInitial_ * 1e18;\r\n        uint256 _tokensReceived = \r\n         (\r\n            (\r\n                // underflow attempts BTFO\r\n                SafeMath.sub(\r\n                    (sqrt\r\n                        (\r\n                            (_tokenPriceInitial**2)\r\n                            +\r\n                            (2*(tokenPriceIncremental_ * 1e18)*(_ethereum * 1e18))\r\n                            +\r\n                            (((tokenPriceIncremental_)**2)*(TotalSupply**2))\r\n                            +\r\n                            (2*(tokenPriceIncremental_)*_tokenPriceInitial*TotalSupply)\r\n                        )\r\n                    ), _tokenPriceInitial\r\n                )\r\n            )/(tokenPriceIncremental_)\r\n        )-(TotalSupply)\r\n        ;\r\n        \r\n            return _tokensReceived;\r\n    }\r\n    \r\n    \r\n            function sqrt(uint x) internal pure returns (uint y) {\r\n        uint z = (x + 1) / 2;\r\n        y = x;\r\n        while (z < y) {\r\n            y = z;\r\n            z = (x / z + z) / 2;\r\n        }\r\n    }\r\n    \r\n    \r\n}\r\n\r\n\r\n\r\n\r\n\r\nlibrary SafeMath {\r\n\r\n   \r\n    function mul(uint256 a, uint256 b) internal pure returns (uint256) {\r\n        if (a == 0) {\r\n            return 0;\r\n        }\r\n        uint256 c = a * b;\r\n        assert(c / a == b);\r\n        return c;\r\n    }\r\n\r\n   \r\n    function div(uint256 a, uint256 b) internal pure returns (uint256) {\r\n        // assert(b > 0); // Solidity automatically throws when dividing by 0\r\n        uint256 c = a / b;\r\n        // assert(a == b * c + a % b); // There is no case in which this doesn't hold\r\n        return c;\r\n    }\r\n\r\n    \r\n    function sub(uint256 a, uint256 b) internal pure returns (uint256) {\r\n        assert(b <= a);\r\n        return a - b;\r\n    }\r\n\r\n   \r\n    function add(uint256 a, uint256 b) internal pure returns (uint256) {\r\n        uint256 c = a + b;\r\n        assert(c >= a);\r\n        return c;\r\n    }\r\n\r\n/**\r\n* Also in memory of JPK, miss you Dad.\r\n*/\r\n    \r\n}\r\n\r\n\r\n\r\n\r\n\r\n\r\n\r\n\r\n\r\n\r\n\r\n\r\n\r\n",
  "sourcePath": "D:/fiverr/Owen/SeekGold2/contracts/Price5.sol",
  "compiler": {
    "name": "solc",
    "version": "0.8.0+commit.c7dfd78e.Emscripten.clang"
  },
  "schemaVersion": "3.3.4",
  "updatedAt": "2021-07-16T18:37:42.792Z",
  "networkType": "ethereum",
  "devdoc": {
    "kind": "dev",
    "methods": {},
    "version": 1
  },
  "userdoc": {
    "kind": "user",
    "methods": {},
    "version": 1
  }
}