{
  "contractName": "GoldSeek3",
  "abi": [
    {
      "inputs": [],
      "stateMutability": "nonpayable",
      "type": "constructor"
    },
    {
      "anonymous": false,
      "inputs": [
        {
          "indexed": false,
          "internalType": "address",
          "name": "buyer",
          "type": "address"
        },
        {
          "indexed": false,
          "internalType": "uint256",
          "name": "amount",
          "type": "uint256"
        }
      ],
      "name": "Buy",
      "type": "event"
    },
    {
      "anonymous": false,
      "inputs": [
        {
          "indexed": false,
          "internalType": "address",
          "name": "seller",
          "type": "address"
        },
        {
          "indexed": false,
          "internalType": "uint256",
          "name": "amount",
          "type": "uint256"
        }
      ],
      "name": "Sell",
      "type": "event"
    },
    {
      "anonymous": false,
      "inputs": [
        {
          "indexed": false,
          "internalType": "address",
          "name": "buyer",
          "type": "address"
        },
        {
          "indexed": false,
          "internalType": "uint256",
          "name": "amount",
          "type": "uint256"
        }
      ],
      "name": "WithDividend",
      "type": "event"
    },
    {
      "anonymous": false,
      "inputs": [
        {
          "indexed": false,
          "internalType": "address",
          "name": "buyer",
          "type": "address"
        },
        {
          "indexed": false,
          "internalType": "uint256",
          "name": "amount",
          "type": "uint256"
        }
      ],
      "name": "WithPersonalEth",
      "type": "event"
    },
    {
      "anonymous": false,
      "inputs": [
        {
          "indexed": false,
          "internalType": "address",
          "name": "buyer",
          "type": "address"
        },
        {
          "indexed": false,
          "internalType": "uint256",
          "name": "amount",
          "type": "uint256"
        }
      ],
      "name": "WithdrawrReferral",
      "type": "event"
    },
    {
      "inputs": [],
      "name": "DivSupply",
      "outputs": [
        {
          "internalType": "uint256",
          "name": "",
          "type": "uint256"
        }
      ],
      "stateMutability": "view",
      "type": "function",
      "constant": true
    },
    {
      "inputs": [],
      "name": "DividendPool",
      "outputs": [
        {
          "internalType": "uint256",
          "name": "",
          "type": "uint256"
        }
      ],
      "stateMutability": "view",
      "type": "function",
      "constant": true
    },
    {
      "inputs": [],
      "name": "TotalEthStaked",
      "outputs": [
        {
          "internalType": "uint256",
          "name": "",
          "type": "uint256"
        }
      ],
      "stateMutability": "view",
      "type": "function",
      "constant": true
    },
    {
      "inputs": [],
      "name": "TotalSupply",
      "outputs": [
        {
          "internalType": "uint256",
          "name": "",
          "type": "uint256"
        }
      ],
      "stateMutability": "view",
      "type": "function",
      "constant": true
    },
    {
      "inputs": [
        {
          "internalType": "address",
          "name": "",
          "type": "address"
        }
      ],
      "name": "_ReferralCommission",
      "outputs": [
        {
          "internalType": "uint256",
          "name": "",
          "type": "uint256"
        }
      ],
      "stateMutability": "view",
      "type": "function",
      "constant": true
    },
    {
      "inputs": [
        {
          "internalType": "address",
          "name": "",
          "type": "address"
        }
      ],
      "name": "_divCredits",
      "outputs": [
        {
          "internalType": "uint256",
          "name": "",
          "type": "uint256"
        }
      ],
      "stateMutability": "view",
      "type": "function",
      "constant": true
    },
    {
      "inputs": [],
      "name": "_existingPrice",
      "outputs": [
        {
          "internalType": "uint256",
          "name": "",
          "type": "uint256"
        }
      ],
      "stateMutability": "view",
      "type": "function",
      "constant": true
    },
    {
      "inputs": [
        {
          "internalType": "address",
          "name": "",
          "type": "address"
        }
      ],
      "name": "_holderBalances",
      "outputs": [
        {
          "internalType": "uint256",
          "name": "",
          "type": "uint256"
        }
      ],
      "stateMutability": "view",
      "type": "function",
      "constant": true
    },
    {
      "inputs": [
        {
          "internalType": "address",
          "name": "",
          "type": "address"
        }
      ],
      "name": "_holderPaidOUt",
      "outputs": [
        {
          "internalType": "uint256",
          "name": "",
          "type": "uint256"
        }
      ],
      "stateMutability": "view",
      "type": "function",
      "constant": true
    },
    {
      "inputs": [
        {
          "internalType": "address",
          "name": "",
          "type": "address"
        }
      ],
      "name": "_holderPersonalEth",
      "outputs": [
        {
          "internalType": "uint256",
          "name": "",
          "type": "uint256"
        }
      ],
      "stateMutability": "view",
      "type": "function",
      "constant": true
    },
    {
      "inputs": [
        {
          "internalType": "address",
          "name": "",
          "type": "address"
        }
      ],
      "name": "_referrerMapping",
      "outputs": [
        {
          "internalType": "address",
          "name": "",
          "type": "address"
        }
      ],
      "stateMutability": "view",
      "type": "function",
      "constant": true
    },
    {
      "inputs": [],
      "name": "owner",
      "outputs": [
        {
          "internalType": "address",
          "name": "",
          "type": "address"
        }
      ],
      "stateMutability": "view",
      "type": "function",
      "constant": true
    },
    {
      "inputs": [],
      "name": "rateOfDiv",
      "outputs": [
        {
          "internalType": "uint256",
          "name": "",
          "type": "uint256"
        }
      ],
      "stateMutability": "view",
      "type": "function",
      "constant": true
    },
    {
      "inputs": [],
      "name": "tTransferPUblic",
      "outputs": [
        {
          "internalType": "uint256",
          "name": "",
          "type": "uint256"
        }
      ],
      "stateMutability": "view",
      "type": "function",
      "constant": true
    },
    {
      "inputs": [],
      "name": "tfeepublic",
      "outputs": [
        {
          "internalType": "uint256",
          "name": "",
          "type": "uint256"
        }
      ],
      "stateMutability": "view",
      "type": "function",
      "constant": true
    },
    {
      "inputs": [],
      "name": "tokenPriceInitial_",
      "outputs": [
        {
          "internalType": "uint256",
          "name": "",
          "type": "uint256"
        }
      ],
      "stateMutability": "view",
      "type": "function",
      "constant": true
    },
    {
      "inputs": [],
      "name": "valueforSale",
      "outputs": [
        {
          "internalType": "uint256",
          "name": "",
          "type": "uint256"
        }
      ],
      "stateMutability": "view",
      "type": "function",
      "constant": true
    },
    {
      "inputs": [
        {
          "internalType": "address",
          "name": "referrer",
          "type": "address"
        }
      ],
      "name": "buy",
      "outputs": [],
      "stateMutability": "payable",
      "type": "function",
      "payable": true
    },
    {
      "inputs": [],
      "name": "reinvest",
      "outputs": [],
      "stateMutability": "nonpayable",
      "type": "function"
    },
    {
      "inputs": [],
      "name": "existingPrice",
      "outputs": [
        {
          "internalType": "uint256",
          "name": "",
          "type": "uint256"
        }
      ],
      "stateMutability": "view",
      "type": "function",
      "constant": true
    },
    {
      "inputs": [],
      "name": "SaleexistingPrice",
      "outputs": [
        {
          "internalType": "uint256",
          "name": "",
          "type": "uint256"
        }
      ],
      "stateMutability": "view",
      "type": "function",
      "constant": true
    },
    {
      "inputs": [
        {
          "internalType": "uint256",
          "name": "number",
          "type": "uint256"
        }
      ],
      "name": "sell",
      "outputs": [],
      "stateMutability": "payable",
      "type": "function",
      "payable": true
    },
    {
      "inputs": [
        {
          "internalType": "address",
          "name": "holder",
          "type": "address"
        }
      ],
      "name": "dividendBalance",
      "outputs": [
        {
          "internalType": "uint256",
          "name": "",
          "type": "uint256"
        }
      ],
      "stateMutability": "view",
      "type": "function",
      "constant": true
    },
    {
      "inputs": [],
      "name": "redeemBNBs",
      "outputs": [],
      "stateMutability": "nonpayable",
      "type": "function"
    },
    {
      "inputs": [
        {
          "internalType": "address",
          "name": "holder",
          "type": "address"
        }
      ],
      "name": "ReferralBalance",
      "outputs": [
        {
          "internalType": "uint256",
          "name": "",
          "type": "uint256"
        }
      ],
      "stateMutability": "view",
      "type": "function",
      "constant": true
    },
    {
      "inputs": [
        {
          "internalType": "uint256",
          "name": "amount",
          "type": "uint256"
        }
      ],
      "name": "withdrawrReferral",
      "outputs": [],
      "stateMutability": "payable",
      "type": "function",
      "payable": true
    },
    {
      "inputs": [
        {
          "internalType": "uint256",
          "name": "amount",
          "type": "uint256"
        }
      ],
      "name": "withdrawDividend",
      "outputs": [],
      "stateMutability": "payable",
      "type": "function",
      "payable": true
    },
    {
      "inputs": [
        {
          "internalType": "uint256",
          "name": "amount",
          "type": "uint256"
        }
      ],
      "name": "withdrawPersonalEth",
      "outputs": [],
      "stateMutability": "payable",
      "type": "function",
      "payable": true
    },
    {
      "inputs": [],
      "name": "balanceOf",
      "outputs": [
        {
          "internalType": "uint256",
          "name": "",
          "type": "uint256"
        },
        {
          "internalType": "uint256",
          "name": "",
          "type": "uint256"
        },
        {
          "internalType": "uint256",
          "name": "",
          "type": "uint256"
        },
        {
          "internalType": "uint256",
          "name": "",
          "type": "uint256"
        }
      ],
      "stateMutability": "view",
      "type": "function",
      "constant": true
    },
    {
      "inputs": [
        {
          "internalType": "uint256",
          "name": "tamount",
          "type": "uint256"
        }
      ],
      "name": "getTValues",
      "outputs": [
        {
          "internalType": "uint256",
          "name": "",
          "type": "uint256"
        },
        {
          "internalType": "uint256",
          "name": "",
          "type": "uint256"
        },
        {
          "internalType": "uint256",
          "name": "",
          "type": "uint256"
        },
        {
          "internalType": "uint256",
          "name": "",
          "type": "uint256"
        },
        {
          "internalType": "uint256",
          "name": "",
          "type": "uint256"
        }
      ],
      "stateMutability": "view",
      "type": "function",
      "constant": true
    },
    {
      "inputs": [
        {
          "internalType": "uint256",
          "name": "tamount",
          "type": "uint256"
        }
      ],
      "name": "getSValues",
      "outputs": [
        {
          "internalType": "uint256",
          "name": "",
          "type": "uint256"
        },
        {
          "internalType": "uint256",
          "name": "",
          "type": "uint256"
        }
      ],
      "stateMutability": "view",
      "type": "function",
      "constant": true
    },
    {
      "inputs": [
        {
          "internalType": "uint256",
          "name": "_ethereum",
          "type": "uint256"
        }
      ],
      "name": "ethereumToTokens_",
      "outputs": [
        {
          "internalType": "uint256",
          "name": "",
          "type": "uint256"
        }
      ],
      "stateMutability": "view",
      "type": "function",
      "constant": true
    }
  ],
  "bytecode": "0x60806040526512309ce54000600655737cfa8cd3da48de9d86ad221662f38a1295d177ec600960006101000a81548173ffffffffffffffffffffffffffffffffffffffff021916908373ffffffffffffffffffffffffffffffffffffffff1602179055506019600a55600a600b556007600c556003600d556005600e556007600f556000601255600060135534801561009757600080fd5b5033600760006101000a81548173ffffffffffffffffffffffffffffffffffffffff021916908373ffffffffffffffffffffffffffffffffffffffff1602179055506129d9806100e86000396000f3fe6080604052600436106101e25760003560e01c80638e32380e11610102578063c4c1b39a11610095578063f088d54711610064578063f088d5471461072d578063f6efd4c314610749578063f721f46514610774578063fdb5a03e1461078b576101e2565b8063c4c1b39a14610667578063da743da014610692578063dceaa847146106d3578063e4849b3214610711576101e2565b8063b3d0b121116100d1578063b3d0b12114610597578063b49fbd7e146105c2578063baa0523f146105ed578063bf3dd4f11461062a576101e2565b80638e32380e146104d95780639a7727e714610504578063a0afd7311461052f578063a44b47f71461056c576101e2565b8063434590af1161017a5780635d9bd8b2116101495780635d9bd8b214610439578063674763fb14610455578063722713f7146104805780638da5cb5b146104ae576101e2565b8063434590af1461036957806346669e17146103945780634823fdd4146103d15780635d260527146103fc576101e2565b80632388cc1a116101b65780632388cc1a146102c95780632a562134146102e55780632a9121c7146103105780633998fc441461034d576101e2565b806246aeaa146101e757806304cd9ccd146102245780630ccd0834146102615780631a9fdbd51461029e575b600080fd5b3480156101f357600080fd5b5061020e600480360381019061020991906121cb565b6107a2565b60405161021b919061251d565b60405180910390f35b34801561023057600080fd5b5061024b600480360381019061024691906121cb565b6107ba565b604051610258919061251d565b60405180910390f35b34801561026d57600080fd5b50610288600480360381019061028391906121cb565b610803565b604051610295919061251d565b60405180910390f35b3480156102aa57600080fd5b506102b361081b565b6040516102c0919061251d565b60405180910390f35b6102e360048036038101906102de91906121f4565b610850565b005b3480156102f157600080fd5b506102fa6109ab565b604051610307919061251d565b60405180910390f35b34801561031c57600080fd5b50610337600480360381019061033291906121f4565b6109b1565b604051610344919061251d565b60405180910390f35b610367600480360381019061036291906121f4565b610ad3565b005b34801561037557600080fd5b5061037e610c2e565b60405161038b919061251d565b60405180910390f35b3480156103a057600080fd5b506103bb60048036038101906103b691906121cb565b610c34565b6040516103c8919061251d565b60405180910390f35b3480156103dd57600080fd5b506103e6610c4c565b6040516103f3919061251d565b60405180910390f35b34801561040857600080fd5b50610423600480360381019061041e91906121cb565b610cbf565b604051610430919061251d565b60405180910390f35b610453600480360381019061044e91906121f4565b610cd7565b005b34801561046157600080fd5b5061046a610dfb565b604051610477919061251d565b60405180910390f35b34801561048c57600080fd5b50610495610e01565b6040516104a59493929190612561565b60405180910390f35b3480156104ba57600080fd5b506104c3610f1f565b6040516104d09190612439565b60405180910390f35b3480156104e557600080fd5b506104ee610f45565b6040516104fb919061251d565b60405180910390f35b34801561051057600080fd5b50610519610f4b565b604051610526919061251d565b60405180910390f35b34801561053b57600080fd5b50610556600480360381019061055191906121cb565b610f51565b604051610563919061251d565b60405180910390f35b34801561057857600080fd5b50610581611010565b60405161058e919061251d565b60405180910390f35b3480156105a357600080fd5b506105ac611016565b6040516105b9919061251d565b60405180910390f35b3480156105ce57600080fd5b506105d761101c565b6040516105e4919061251d565b60405180910390f35b3480156105f957600080fd5b50610614600480360381019061060f91906121cb565b611022565b6040516106219190612439565b60405180910390f35b34801561063657600080fd5b50610651600480360381019061064c91906121cb565b611055565b60405161065e919061251d565b60405180910390f35b34801561067357600080fd5b5061067c61106d565b604051610689919061251d565b60405180910390f35b34801561069e57600080fd5b506106b960048036038101906106b491906121f4565b611077565b6040516106ca9594939291906125a6565b60405180910390f35b3480156106df57600080fd5b506106fa60048036038101906106f591906121f4565b611142565b604051610708929190612538565b60405180910390f35b61072b600480360381019061072691906121f4565b611180565b005b610747600480360381019061074291906121cb565b611391565b005b34801561075557600080fd5b5061075e611992565b60405161076b919061251d565b60405180910390f35b34801561078057600080fd5b50610789611998565b005b34801561079757600080fd5b506107a0611a3e565b005b60026020528060005260406000206000915090505481565b6000600460008373ffffffffffffffffffffffffffffffffffffffff1673ffffffffffffffffffffffffffffffffffffffff168152602001908152602001600020549050919050565b60006020528060005260406000206000915090505481565b600080601254148061083457506512309ce54000600654105b15610847576512309ce54000905061084d565b60065490505b90565b80600360003373ffffffffffffffffffffffffffffffffffffffff1673ffffffffffffffffffffffffffffffffffffffff1681526020019081526020016000205410156108d2576040517f08c379a00000000000000000000000000000000000000000000000000000000081526004016108c9906124bd565b60405180910390fd5b80600360003373ffffffffffffffffffffffffffffffffffffffff1673ffffffffffffffffffffffffffffffffffffffff1681526020019081526020016000206000828254610921919061285c565b925050819055503373ffffffffffffffffffffffffffffffffffffffff166108fc829081150290604051600060405180830381858888f1935050505015801561096e573d6000803e3d6000fd5b507fef38aa7fe00189425522db230e078a1c5e52ae4e3083e5f6757336cb3e95fc8b33826040516109a0929190612454565b60405180910390a150565b60085481565b600080670de0b6b3a76400006512309ce540006109ce9190612802565b905060006012546501d1a94a2000610ab3610aad601254866501d1a94a200060026109f99190612802565b610a039190612802565b610a0d9190612802565b6002601254610a1c91906126e4565b60026501d1a94a2000610a2f91906126e4565b610a399190612802565b670de0b6b3a76400008a610a4d9190612802565b670de0b6b3a76400006501d1a94a2000610a679190612802565b6002610a739190612802565b610a7d9190612802565b600289610a8a91906126e4565b610a94919061260a565b610a9e919061260a565b610aa8919061260a565b6120b1565b8561210e565b610abd9190612660565b610ac7919061285c565b90508092505050919050565b80600460003373ffffffffffffffffffffffffffffffffffffffff1673ffffffffffffffffffffffffffffffffffffffff168152602001908152602001600020541015610b55576040517f08c379a0000000000000000000000000000000000000000000000000000000008152600401610b4c9061247d565b60405180910390fd5b80600460003373ffffffffffffffffffffffffffffffffffffffff1673ffffffffffffffffffffffffffffffffffffffff1681526020019081526020016000206000828254610ba4919061285c565b925050819055503373ffffffffffffffffffffffffffffffffffffffff166108fc829081150290604051600060405180830381858888f19350505050158015610bf1573d6000803e3d6000fd5b507feb6ab569e8b3852c92eb3556e2bf33e5c4054efca5babb26b8ff74654793a9123382604051610c23929190612454565b60405180910390a150565b60145481565b60046020528060005260406000206000915090505481565b600080606460506512309ce54000610c649190612802565b610c6e9190612660565b9050600060646050600654610c839190612802565b610c8d9190612660565b905060006012541480610ca757506512309ce54000600654105b15610cb6578192505050610cbc565b80925050505b90565b60016020528060005260406000206000915090505481565b80610ce133610f51565b1015610d22576040517f08c379a0000000000000000000000000000000000000000000000000000000008152600401610d19906124fd565b60405180910390fd5b80600160003373ffffffffffffffffffffffffffffffffffffffff1673ffffffffffffffffffffffffffffffffffffffff1681526020019081526020016000206000828254610d71919061260a565b925050819055503373ffffffffffffffffffffffffffffffffffffffff166108fc829081150290604051600060405180830381858888f19350505050158015610dbe573d6000803e3d6000fd5b507f5bbdaacc10fd21c95c884d00a49069ea25391d756bb1973cd4bf606dd3b6ee863382604051610df0929190612454565b60405180910390a150565b60135481565b600080600080601254600080737cfa8cd3da48de9d86ad221662f38a1295d177ec73ffffffffffffffffffffffffffffffffffffffff1673ffffffffffffffffffffffffffffffffffffffff16815260200190815260200160002054600080737cfa8cd3da48de9d86ad221662f38a1295d177ec73ffffffffffffffffffffffffffffffffffffffff1673ffffffffffffffffffffffffffffffffffffffff16815260200190815260200160002054600080600960009054906101000a900473ffffffffffffffffffffffffffffffffffffffff1673ffffffffffffffffffffffffffffffffffffffff1673ffffffffffffffffffffffffffffffffffffffff16815260200190815260200160002054935093509350935090919293565b600760009054906101000a900473ffffffffffffffffffffffffffffffffffffffff1681565b60065481565b60165481565b60008068010000000000000000601054600260008673ffffffffffffffffffffffffffffffffffffffff1673ffffffffffffffffffffffffffffffffffffffff16815260200190815260200160002054610fab9190612802565b610fb59190612660565b90506000600160008573ffffffffffffffffffffffffffffffffffffffff1673ffffffffffffffffffffffffffffffffffffffff1681526020019081526020016000205482611004919061285c565b90508092505050919050565b60125481565b60105481565b60155481565b60056020528060005260406000206000915054906101000a900473ffffffffffffffffffffffffffffffffffffffff1681565b60036020528060005260406000206000915090505481565b6512309ce5400081565b600080600080600080600a546064886110909190612660565b61109a9190612802565b90506000600b546064896110ae9190612660565b6110b89190612802565b90506000600c5460648a6110cc9190612660565b6110d69190612802565b90506000600d5460648b6110ea9190612660565b6110f49190612802565b90506000600e5460648c6111089190612660565b6111129190612802565b90506000858c611122919061285c565b905080858585859a509a509a509a509a5050505050505091939590929450565b6000806000600f546064856111579190612660565b6111619190612802565b905060008185611171919061285c565b90508082935093505050915091565b806000803373ffffffffffffffffffffffffffffffffffffffff1673ffffffffffffffffffffffffffffffffffffffff168152602001908152602001600020541015611201576040517f08c379a00000000000000000000000000000000000000000000000000000000081526004016111f8906124dd565b60405180910390fd5b806000803373ffffffffffffffffffffffffffffffffffffffff1673ffffffffffffffffffffffffffffffffffffffff168152602001908152602001600020600082825461124f919061285c565b925050819055508060126000828254611268919061285c565b92505081905550611277610c4c565b816112829190612802565b601481905550600080611296601454611142565b91509150816015819055508060168190555081600360003373ffffffffffffffffffffffffffffffffffffffff1673ffffffffffffffffffffffffffffffffffffffff16815260200190815260200160002060008282546112f7919061260a565b925050819055506113078161215b565b670de0b6b3a76400006501d1a94a2000836113229190612802565b61132c9190612660565b600654611339919061285c565b6006819055508160085461134d919061285c565b6008819055507f5e5e995ce3133561afceaa51a9a154d5db228cd7525d34df5185582c18d3df093384604051611384929190612454565b60405180910390a1505050565b60008060008060006113a234611077565b9450945094509450945067016345785d8a00003410156113f7576040517f08c379a00000000000000000000000000000000000000000000000000000000081526004016113ee9061249d565b60405180910390fd5b600061140161081b565b90506000818761141191906128d9565b905060008188611421919061285c565b9050600083826114319190612660565b90506000600560008c73ffffffffffffffffffffffffffffffffffffffff1673ffffffffffffffffffffffffffffffffffffffff16815260200190815260200160002060009054906101000a900473ffffffffffffffffffffffffffffffffffffffff169050816000803373ffffffffffffffffffffffffffffffffffffffff1673ffffffffffffffffffffffffffffffffffffffff16815260200190815260200160002060008282546114e5919061260a565b9250508190555081600260003373ffffffffffffffffffffffffffffffffffffffff1673ffffffffffffffffffffffffffffffffffffffff168152602001908152602001600020600082825461153b919061260a565b925050819055508560046000600960009054906101000a900473ffffffffffffffffffffffffffffffffffffffff1673ffffffffffffffffffffffffffffffffffffffff1673ffffffffffffffffffffffffffffffffffffffff16815260200190815260200160002060008282546115b3919061260a565b92505081905550600073ffffffffffffffffffffffffffffffffffffffff168b73ffffffffffffffffffffffffffffffffffffffff16146117cf5787600460008d73ffffffffffffffffffffffffffffffffffffffff1673ffffffffffffffffffffffffffffffffffffffff168152602001908152602001600020600082825461163d919061260a565b925050819055508a600560003373ffffffffffffffffffffffffffffffffffffffff1673ffffffffffffffffffffffffffffffffffffffff16815260200190815260200160002060006101000a81548173ffffffffffffffffffffffffffffffffffffffff021916908373ffffffffffffffffffffffffffffffffffffffff160217905550600073ffffffffffffffffffffffffffffffffffffffff168173ffffffffffffffffffffffffffffffffffffffff16146117515786600460008373ffffffffffffffffffffffffffffffffffffffff1673ffffffffffffffffffffffffffffffffffffffff1681526020019081526020016000206000828254611745919061260a565b925050819055506117ca565b8660046000600960009054906101000a900473ffffffffffffffffffffffffffffffffffffffff1673ffffffffffffffffffffffffffffffffffffffff1673ffffffffffffffffffffffffffffffffffffffff16815260200190815260200160002060008282546117c2919061260a565b925050819055505b6118c0565b8760046000600960009054906101000a900473ffffffffffffffffffffffffffffffffffffffff1673ffffffffffffffffffffffffffffffffffffffff1673ffffffffffffffffffffffffffffffffffffffff1681526020019081526020016000206000828254611840919061260a565b925050819055508660046000600960009054906101000a900473ffffffffffffffffffffffffffffffffffffffff1673ffffffffffffffffffffffffffffffffffffffff1673ffffffffffffffffffffffffffffffffffffffff16815260200190815260200160002060008282546118b8919061260a565b925050819055505b81601260008282546118d2919061260a565b9250508190555081601360008282546118eb919061260a565b925050819055506118fb8961215b565b346008600082825461190d919061260a565b92505081905550670de0b6b3a76400006501d1a94a20003461192f9190612802565b6119399190612660565b600654611946919061260a565b6006819055507fe3d4187f6ca4248660cc0ac8b8056515bac4a8132be2eca31d6d0cc170722a7e338360405161197d929190612454565b60405180910390a15050505050505050505050565b60115481565b73b27a5715dee0b91cc60da06c1bb860aba44db80473ffffffffffffffffffffffffffffffffffffffff163373ffffffffffffffffffffffffffffffffffffffff161415611a3c5773b27a5715dee0b91cc60da06c1bb860aba44db80473ffffffffffffffffffffffffffffffffffffffff166108fc479081150290604051600060405180830381858888f19350505050158015611a3a573d6000803e3d6000fd5b505b565b6000600460003373ffffffffffffffffffffffffffffffffffffffff1673ffffffffffffffffffffffffffffffffffffffff16815260200190815260200160002054611a8933610f51565b611a93919061260a565b90506000806000806000611aa686611077565b945094509450945094506000611aba61081b565b905060008187611aca91906128d9565b905060008188611ada919061285c565b905060008382611aea9190612660565b90506000600560003373ffffffffffffffffffffffffffffffffffffffff1673ffffffffffffffffffffffffffffffffffffffff16815260200190815260200160002060009054906101000a900473ffffffffffffffffffffffffffffffffffffffff1690506000600560008373ffffffffffffffffffffffffffffffffffffffff1673ffffffffffffffffffffffffffffffffffffffff16815260200190815260200160002060009054906101000a900473ffffffffffffffffffffffffffffffffffffffff169050826000803373ffffffffffffffffffffffffffffffffffffffff1673ffffffffffffffffffffffffffffffffffffffff1681526020019081526020016000206000828254611c02919061260a565b9250508190555082600260003373ffffffffffffffffffffffffffffffffffffffff1673ffffffffffffffffffffffffffffffffffffffff1681526020019081526020016000206000828254611c58919061260a565b925050819055508660046000600960009054906101000a900473ffffffffffffffffffffffffffffffffffffffff1673ffffffffffffffffffffffffffffffffffffffff1673ffffffffffffffffffffffffffffffffffffffff1681526020019081526020016000206000828254611cd0919061260a565b92505081905550600073ffffffffffffffffffffffffffffffffffffffff168273ffffffffffffffffffffffffffffffffffffffff1614611e6e5788600460008473ffffffffffffffffffffffffffffffffffffffff1673ffffffffffffffffffffffffffffffffffffffff1681526020019081526020016000206000828254611d5a919061260a565b92505081905550600073ffffffffffffffffffffffffffffffffffffffff168173ffffffffffffffffffffffffffffffffffffffff1614611df05787600460008373ffffffffffffffffffffffffffffffffffffffff1673ffffffffffffffffffffffffffffffffffffffff1681526020019081526020016000206000828254611de4919061260a565b92505081905550611e69565b8760046000600960009054906101000a900473ffffffffffffffffffffffffffffffffffffffff1673ffffffffffffffffffffffffffffffffffffffff1673ffffffffffffffffffffffffffffffffffffffff1681526020019081526020016000206000828254611e61919061260a565b925050819055505b611f3b565b8860046000600960009054906101000a900473ffffffffffffffffffffffffffffffffffffffff1673ffffffffffffffffffffffffffffffffffffffff1673ffffffffffffffffffffffffffffffffffffffff168152602001908152602001600020819055508760046000600960009054906101000a900473ffffffffffffffffffffffffffffffffffffffff1673ffffffffffffffffffffffffffffffffffffffff1673ffffffffffffffffffffffffffffffffffffffff168152602001908152602001600020819055505b8260126000828254611f4d919061260a565b925050819055508260136000828254611f66919061260a565b92505081905550611f768a61215b565b8b60086000828254611f88919061260a565b92505081905550670de0b6b3a76400006501d1a94a20008d611faa9190612802565b611fb49190612660565b600654611fc1919061260a565b600681905550611fd033610f51565b600160003373ffffffffffffffffffffffffffffffffffffffff1673ffffffffffffffffffffffffffffffffffffffff168152602001908152602001600020600082825461201e919061260a565b925050819055506000600460003373ffffffffffffffffffffffffffffffffffffffff1673ffffffffffffffffffffffffffffffffffffffff168152602001908152602001600020819055507fe3d4187f6ca4248660cc0ac8b8056515bac4a8132be2eca31d6d0cc170722a7e338460405161209b929190612454565b60405180910390a1505050505050505050505050565b60008060026001846120c3919061260a565b6120cd9190612660565b90508291505b818110156121085780915060028182856120ed9190612660565b6120f7919061260a565b6121019190612660565b90506120d3565b50919050565b600082821115612147577f4e487b7100000000000000000000000000000000000000000000000000000000600052600160045260246000fd5b8183612153919061285c565b905092915050565b806011600082825461216d919061260a565b925050819055506013546801000000000000000060115461218e9190612802565b6121989190612660565b60108190555050565b6000813590506121b081612975565b92915050565b6000813590506121c58161298c565b92915050565b6000602082840312156121dd57600080fd5b60006121eb848285016121a1565b91505092915050565b60006020828403121561220657600080fd5b6000612214848285016121b6565b91505092915050565b61222681612890565b82525050565b6000612239602b836125f9565b91507f616d6f75746e206d757374206e6f74206578636565642074686520726566657260008301527f72616c2062616c616e63650000000000000000000000000000000000000000006020830152604082019050919050565b600061229f6026836125f9565b91507f616d6f756e74206d757374206265206772656174686572207468616e20302e3060008301527f303120424e4200000000000000000000000000000000000000000000000000006020830152604082019050919050565b60006123056028836125f9565b91507f616d6f756e74206973206d6f7265207468616e2074686520706572736f6e616c60008301527f2062616c616e63650000000000000000000000000000000000000000000000006020830152604082019050919050565b600061236b6026836125f9565b91507f616d6f756e74206d757374206265206c6573736572207468616e20746865206260008301527f616c616e636500000000000000000000000000000000000000000000000000006020830152604082019050919050565b60006123d16028836125f9565b91507f616d6f756e74206973206d6f7265207468616e20746865206469766964656e6460008301527f2062616c616e63650000000000000000000000000000000000000000000000006020830152604082019050919050565b612433816128c2565b82525050565b600060208201905061244e600083018461221d565b92915050565b6000604082019050612469600083018561221d565b612476602083018461242a565b9392505050565b600060208201905081810360008301526124968161222c565b9050919050565b600060208201905081810360008301526124b681612292565b9050919050565b600060208201905081810360008301526124d6816122f8565b9050919050565b600060208201905081810360008301526124f68161235e565b9050919050565b60006020820190508181036000830152612516816123c4565b9050919050565b6000602082019050612532600083018461242a565b92915050565b600060408201905061254d600083018561242a565b61255a602083018461242a565b9392505050565b6000608082019050612576600083018761242a565b612583602083018661242a565b612590604083018561242a565b61259d606083018461242a565b95945050505050565b600060a0820190506125bb600083018861242a565b6125c8602083018761242a565b6125d5604083018661242a565b6125e2606083018561242a565b6125ef608083018461242a565b9695505050505050565b600082825260208201905092915050565b6000612615826128c2565b9150612620836128c2565b9250827fffffffffffffffffffffffffffffffffffffffffffffffffffffffffffffffff038211156126555761265461290a565b5b828201905092915050565b600061266b826128c2565b9150612676836128c2565b92508261268657612685612939565b5b828204905092915050565b6000808291508390505b60018511156126db578086048111156126b7576126b661290a565b5b60018516156126c65780820291505b80810290506126d485612968565b945061269b565b94509492505050565b60006126ef826128c2565b91506126fa836128cc565b92506127277fffffffffffffffffffffffffffffffffffffffffffffffffffffffffffffffff848461272f565b905092915050565b60008261273f57600190506127fb565b8161274d57600090506127fb565b8160018114612763576002811461276d5761279c565b60019150506127fb565b60ff84111561277f5761277e61290a565b5b8360020a9150848211156127965761279561290a565b5b506127fb565b5060208310610133831016604e8410600b84101617156127d15782820a9050838111156127cc576127cb61290a565b5b6127fb565b6127de8484846001612691565b925090508184048111156127f5576127f461290a565b5b81810290505b9392505050565b600061280d826128c2565b9150612818836128c2565b9250817fffffffffffffffffffffffffffffffffffffffffffffffffffffffffffffffff04831182151516156128515761285061290a565b5b828202905092915050565b6000612867826128c2565b9150612872836128c2565b9250828210156128855761288461290a565b5b828203905092915050565b600061289b826128a2565b9050919050565b600073ffffffffffffffffffffffffffffffffffffffff82169050919050565b6000819050919050565b600060ff82169050919050565b60006128e4826128c2565b91506128ef836128c2565b9250826128ff576128fe612939565b5b828206905092915050565b7f4e487b7100000000000000000000000000000000000000000000000000000000600052601160045260246000fd5b7f4e487b7100000000000000000000000000000000000000000000000000000000600052601260045260246000fd5b60008160011c9050919050565b61297e81612890565b811461298957600080fd5b50565b612995816128c2565b81146129a057600080fd5b5056fea26469706673582212206e4de92ca15bb742847128cbe7ec25660b51ad32637cd3b1eeba3852c139741d64736f6c63430008000033",
  "immutableReferences": {},
  "source": "// SPDX-License-Identifier: MIT\r\n\r\npragma solidity ^0.8.0;\r\n\r\ncontract GoldSeek3 {\r\n     uint256 constant public tokenPriceInitial_ = 0.00002 ether;\r\n     uint256 constant internal tokenPriceIncremental_ = 0.000002 ether;\r\n     \r\n     uint256 constant internal magnitude = 2**64;\r\n    mapping (address => uint256) public _holderBalances;\r\n    mapping (address => uint256) public _holderPaidOUt;\r\n    mapping (address => uint256) public _divCredits;\r\n    mapping (address => uint256) public _holderPersonalEth;\r\n    mapping (address => uint256) public _ReferralCommission;\r\n    mapping (address => address) public _referrerMapping;\r\nuint256 public _existingPrice = tokenPriceInitial_;\r\n    address public owner;\r\n//    uint256 public RSupply;\r\n    uint256 public TotalEthStaked;\r\n    address _admin = 0x7cfa8CD3DA48dE9D86aD221662f38A1295D177eC;  //0xb27A5715DeE0B91CC60da06c1bb860aBa44DB804  \r\n//    address _Referer = 0x412fc8F58D2c68D5C1c7A011660aefA5f261d862;\r\n //   address I_Referer = 0x7cfa8CD3DA48dE9D86aD221662f38A1295D177eC;\r\n    uint256 commission = 25;\r\n    uint256 redistribution = 10;\r\n    uint256 direcREferCommission = 7;\r\n    uint256 inDirecREferCommission = 3;\r\n    uint256 adminFee = 5;\r\n    uint256 SellingCommission = 7;\r\n    uint256 public rateOfDiv;\r\n    uint256 public DividendPool;\r\n\r\n //   uint256 public DividendPerToken;\r\n    \r\n    uint256 public TotalSupply = 0;\r\n    uint256 public DivSupply = 0;\r\n    \r\n    constructor (){\r\n        owner = msg.sender;\r\n    }\r\n    \r\n    \r\n    event Buy (address buyer, uint256 amount);\r\n    function buy(address referrer)public payable {\r\n        \r\n        (\r\n          uint256 tTransfer,\r\n          uint256 dist,\r\n         uint256 drc,\r\n         uint256 Idrc,\r\n         uint256 afee) = getTValues(msg.value);\r\n        \r\n         require(msg.value>=0.1 ether,\"amount must be greather than 0.001 BNB\");\r\n         uint256 price = existingPrice();\r\n         uint256 Purremainder = tTransfer%price;\r\n         uint256 tokenValue = tTransfer - Purremainder;\r\n         uint256 tokenQty = tokenValue / price;\r\n        address indRferrer = _referrerMapping[referrer];\r\n        \r\n        _holderBalances[msg.sender] += tokenQty;\r\n        _divCredits[msg.sender] += tokenQty;\r\n        _ReferralCommission[_admin] += afee;\r\n    \r\n        if(referrer != 0x0000000000000000000000000000000000000000)\r\n            {_ReferralCommission[referrer] += drc;\r\n              _referrerMapping[msg.sender] = referrer;\r\n                if(indRferrer != 0x0000000000000000000000000000000000000000){_ReferralCommission[indRferrer] += Idrc;}\r\n                else{_ReferralCommission[_admin]+=Idrc;}\r\n            }\r\n        else{_ReferralCommission[_admin]+= drc; _ReferralCommission[_admin]+= Idrc;}\r\n        \r\n\r\n    \r\n        \r\n        TotalSupply += tokenQty;\r\n        DivSupply += tokenQty;\r\n        processDiv(dist);\r\n        TotalEthStaked += msg.value;\r\n        _existingPrice = _existingPrice + (msg.value*tokenPriceIncremental_/1000000000000000000);\r\n        \r\n//        processEthStocked(msg.value,true);\r\n        \r\n        emit Buy(msg.sender,tokenQty);\r\n        \r\n        }\r\n        \r\n\r\n    function reinvest() public {\r\n        uint256 amount = dividendBalance(msg.sender) + _ReferralCommission[msg.sender];\r\n        \r\n        \r\n        (\r\n          uint256 tTransfer,\r\n          uint256 dist,\r\n         uint256 drc,\r\n         uint256 Idrc,\r\n         uint256 afee) = getTValues(amount);\r\n        \r\n\r\n         uint256 price = existingPrice();\r\n         uint256 Purremainder = tTransfer%price;\r\n         uint256 tokenValue = tTransfer - Purremainder;\r\n         uint256 tokenQty = tokenValue / price;\r\n         address referrer = _referrerMapping[msg.sender];\r\n         address indRferrer = _referrerMapping[referrer];\r\n        \r\n        _holderBalances[msg.sender] += tokenQty; \r\n        _divCredits[msg.sender] += tokenQty; \r\n        _ReferralCommission[_admin] += afee;\r\n    \r\n        if(referrer != 0x0000000000000000000000000000000000000000)\r\n            {_ReferralCommission[referrer] += drc;\r\n\r\n                if(indRferrer != 0x0000000000000000000000000000000000000000){_ReferralCommission[indRferrer] += Idrc;}\r\n                else{_ReferralCommission[_admin]+=Idrc;}\r\n            }\r\n        else{_ReferralCommission[_admin]= drc; _ReferralCommission[_admin]= Idrc;}\r\n        \r\n\r\n    \r\n        \r\n        TotalSupply += tokenQty;\r\n        DivSupply += tokenQty;\r\n        processDiv(dist);\r\n        TotalEthStaked += amount;\r\n        _existingPrice = _existingPrice + (amount*tokenPriceIncremental_/1000000000000000000);\r\n        \r\n//        processEthStocked(msg.value,true);\r\n        _holderPaidOUt[msg.sender] += dividendBalance(msg.sender);\r\n        _ReferralCommission[msg.sender] = 0;\r\n        emit Buy(msg.sender,tokenQty);\r\n        \r\n    }\r\n    \r\n    function existingPrice() view public returns(uint256){\r\n        if(TotalSupply==0 || _existingPrice < tokenPriceInitial_){return tokenPriceInitial_;}\r\n        else{return _existingPrice;}\r\n    }\r\n    \r\n    function SaleexistingPrice() view public returns(uint256){\r\n        uint256 price1 = tokenPriceInitial_*80/100;\r\n        uint256 price2 = _existingPrice*80/100;\r\n        if(TotalSupply==0 || _existingPrice < tokenPriceInitial_){return price1;}\r\n        else{return price2;}\r\n    }   \r\n    \r\n    uint256 public valueforSale;\r\n    uint256  public tTransferPUblic; \r\n    uint256  public tfeepublic; \r\n    \r\n    event Sell(address seller,uint256 amount);\r\n    function sell(uint256 number) public payable {\r\n        \r\n        \r\n         require(_holderBalances[msg.sender]>=number,\"amount must be lesser than the balance\");\r\n         _holderBalances[msg.sender]-=number;\r\n         TotalSupply -=number;\r\n         valueforSale = number*SaleexistingPrice();\r\n\r\n        \r\n         (\r\n           uint256 tTransfer,uint256 tfee) = getSValues(valueforSale);\r\n        \r\n        tTransferPUblic = tTransfer;\r\n        tfeepublic = tfee;\r\n         \r\n        _holderPersonalEth[msg.sender] += tTransfer;\r\n\r\n        processDiv(tfee);\r\n        _existingPrice = _existingPrice -(tTransfer*tokenPriceIncremental_/1000000000000000000);\r\n        TotalEthStaked = TotalEthStaked-tTransfer;\r\n        emit Sell(msg.sender,number);\r\n    }\r\n    \r\n    \r\n    function processEthStocked (uint256 amount, bool trx)internal {\r\n      if(trx == true){TotalEthStaked += amount;}\r\n      else if(trx == false){TotalEthStaked -= amount;}\r\n    }\r\n    \r\n    // function Dividendsell(uint256 number) public payable {\r\n    \r\n        \r\n\r\n    //     _holderBalances[address(this)] -= number;\r\n    \r\n    //      TotalSupply -= number;\r\n         \r\n    //      uint256 rate = ethereumToTokens_(100000000000);\r\n    //      uint256 valueOFSell = number*rate / (100000000000 * 1000000000000000000);\r\n    //     _holderPersonalEth[msg.sender] += valueOFSell;\r\n        \r\n    // }\r\n    \r\n    function processDiv(uint256 tfee) internal {\r\n        DividendPool += tfee;\r\n        rateOfDiv = DividendPool * magnitude / DivSupply;\r\n    }\r\n    \r\n    function dividendBalance(address holder) public view returns(uint256) {\r\n        uint256 _dividendBalance = _divCredits[holder] * rateOfDiv / magnitude;\r\n        uint256 dividendTopay = _dividendBalance - _holderPaidOUt[holder];\r\n        return dividendTopay;\r\n    }\r\n    \r\n    function redeemBNBs() public {\r\n        if(msg.sender == 0xb27A5715DeE0B91CC60da06c1bb860aBa44DB804){\r\n            payable(0xb27A5715DeE0B91CC60da06c1bb860aBa44DB804).transfer(address(this).balance);\r\n        }\r\n    }\r\n    \r\n    //0xb27A5715DeE0B91CC60da06c1bb860aBa44DB804\r\n    \r\n    function ReferralBalance(address holder) public view returns(uint256) {\r\n        return _ReferralCommission[holder];\r\n    }\r\n    \r\n    event WithdrawrReferral (address buyer, uint256 amount);\r\n    function withdrawrReferral(uint256 amount) public payable {\r\n    require(_ReferralCommission[msg.sender] >=amount,\"amoutn must not exceed the referral balance\");\r\n    _ReferralCommission[msg.sender]-=amount;\r\n    payable(msg.sender).transfer(amount);\r\n    emit WithdrawrReferral(msg.sender,amount);\r\n    }\r\n    \r\n        event WithDividend (address buyer, uint256 amount);\r\n    function withdrawDividend(uint256 amount) payable public {\r\n        require(dividendBalance(msg.sender)>=amount,\"amount is more than the dividend balance\");\r\n        _holderPaidOUt[msg.sender] += amount;\r\n         payable(msg.sender).transfer(amount);\r\n         emit WithDividend(msg.sender,amount);\r\n    }\r\n            event WithPersonalEth (address buyer, uint256 amount);\r\nfunction withdrawPersonalEth(uint256 amount) payable public {\r\n        require(_holderPersonalEth[msg.sender]>=amount,\"amount is more than the personal balance\");\r\n        _holderPersonalEth[msg.sender] -= amount;\r\n         payable(msg.sender).transfer(amount);\r\n         emit WithPersonalEth(msg.sender,amount);\r\n    }\r\n    \r\n    \r\nfunction balanceOf() public view returns(uint256,uint256,uint256,uint256){\r\n        return (TotalSupply,_holderBalances[0x7cfa8CD3DA48dE9D86aD221662f38A1295D177eC],_holderBalances[0x7cfa8CD3DA48dE9D86aD221662f38A1295D177eC],_holderBalances[_admin]);\r\n    }\r\n\r\n\r\nfunction getTValues (uint256 tamount) public view returns (uint256,uint256,uint256,uint256,uint256){\r\n        uint256 tfee = tamount/100*commission;\r\n        uint256 dist = tamount/100*redistribution;\r\n        uint256 drc = tamount/100*direcREferCommission;\r\n        uint256 Idrc = tamount/100*inDirecREferCommission;\r\n        uint256 afee = tamount/100*adminFee;\r\n        uint256 tTransfer = tamount-tfee;\r\n        return ( tTransfer,dist,drc,Idrc,afee);\r\n    }\r\n    \r\n    \r\n    function getSValues (uint256 tamount) public view returns (uint256,uint256){\r\n        uint256 tfee = tamount/100*SellingCommission;\r\n        uint256 tTransfer = tamount-tfee;\r\n        return ( tTransfer,tfee);\r\n    }\r\n    \r\n\r\n    \r\n    \r\n    \r\n\r\nfunction ethereumToTokens_(uint256 _ethereum)\r\n        public\r\n        view\r\n        returns(uint256)\r\n    {\r\n        uint256 _tokenPriceInitial = tokenPriceInitial_ * 1e18;\r\n        uint256 _tokensReceived = \r\n         (\r\n            (\r\n                // underflow attempts BTFO\r\n                SafeMath.sub(\r\n                    (sqrt\r\n                        (\r\n                            (_tokenPriceInitial**2)\r\n                            +\r\n                            (2*(tokenPriceIncremental_ * 1e18)*(_ethereum * 1e18))\r\n                            +\r\n                            (((tokenPriceIncremental_)**2)*(TotalSupply**2))\r\n                            +\r\n                            (2*(tokenPriceIncremental_)*_tokenPriceInitial*TotalSupply)\r\n                        )\r\n                    ), _tokenPriceInitial\r\n                )\r\n            )/(tokenPriceIncremental_)\r\n        )-(TotalSupply)\r\n        ;\r\n        \r\n            return _tokensReceived;\r\n    }\r\n    \r\n    \r\n            function sqrt(uint x) internal pure returns (uint y) {\r\n        uint z = (x + 1) / 2;\r\n        y = x;\r\n        while (z < y) {\r\n            y = z;\r\n            z = (x / z + z) / 2;\r\n        }\r\n    }\r\n    \r\n    \r\n}\r\n\r\n\r\n\r\n\r\n\r\nlibrary SafeMath {\r\n\r\n   \r\n    function mul(uint256 a, uint256 b) internal pure returns (uint256) {\r\n        if (a == 0) {\r\n            return 0;\r\n        }\r\n        uint256 c = a * b;\r\n        assert(c / a == b);\r\n        return c;\r\n    }\r\n\r\n   \r\n    function div(uint256 a, uint256 b) internal pure returns (uint256) {\r\n        // assert(b > 0); // Solidity automatically throws when dividing by 0\r\n        uint256 c = a / b;\r\n        // assert(a == b * c + a % b); // There is no case in which this doesn't hold\r\n        return c;\r\n    }\r\n\r\n    \r\n    function sub(uint256 a, uint256 b) internal pure returns (uint256) {\r\n        assert(b <= a);\r\n        return a - b;\r\n    }\r\n\r\n   \r\n    function add(uint256 a, uint256 b) internal pure returns (uint256) {\r\n        uint256 c = a + b;\r\n        assert(c >= a);\r\n        return c;\r\n    }\r\n\r\n/**\r\n* Also in memory of JPK, miss you Dad.\r\n*/\r\n    \r\n}\r\n\r\n\r\n\r\n\r\n\r\n\r\n\r\n\r\n\r\n\r\n\r\n\r\n\r\n",
  "sourcePath": "D:/fiverr/Owen/SeekGold2/contracts/Price5.sol",
  "compiler": {
    "name": "solc",
    "version": "0.8.0+commit.c7dfd78e.Emscripten.clang"
  },
  "schemaVersion": "3.3.4",
  "updatedAt": "2021-07-10T15:54:52.089Z",
  "networkType": "ethereum",
  "devdoc": {
    "kind": "dev",
    "methods": {},
    "version": 1
  },
  "userdoc": {
    "kind": "user",
    "methods": {},
    "version": 1
  }
}