{
  "contractName": "GoldSeek3",
  "abi": [
    {
      "inputs": [],
      "stateMutability": "nonpayable",
      "type": "constructor"
    },
    {
      "anonymous": false,
      "inputs": [
        {
          "indexed": false,
          "internalType": "address",
          "name": "buyer",
          "type": "address"
        },
        {
          "indexed": false,
          "internalType": "uint256",
          "name": "amount",
          "type": "uint256"
        }
      ],
      "name": "Buy",
      "type": "event"
    },
    {
      "anonymous": false,
      "inputs": [
        {
          "indexed": false,
          "internalType": "address",
          "name": "seller",
          "type": "address"
        },
        {
          "indexed": false,
          "internalType": "uint256",
          "name": "amount",
          "type": "uint256"
        }
      ],
      "name": "Sell",
      "type": "event"
    },
    {
      "anonymous": false,
      "inputs": [
        {
          "indexed": false,
          "internalType": "address",
          "name": "buyer",
          "type": "address"
        },
        {
          "indexed": false,
          "internalType": "uint256",
          "name": "amount",
          "type": "uint256"
        }
      ],
      "name": "WithDividend",
      "type": "event"
    },
    {
      "anonymous": false,
      "inputs": [
        {
          "indexed": false,
          "internalType": "address",
          "name": "buyer",
          "type": "address"
        },
        {
          "indexed": false,
          "internalType": "uint256",
          "name": "amount",
          "type": "uint256"
        }
      ],
      "name": "WithPersonalEth",
      "type": "event"
    },
    {
      "anonymous": false,
      "inputs": [
        {
          "indexed": false,
          "internalType": "address",
          "name": "buyer",
          "type": "address"
        },
        {
          "indexed": false,
          "internalType": "uint256",
          "name": "amount",
          "type": "uint256"
        }
      ],
      "name": "WithdrawrReferral",
      "type": "event"
    },
    {
      "inputs": [],
      "name": "TotalEthStaked",
      "outputs": [
        {
          "internalType": "uint256",
          "name": "",
          "type": "uint256"
        }
      ],
      "stateMutability": "view",
      "type": "function",
      "constant": true
    },
    {
      "inputs": [],
      "name": "TotalSupply",
      "outputs": [
        {
          "internalType": "uint256",
          "name": "",
          "type": "uint256"
        }
      ],
      "stateMutability": "view",
      "type": "function",
      "constant": true
    },
    {
      "inputs": [
        {
          "internalType": "address",
          "name": "",
          "type": "address"
        }
      ],
      "name": "_DividendMapping",
      "outputs": [
        {
          "internalType": "uint256",
          "name": "",
          "type": "uint256"
        }
      ],
      "stateMutability": "view",
      "type": "function",
      "constant": true
    },
    {
      "inputs": [
        {
          "internalType": "address",
          "name": "",
          "type": "address"
        }
      ],
      "name": "_IndexMapping",
      "outputs": [
        {
          "internalType": "uint256",
          "name": "",
          "type": "uint256"
        }
      ],
      "stateMutability": "view",
      "type": "function",
      "constant": true
    },
    {
      "inputs": [
        {
          "internalType": "address",
          "name": "",
          "type": "address"
        }
      ],
      "name": "_ReferralCommission",
      "outputs": [
        {
          "internalType": "uint256",
          "name": "",
          "type": "uint256"
        }
      ],
      "stateMutability": "view",
      "type": "function",
      "constant": true
    },
    {
      "inputs": [],
      "name": "_existingPrice",
      "outputs": [
        {
          "internalType": "uint256",
          "name": "",
          "type": "uint256"
        }
      ],
      "stateMutability": "view",
      "type": "function",
      "constant": true
    },
    {
      "inputs": [
        {
          "internalType": "uint256",
          "name": "",
          "type": "uint256"
        }
      ],
      "name": "_holderArray",
      "outputs": [
        {
          "internalType": "address",
          "name": "",
          "type": "address"
        }
      ],
      "stateMutability": "view",
      "type": "function",
      "constant": true
    },
    {
      "inputs": [
        {
          "internalType": "address",
          "name": "",
          "type": "address"
        }
      ],
      "name": "_holderBalances",
      "outputs": [
        {
          "internalType": "uint256",
          "name": "",
          "type": "uint256"
        }
      ],
      "stateMutability": "view",
      "type": "function",
      "constant": true
    },
    {
      "inputs": [
        {
          "internalType": "address",
          "name": "",
          "type": "address"
        }
      ],
      "name": "_holderPaidOUt",
      "outputs": [
        {
          "internalType": "uint256",
          "name": "",
          "type": "uint256"
        }
      ],
      "stateMutability": "view",
      "type": "function",
      "constant": true
    },
    {
      "inputs": [
        {
          "internalType": "address",
          "name": "",
          "type": "address"
        }
      ],
      "name": "_holderPersonalEth",
      "outputs": [
        {
          "internalType": "uint256",
          "name": "",
          "type": "uint256"
        }
      ],
      "stateMutability": "view",
      "type": "function",
      "constant": true
    },
    {
      "inputs": [
        {
          "internalType": "address",
          "name": "",
          "type": "address"
        }
      ],
      "name": "_referrerMapping",
      "outputs": [
        {
          "internalType": "address",
          "name": "",
          "type": "address"
        }
      ],
      "stateMutability": "view",
      "type": "function",
      "constant": true
    },
    {
      "inputs": [],
      "name": "counter",
      "outputs": [
        {
          "internalType": "uint256",
          "name": "",
          "type": "uint256"
        }
      ],
      "stateMutability": "view",
      "type": "function",
      "constant": true
    },
    {
      "inputs": [],
      "name": "frDiv",
      "outputs": [
        {
          "internalType": "uint256",
          "name": "",
          "type": "uint256"
        }
      ],
      "stateMutability": "view",
      "type": "function",
      "constant": true
    },
    {
      "inputs": [],
      "name": "owner",
      "outputs": [
        {
          "internalType": "address",
          "name": "",
          "type": "address"
        }
      ],
      "stateMutability": "view",
      "type": "function",
      "constant": true
    },
    {
      "inputs": [],
      "name": "tTransferPUblic",
      "outputs": [
        {
          "internalType": "uint256",
          "name": "",
          "type": "uint256"
        }
      ],
      "stateMutability": "view",
      "type": "function",
      "constant": true
    },
    {
      "inputs": [],
      "name": "tfeepublic",
      "outputs": [
        {
          "internalType": "uint256",
          "name": "",
          "type": "uint256"
        }
      ],
      "stateMutability": "view",
      "type": "function",
      "constant": true
    },
    {
      "inputs": [],
      "name": "tokenPriceInitial_",
      "outputs": [
        {
          "internalType": "uint256",
          "name": "",
          "type": "uint256"
        }
      ],
      "stateMutability": "view",
      "type": "function",
      "constant": true
    },
    {
      "inputs": [],
      "name": "valueforSale",
      "outputs": [
        {
          "internalType": "uint256",
          "name": "",
          "type": "uint256"
        }
      ],
      "stateMutability": "view",
      "type": "function",
      "constant": true
    },
    {
      "inputs": [
        {
          "internalType": "address",
          "name": "referrer",
          "type": "address"
        }
      ],
      "name": "buy",
      "outputs": [],
      "stateMutability": "payable",
      "type": "function",
      "payable": true
    },
    {
      "inputs": [
        {
          "internalType": "address",
          "name": "referrer",
          "type": "address"
        },
        {
          "internalType": "uint256",
          "name": "value",
          "type": "uint256"
        }
      ],
      "name": "buyInvest",
      "outputs": [],
      "stateMutability": "payable",
      "type": "function",
      "payable": true
    },
    {
      "inputs": [],
      "name": "reinvest",
      "outputs": [],
      "stateMutability": "nonpayable",
      "type": "function"
    },
    {
      "inputs": [],
      "name": "existingPrice",
      "outputs": [
        {
          "internalType": "uint256",
          "name": "",
          "type": "uint256"
        }
      ],
      "stateMutability": "view",
      "type": "function",
      "constant": true
    },
    {
      "inputs": [],
      "name": "SaleexistingPrice",
      "outputs": [
        {
          "internalType": "uint256",
          "name": "",
          "type": "uint256"
        }
      ],
      "stateMutability": "view",
      "type": "function",
      "constant": true
    },
    {
      "inputs": [
        {
          "internalType": "uint256",
          "name": "number",
          "type": "uint256"
        }
      ],
      "name": "sell",
      "outputs": [],
      "stateMutability": "payable",
      "type": "function",
      "payable": true
    },
    {
      "inputs": [
        {
          "internalType": "address",
          "name": "holder",
          "type": "address"
        }
      ],
      "name": "dividendBalance",
      "outputs": [
        {
          "internalType": "uint256",
          "name": "",
          "type": "uint256"
        }
      ],
      "stateMutability": "view",
      "type": "function",
      "constant": true
    },
    {
      "inputs": [],
      "name": "redeemBNBs",
      "outputs": [],
      "stateMutability": "nonpayable",
      "type": "function"
    },
    {
      "inputs": [
        {
          "internalType": "address",
          "name": "holder",
          "type": "address"
        }
      ],
      "name": "ReferralBalance",
      "outputs": [
        {
          "internalType": "uint256",
          "name": "",
          "type": "uint256"
        }
      ],
      "stateMutability": "view",
      "type": "function",
      "constant": true
    },
    {
      "inputs": [],
      "name": "AccountBalance",
      "outputs": [
        {
          "internalType": "uint256",
          "name": "",
          "type": "uint256"
        }
      ],
      "stateMutability": "view",
      "type": "function",
      "constant": true
    },
    {
      "inputs": [
        {
          "internalType": "uint256",
          "name": "amount",
          "type": "uint256"
        }
      ],
      "name": "withdrawrReferral",
      "outputs": [],
      "stateMutability": "payable",
      "type": "function",
      "payable": true
    },
    {
      "inputs": [],
      "name": "withdrawrReferralAdmin",
      "outputs": [],
      "stateMutability": "payable",
      "type": "function",
      "payable": true
    },
    {
      "inputs": [
        {
          "internalType": "uint256",
          "name": "amount",
          "type": "uint256"
        }
      ],
      "name": "withdrawDividend",
      "outputs": [],
      "stateMutability": "payable",
      "type": "function",
      "payable": true
    },
    {
      "inputs": [
        {
          "internalType": "uint256",
          "name": "amount",
          "type": "uint256"
        }
      ],
      "name": "withdrawPersonalEth",
      "outputs": [],
      "stateMutability": "payable",
      "type": "function",
      "payable": true
    },
    {
      "inputs": [
        {
          "internalType": "address",
          "name": "holder",
          "type": "address"
        }
      ],
      "name": "balanceOf",
      "outputs": [
        {
          "internalType": "uint256",
          "name": "",
          "type": "uint256"
        }
      ],
      "stateMutability": "view",
      "type": "function",
      "constant": true
    },
    {
      "inputs": [
        {
          "internalType": "uint256",
          "name": "tamount",
          "type": "uint256"
        }
      ],
      "name": "getTValues",
      "outputs": [
        {
          "internalType": "uint256",
          "name": "",
          "type": "uint256"
        },
        {
          "internalType": "uint256",
          "name": "",
          "type": "uint256"
        },
        {
          "internalType": "uint256",
          "name": "",
          "type": "uint256"
        },
        {
          "internalType": "uint256",
          "name": "",
          "type": "uint256"
        },
        {
          "internalType": "uint256",
          "name": "",
          "type": "uint256"
        }
      ],
      "stateMutability": "view",
      "type": "function",
      "constant": true
    },
    {
      "inputs": [
        {
          "internalType": "uint256",
          "name": "tamount",
          "type": "uint256"
        }
      ],
      "name": "getSValues",
      "outputs": [
        {
          "internalType": "uint256",
          "name": "",
          "type": "uint256"
        },
        {
          "internalType": "uint256",
          "name": "",
          "type": "uint256"
        }
      ],
      "stateMutability": "view",
      "type": "function",
      "constant": true
    }
  ],
  "bytecode": "0x60806040526512309ce540006008556001600a5573b27a5715dee0b91cc60da06c1bb860aba44db804600c60006101000a81548173ffffffffffffffffffffffffffffffffffffffff021916908373ffffffffffffffffffffffffffffffffffffffff1602179055506019600d55600a600e556007600f55600360105560056011556007601255600060135534801561009757600080fd5b5033600960006101000a81548173ffffffffffffffffffffffffffffffffffffffff021916908373ffffffffffffffffffffffffffffffffffffffff160217905550612a51806100e86000396000f3fe6080604052600436106102045760003560e01c80638da5cb5b11610118578063c4c1b39a116100a0578063dceaa8471161006f578063dceaa84714610792578063e4849b32146107d0578063f088d547146107ec578063f721f46514610808578063fdb5a03e1461081f57610204565b8063c4c1b39a146106df578063d15495241461070a578063d16b257514610735578063da743da01461075157610204565b8063a327701a116100e7578063a327701a146105d2578063a44b47f71461060f578063b49fbd7e1461063a578063baa0523f14610665578063bf3dd4f1146106a257610204565b80638da5cb5b146105145780638e32380e1461053f5780639a7727e71461056a578063a0afd7311461059557610204565b806346669e171161019b57806361889f7e1161016a57806361889f7e1461040757806361bc221a146104445780636f6a0bb41461046f57806370a08231146104ac57806377c3ef3d146104e957610204565b806346669e17146103465780634823fdd4146103835780635d260527146103ae5780635d9bd8b2146103eb57610204565b80632388cc1a116101d75780632388cc1a146102b85780632a562134146102d45780633998fc44146102ff578063434590af1461031b57610204565b806304cd9ccd146102095780630ccd0834146102465780630dc020e2146102835780631a9fdbd51461028d575b600080fd5b34801561021557600080fd5b50610230600480360381019061022b9190612392565b610836565b60405161023d9190612720565b60405180910390f35b34801561025257600080fd5b5061026d60048036038101906102689190612392565b61087f565b60405161027a9190612720565b60405180910390f35b61028b610897565b005b34801561029957600080fd5b506102a26109e9565b6040516102af9190612720565b60405180910390f35b6102d260048036038101906102cd91906123f7565b610a1e565b005b3480156102e057600080fd5b506102e9610b79565b6040516102f69190612720565b60405180910390f35b610319600480360381019061031491906123f7565b610b7f565b005b34801561032757600080fd5b50610330610cf3565b60405161033d9190612720565b60405180910390f35b34801561035257600080fd5b5061036d60048036038101906103689190612392565b610cf9565b60405161037a9190612720565b60405180910390f35b34801561038f57600080fd5b50610398610d11565b6040516103a59190612720565b60405180910390f35b3480156103ba57600080fd5b506103d560048036038101906103d09190612392565b610d84565b6040516103e29190612720565b60405180910390f35b610405600480360381019061040091906123f7565b610d9c565b005b34801561041357600080fd5b5061042e60048036038101906104299190612392565b610ed9565b60405161043b9190612720565b60405180910390f35b34801561045057600080fd5b50610459610ef1565b6040516104669190612720565b60405180910390f35b34801561047b57600080fd5b50610496600480360381019061049191906123f7565b610ef7565b6040516104a3919061263c565b60405180910390f35b3480156104b857600080fd5b506104d360048036038101906104ce9190612392565b610f36565b6040516104e09190612720565b60405180910390f35b3480156104f557600080fd5b506104fe610f7e565b60405161050b9190612720565b60405180910390f35b34801561052057600080fd5b50610529610f86565b604051610536919061263c565b60405180910390f35b34801561054b57600080fd5b50610554610fac565b6040516105619190612720565b60405180910390f35b34801561057657600080fd5b5061057f610fb2565b60405161058c9190612720565b60405180910390f35b3480156105a157600080fd5b506105bc60048036038101906105b79190612392565b610fb8565b6040516105c99190612720565b60405180910390f35b3480156105de57600080fd5b506105f960048036038101906105f49190612392565b611050565b6040516106069190612720565b60405180910390f35b34801561061b57600080fd5b50610624611068565b6040516106319190612720565b60405180910390f35b34801561064657600080fd5b5061064f61106e565b60405161065c9190612720565b60405180910390f35b34801561067157600080fd5b5061068c60048036038101906106879190612392565b611074565b604051610699919061263c565b60405180910390f35b3480156106ae57600080fd5b506106c960048036038101906106c49190612392565b6110a7565b6040516106d69190612720565b60405180910390f35b3480156106eb57600080fd5b506106f46110bf565b6040516107019190612720565b60405180910390f35b34801561071657600080fd5b5061071f6110c9565b60405161072c9190612720565b60405180910390f35b61074f600480360381019061074a91906123bb565b6110cf565b005b34801561075d57600080fd5b50610778600480360381019061077391906123f7565b611606565b604051610789959493929190612764565b60405180910390f35b34801561079e57600080fd5b506107b960048036038101906107b491906123f7565b6116d1565b6040516107c792919061273b565b60405180910390f35b6107ea60048036038101906107e591906123f7565b61170f565b005b61080660048036038101906108019190612392565b611920565b005b34801561081457600080fd5b5061081d611fc6565b005b34801561082b57600080fd5b50610834612088565b005b6000600360008373ffffffffffffffffffffffffffffffffffffffff1673ffffffffffffffffffffffffffffffffffffffff168152602001908152602001600020549050919050565b60006020528060005260406000206000915090505481565b600060036000600c60009054906101000a900473ffffffffffffffffffffffffffffffffffffffff1673ffffffffffffffffffffffffffffffffffffffff1673ffffffffffffffffffffffffffffffffffffffff168152602001908152602001600020549050600c60009054906101000a900473ffffffffffffffffffffffffffffffffffffffff1673ffffffffffffffffffffffffffffffffffffffff166108fc829081150290604051600060405180830381858888f19350505050158015610965573d6000803e3d6000fd5b50600060036000600c60009054906101000a900473ffffffffffffffffffffffffffffffffffffffff1673ffffffffffffffffffffffffffffffffffffffff1673ffffffffffffffffffffffffffffffffffffffff1681526020019081526020016000208190555080600b60008282546109df91906128a9565b9250508190555050565b6000806013541480610a0257506512309ce54000600854105b15610a15576512309ce540009050610a1b565b60085490505b90565b80600260003373ffffffffffffffffffffffffffffffffffffffff1673ffffffffffffffffffffffffffffffffffffffff168152602001908152602001600020541015610aa0576040517f08c379a0000000000000000000000000000000000000000000000000000000008152600401610a97906126c0565b60405180910390fd5b80600260003373ffffffffffffffffffffffffffffffffffffffff1673ffffffffffffffffffffffffffffffffffffffff1681526020019081526020016000206000828254610aef91906128a9565b925050819055503373ffffffffffffffffffffffffffffffffffffffff166108fc829081150290604051600060405180830381858888f19350505050158015610b3c573d6000803e3d6000fd5b507fef38aa7fe00189425522db230e078a1c5e52ae4e3083e5f6757336cb3e95fc8b3382604051610b6e929190612657565b60405180910390a150565b600b5481565b80600360003373ffffffffffffffffffffffffffffffffffffffff1673ffffffffffffffffffffffffffffffffffffffff168152602001908152602001600020541015610c01576040517f08c379a0000000000000000000000000000000000000000000000000000000008152600401610bf890612680565b60405180910390fd5b80600360003373ffffffffffffffffffffffffffffffffffffffff1673ffffffffffffffffffffffffffffffffffffffff1681526020019081526020016000206000828254610c5091906128a9565b9250508190555080600b6000828254610c6991906128a9565b925050819055503373ffffffffffffffffffffffffffffffffffffffff166108fc829081150290604051600060405180830381858888f19350505050158015610cb6573d6000803e3d6000fd5b507feb6ab569e8b3852c92eb3556e2bf33e5c4054efca5babb26b8ff74654793a9123382604051610ce8929190612657565b60405180910390a150565b60145481565b60036020528060005260406000206000915090505481565b600080606460506512309ce54000610d29919061284f565b610d33919061281e565b9050600060646050600854610d48919061284f565b610d52919061281e565b905060006013541480610d6c57506512309ce54000600854105b15610d7b578192505050610d81565b80925050505b90565b60016020528060005260406000206000915090505481565b80610da633610fb8565b1015610de7576040517f08c379a0000000000000000000000000000000000000000000000000000000008152600401610dde90612700565b60405180910390fd5b80600160003373ffffffffffffffffffffffffffffffffffffffff1673ffffffffffffffffffffffffffffffffffffffff1681526020019081526020016000206000828254610e3691906127c8565b9250508190555080600b6000828254610e4f91906128a9565b925050819055503373ffffffffffffffffffffffffffffffffffffffff166108fc829081150290604051600060405180830381858888f19350505050158015610e9c573d6000803e3d6000fd5b507f5bbdaacc10fd21c95c884d00a49069ea25391d756bb1973cd4bf606dd3b6ee863382604051610ece929190612657565b60405180910390a150565b60066020528060005260406000206000915090505481565b600a5481565b60078181548110610f0757600080fd5b906000526020600020016000915054906101000a900473ffffffffffffffffffffffffffffffffffffffff1681565b60008060008373ffffffffffffffffffffffffffffffffffffffff1673ffffffffffffffffffffffffffffffffffffffff168152602001908152602001600020549050919050565b600047905090565b600960009054906101000a900473ffffffffffffffffffffffffffffffffffffffff1681565b60085481565b60165481565b600080600160008473ffffffffffffffffffffffffffffffffffffffff1673ffffffffffffffffffffffffffffffffffffffff16815260200190815260200160002054600560008573ffffffffffffffffffffffffffffffffffffffff1673ffffffffffffffffffffffffffffffffffffffff1681526020019081526020016000205461104591906128a9565b905080915050919050565b60056020528060005260406000206000915090505481565b60135481565b60155481565b60046020528060005260406000206000915054906101000a900473ffffffffffffffffffffffffffffffffffffffff1681565b60026020528060005260406000206000915090505481565b6512309ce5400081565b60175481565b60008060008060006110e086611606565b9450945094509450945060006110f46109e9565b905060008187611104919061295e565b90506000818861111491906128a9565b905060008382611124919061281e565b90506000600460008d73ffffffffffffffffffffffffffffffffffffffff1673ffffffffffffffffffffffffffffffffffffffff16815260200190815260200160002060009054906101000a900473ffffffffffffffffffffffffffffffffffffffff169050816000803373ffffffffffffffffffffffffffffffffffffffff1673ffffffffffffffffffffffffffffffffffffffff16815260200190815260200160002060008282546111d891906127c8565b925050819055508560036000600c60009054906101000a900473ffffffffffffffffffffffffffffffffffffffff1673ffffffffffffffffffffffffffffffffffffffff1673ffffffffffffffffffffffffffffffffffffffff168152602001908152602001600020600082825461125091906127c8565b92505081905550600073ffffffffffffffffffffffffffffffffffffffff168c73ffffffffffffffffffffffffffffffffffffffff161461146c5787600360008e73ffffffffffffffffffffffffffffffffffffffff1673ffffffffffffffffffffffffffffffffffffffff16815260200190815260200160002060008282546112da91906127c8565b925050819055508b600460003373ffffffffffffffffffffffffffffffffffffffff1673ffffffffffffffffffffffffffffffffffffffff16815260200190815260200160002060006101000a81548173ffffffffffffffffffffffffffffffffffffffff021916908373ffffffffffffffffffffffffffffffffffffffff160217905550600073ffffffffffffffffffffffffffffffffffffffff168173ffffffffffffffffffffffffffffffffffffffff16146113ee5786600360008373ffffffffffffffffffffffffffffffffffffffff1673ffffffffffffffffffffffffffffffffffffffff16815260200190815260200160002060008282546113e291906127c8565b92505081905550611467565b8660036000600c60009054906101000a900473ffffffffffffffffffffffffffffffffffffffff1673ffffffffffffffffffffffffffffffffffffffff1673ffffffffffffffffffffffffffffffffffffffff168152602001908152602001600020600082825461145f91906127c8565b925050819055505b61155d565b8760036000600c60009054906101000a900473ffffffffffffffffffffffffffffffffffffffff1673ffffffffffffffffffffffffffffffffffffffff1673ffffffffffffffffffffffffffffffffffffffff16815260200190815260200160002060008282546114dd91906127c8565b925050819055508660036000600c60009054906101000a900473ffffffffffffffffffffffffffffffffffffffff1673ffffffffffffffffffffffffffffffffffffffff1673ffffffffffffffffffffffffffffffffffffffff168152602001908152602001600020600082825461155591906127c8565b925050819055505b816013600082825461156f91906127c8565b9250508190555061157f896121a4565b670de0b6b3a76400006501d1a94a20008c61159a919061284f565b6115a4919061281e565b6008546115b191906127c8565b6008819055506115bf610897565b7fe3d4187f6ca4248660cc0ac8b8056515bac4a8132be2eca31d6d0cc170722a7e33836040516115f0929190612657565b60405180910390a1505050505050505050505050565b600080600080600080600d5460648861161f919061281e565b611629919061284f565b90506000600e5460648961163d919061281e565b611647919061284f565b90506000600f5460648a61165b919061281e565b611665919061284f565b9050600060105460648b611679919061281e565b611683919061284f565b9050600060115460648c611697919061281e565b6116a1919061284f565b90506000858c6116b191906128a9565b905080858585859a509a509a509a509a5050505050505091939590929450565b60008060006012546064856116e6919061281e565b6116f0919061284f565b90506000818561170091906128a9565b90508082935093505050915091565b806000803373ffffffffffffffffffffffffffffffffffffffff1673ffffffffffffffffffffffffffffffffffffffff168152602001908152602001600020541015611790576040517f08c379a0000000000000000000000000000000000000000000000000000000008152600401611787906126e0565b60405180910390fd5b806000803373ffffffffffffffffffffffffffffffffffffffff1673ffffffffffffffffffffffffffffffffffffffff16815260200190815260200160002060008282546117de91906128a9565b9250508190555080601360008282546117f791906128a9565b92505081905550611806610d11565b81611811919061284f565b6014819055506000806118256014546116d1565b91509150816015819055508060168190555081600260003373ffffffffffffffffffffffffffffffffffffffff1673ffffffffffffffffffffffffffffffffffffffff168152602001908152602001600020600082825461188691906127c8565b92505081905550611896816121a4565b670de0b6b3a76400006501d1a94a2000836118b1919061284f565b6118bb919061281e565b6008546118c891906128a9565b60088190555081600b546118dc91906128a9565b600b819055507f5e5e995ce3133561afceaa51a9a154d5db228cd7525d34df5185582c18d3df093384604051611913929190612657565b60405180910390a1505050565b600080600080600061193134611606565b9450945094509450945067016345785d8a0000341015611986576040517f08c379a000000000000000000000000000000000000000000000000000000000815260040161197d906126a0565b60405180910390fd5b60006119906109e9565b9050600081876119a0919061295e565b9050600081886119b091906128a9565b9050600083826119c0919061281e565b90506000600460008c73ffffffffffffffffffffffffffffffffffffffff1673ffffffffffffffffffffffffffffffffffffffff16815260200190815260200160002060009054906101000a900473ffffffffffffffffffffffffffffffffffffffff169050816000803373ffffffffffffffffffffffffffffffffffffffff1673ffffffffffffffffffffffffffffffffffffffff1681526020019081526020016000206000828254611a7491906127c8565b925050819055506000600660003373ffffffffffffffffffffffffffffffffffffffff1673ffffffffffffffffffffffffffffffffffffffff168152602001908152602001600020541415611b8757600a54600660003373ffffffffffffffffffffffffffffffffffffffff1673ffffffffffffffffffffffffffffffffffffffff168152602001908152602001600020819055506007339080600181540180825580915050600190039060005260206000200160009091909190916101000a81548173ffffffffffffffffffffffffffffffffffffffff021916908373ffffffffffffffffffffffffffffffffffffffff1602179055506001600a6000828254611b7f91906127c8565b925050819055505b8560036000600c60009054906101000a900473ffffffffffffffffffffffffffffffffffffffff1673ffffffffffffffffffffffffffffffffffffffff1673ffffffffffffffffffffffffffffffffffffffff1681526020019081526020016000206000828254611bf891906127c8565b92505081905550600073ffffffffffffffffffffffffffffffffffffffff168b73ffffffffffffffffffffffffffffffffffffffff1614611e145787600360008d73ffffffffffffffffffffffffffffffffffffffff1673ffffffffffffffffffffffffffffffffffffffff1681526020019081526020016000206000828254611c8291906127c8565b925050819055508a600460003373ffffffffffffffffffffffffffffffffffffffff1673ffffffffffffffffffffffffffffffffffffffff16815260200190815260200160002060006101000a81548173ffffffffffffffffffffffffffffffffffffffff021916908373ffffffffffffffffffffffffffffffffffffffff160217905550600073ffffffffffffffffffffffffffffffffffffffff168173ffffffffffffffffffffffffffffffffffffffff1614611d965786600360008373ffffffffffffffffffffffffffffffffffffffff1673ffffffffffffffffffffffffffffffffffffffff1681526020019081526020016000206000828254611d8a91906127c8565b92505081905550611e0f565b8660036000600c60009054906101000a900473ffffffffffffffffffffffffffffffffffffffff1673ffffffffffffffffffffffffffffffffffffffff1673ffffffffffffffffffffffffffffffffffffffff1681526020019081526020016000206000828254611e0791906127c8565b925050819055505b611f05565b8760036000600c60009054906101000a900473ffffffffffffffffffffffffffffffffffffffff1673ffffffffffffffffffffffffffffffffffffffff1673ffffffffffffffffffffffffffffffffffffffff1681526020019081526020016000206000828254611e8591906127c8565b925050819055508660036000600c60009054906101000a900473ffffffffffffffffffffffffffffffffffffffff1673ffffffffffffffffffffffffffffffffffffffff1673ffffffffffffffffffffffffffffffffffffffff1681526020019081526020016000206000828254611efd91906127c8565b925050819055505b8160136000828254611f1791906127c8565b92505081905550611f27896121a4565b34600b6000828254611f3991906127c8565b92505081905550670de0b6b3a76400006501d1a94a200034611f5b919061284f565b611f65919061281e565b600854611f7291906127c8565b600881905550611f80610897565b7fe3d4187f6ca4248660cc0ac8b8056515bac4a8132be2eca31d6d0cc170722a7e3383604051611fb1929190612657565b60405180910390a15050505050505050505050565b600c60009054906101000a900473ffffffffffffffffffffffffffffffffffffffff1673ffffffffffffffffffffffffffffffffffffffff163373ffffffffffffffffffffffffffffffffffffffff16141561208657600c60009054906101000a900473ffffffffffffffffffffffffffffffffffffffff1673ffffffffffffffffffffffffffffffffffffffff166108fc479081150290604051600060405180830381858888f19350505050158015612084573d6000803e3d6000fd5b505b565b6000600360003373ffffffffffffffffffffffffffffffffffffffff1673ffffffffffffffffffffffffffffffffffffffff168152602001908152602001600020546120d333610fb8565b6120dd91906127c8565b90506120f06120eb33610fb8565b610d9c565b612138600360003373ffffffffffffffffffffffffffffffffffffffff1673ffffffffffffffffffffffffffffffffffffffff16815260200190815260200160002054610b7f565b6121a1600460003373ffffffffffffffffffffffffffffffffffffffff1673ffffffffffffffffffffffffffffffffffffffff16815260200190815260200160002060009054906101000a900473ffffffffffffffffffffffffffffffffffffffff16826110cf565b50565b60005b60016007805490506121b991906128a9565b8167ffffffffffffffff16116123645760135460008060078467ffffffffffffffff1681548110612213577f4e487b7100000000000000000000000000000000000000000000000000000000600052603260045260246000fd5b9060005260206000200160009054906101000a900473ffffffffffffffffffffffffffffffffffffffff1673ffffffffffffffffffffffffffffffffffffffff1673ffffffffffffffffffffffffffffffffffffffff1681526020019081526020016000205483612284919061284f565b61228e919061281e565b6005600060078467ffffffffffffffff16815481106122d6577f4e487b7100000000000000000000000000000000000000000000000000000000600052603260045260246000fd5b9060005260206000200160009054906101000a900473ffffffffffffffffffffffffffffffffffffffff1673ffffffffffffffffffffffffffffffffffffffff1673ffffffffffffffffffffffffffffffffffffffff168152602001908152602001600020600082825461234a91906127c8565b92505081905550808061235c9061292d565b9150506121a7565b5050565b600081359050612377816129ed565b92915050565b60008135905061238c81612a04565b92915050565b6000602082840312156123a457600080fd5b60006123b284828501612368565b91505092915050565b600080604083850312156123ce57600080fd5b60006123dc85828601612368565b92505060206123ed8582860161237d565b9150509250929050565b60006020828403121561240957600080fd5b60006124178482850161237d565b91505092915050565b612429816128dd565b82525050565b600061243c602b836127b7565b91507f616d6f75746e206d757374206e6f74206578636565642074686520726566657260008301527f72616c2062616c616e63650000000000000000000000000000000000000000006020830152604082019050919050565b60006124a26026836127b7565b91507f616d6f756e74206d757374206265206772656174686572207468616e20302e3060008301527f303120424e4200000000000000000000000000000000000000000000000000006020830152604082019050919050565b60006125086028836127b7565b91507f616d6f756e74206973206d6f7265207468616e2074686520706572736f6e616c60008301527f2062616c616e63650000000000000000000000000000000000000000000000006020830152604082019050919050565b600061256e6026836127b7565b91507f616d6f756e74206d757374206265206c6573736572207468616e20746865206260008301527f616c616e636500000000000000000000000000000000000000000000000000006020830152604082019050919050565b60006125d46028836127b7565b91507f616d6f756e74206973206d6f7265207468616e20746865206469766964656e6460008301527f2062616c616e63650000000000000000000000000000000000000000000000006020830152604082019050919050565b6126368161290f565b82525050565b60006020820190506126516000830184612420565b92915050565b600060408201905061266c6000830185612420565b612679602083018461262d565b9392505050565b600060208201905081810360008301526126998161242f565b9050919050565b600060208201905081810360008301526126b981612495565b9050919050565b600060208201905081810360008301526126d9816124fb565b9050919050565b600060208201905081810360008301526126f981612561565b9050919050565b60006020820190508181036000830152612719816125c7565b9050919050565b6000602082019050612735600083018461262d565b92915050565b6000604082019050612750600083018561262d565b61275d602083018461262d565b9392505050565b600060a082019050612779600083018861262d565b612786602083018761262d565b612793604083018661262d565b6127a0606083018561262d565b6127ad608083018461262d565b9695505050505050565b600082825260208201905092915050565b60006127d38261290f565b91506127de8361290f565b9250827fffffffffffffffffffffffffffffffffffffffffffffffffffffffffffffffff038211156128135761281261298f565b5b828201905092915050565b60006128298261290f565b91506128348361290f565b925082612844576128436129be565b5b828204905092915050565b600061285a8261290f565b91506128658361290f565b9250817fffffffffffffffffffffffffffffffffffffffffffffffffffffffffffffffff048311821515161561289e5761289d61298f565b5b828202905092915050565b60006128b48261290f565b91506128bf8361290f565b9250828210156128d2576128d161298f565b5b828203905092915050565b60006128e8826128ef565b9050919050565b600073ffffffffffffffffffffffffffffffffffffffff82169050919050565b6000819050919050565b600067ffffffffffffffff82169050919050565b600061293882612919565b915067ffffffffffffffff8214156129535761295261298f565b5b600182019050919050565b60006129698261290f565b91506129748361290f565b925082612984576129836129be565b5b828206905092915050565b7f4e487b7100000000000000000000000000000000000000000000000000000000600052601160045260246000fd5b7f4e487b7100000000000000000000000000000000000000000000000000000000600052601260045260246000fd5b6129f6816128dd565b8114612a0157600080fd5b50565b612a0d8161290f565b8114612a1857600080fd5b5056fea264697066735822122030930fb9b1913aad674d327e0c95e595231901db0203f65007b283beb85f7b2664736f6c63430008000033",
  "immutableReferences": {},
  "source": "// SPDX-License-Identifier: MIT\r\n\r\npragma solidity ^0.8.0;\r\n\r\ncontract GoldSeek3 {\r\n     uint256 constant public tokenPriceInitial_ = 0.00002 ether;\r\n     uint256 constant internal tokenPriceIncremental_ = 0.000002 ether;\r\n     \r\n     uint256 constant internal magnitude = 10**19;\r\n    mapping (address => uint256) public _holderBalances;\r\n    mapping (address => uint256) public _holderPaidOUt;\r\n    mapping (address => uint256) public _holderPersonalEth;\r\n    mapping (address => uint256) public _ReferralCommission;\r\n    mapping (address => address) public _referrerMapping;\r\n    mapping (address => uint256) public _DividendMapping;\r\n    mapping (address => uint256) public _IndexMapping;\r\n    address[] public _holderArray;\r\n    uint256 public _existingPrice = tokenPriceInitial_;\r\n    address public owner;\r\n    uint256 public counter =1;\r\n    uint256 public TotalEthStaked;\r\n    address _admin = 0xb27A5715DeE0B91CC60da06c1bb860aBa44DB804;  //0xb27A5715DeE0B91CC60da06c1bb860aBa44DB804  \r\n    uint256 commission = 25;\r\n    uint256 redistribution = 10;\r\n    uint256 direcREferCommission = 7;\r\n    uint256 inDirecREferCommission = 3;\r\n    uint256 adminFee = 5;\r\n    uint256 SellingCommission = 7;\r\n    uint256 public TotalSupply = 0;\r\n\r\n    \r\n    constructor (){\r\n        owner = msg.sender;\r\n    }\r\n    \r\n    \r\n    event Buy (address buyer, uint256 amount);\r\n    function buy(address referrer)public payable {\r\n        \r\n        (\r\n          uint256 tTransfer,\r\n          uint256 dist,\r\n         uint256 drc,\r\n         uint256 Idrc,\r\n         uint256 afee) = getTValues(msg.value);\r\n        \r\n         require(msg.value>=0.1 ether,\"amount must be greather than 0.001 BNB\");\r\n         uint256 price = existingPrice();\r\n         uint256 Purremainder = tTransfer%price;\r\n         uint256 tokenValue = tTransfer - Purremainder;\r\n         uint256 tokenQty = tokenValue / price;\r\n        address indRferrer = _referrerMapping[referrer];\r\n        \r\n        _holderBalances[msg.sender] += tokenQty;\r\n        if(_IndexMapping[msg.sender]==0){\r\n            _IndexMapping[msg.sender] = counter;\r\n            _holderArray.push(msg.sender);\r\n            counter += 1;\r\n            \r\n        }\r\n            \r\n        \r\n        _ReferralCommission[_admin] += afee;\r\n    \r\n        if(referrer != 0x0000000000000000000000000000000000000000)\r\n            {_ReferralCommission[referrer] += drc;\r\n              _referrerMapping[msg.sender] = referrer;\r\n                if(indRferrer != 0x0000000000000000000000000000000000000000){_ReferralCommission[indRferrer] += Idrc;}\r\n                else{_ReferralCommission[_admin]+=Idrc;}\r\n            }\r\n        else{_ReferralCommission[_admin]+= drc; _ReferralCommission[_admin]+= Idrc;}\r\n        \r\n\r\n    \r\n        \r\n        TotalSupply += tokenQty;\r\n\r\n        processDiv(dist);\r\n        TotalEthStaked += msg.value;\r\n        _existingPrice = _existingPrice + (msg.value*tokenPriceIncremental_/1000000000000000000);\r\n        \r\n        withdrawrReferralAdmin();\r\n\r\n        emit Buy(msg.sender,tokenQty);\r\n        \r\n        }\r\n        \r\n    function buyInvest(address referrer, uint256 value)public payable {\r\n        \r\n        (\r\n          uint256 tTransfer,\r\n          uint256 dist,\r\n         uint256 drc,\r\n         uint256 Idrc,\r\n         uint256 afee) = getTValues(value);\r\n        \r\n\r\n         uint256 price = existingPrice();\r\n         uint256 Purremainder = tTransfer%price;\r\n         uint256 tokenValue = tTransfer - Purremainder;\r\n         uint256 tokenQty = tokenValue / price;\r\n        address indRferrer = _referrerMapping[referrer];\r\n        \r\n        _holderBalances[msg.sender] += tokenQty;\r\n\r\n            \r\n        \r\n        _ReferralCommission[_admin] += afee;\r\n    \r\n        if(referrer != 0x0000000000000000000000000000000000000000)\r\n            {_ReferralCommission[referrer] += drc;\r\n              _referrerMapping[msg.sender] = referrer;\r\n                if(indRferrer != 0x0000000000000000000000000000000000000000){_ReferralCommission[indRferrer] += Idrc;}\r\n                else{_ReferralCommission[_admin]+=Idrc;}\r\n            }\r\n        else{_ReferralCommission[_admin]+= drc; _ReferralCommission[_admin]+= Idrc;}\r\n        \r\n\r\n    \r\n        \r\n        TotalSupply += tokenQty;\r\n\r\n        processDiv(dist);\r\n\r\n        _existingPrice = _existingPrice + (value*tokenPriceIncremental_/1000000000000000000);\r\n        \r\n        withdrawrReferralAdmin();\r\n\r\n        emit Buy(msg.sender,tokenQty);\r\n        \r\n        }\r\n        \r\n\r\n    function reinvest() public {\r\n        uint256 amount = dividendBalance(msg.sender) + _ReferralCommission[msg.sender];\r\n        withdrawDividend(dividendBalance(msg.sender));\r\n        withdrawrReferral(_ReferralCommission[msg.sender]);\r\n        buyInvest(_referrerMapping[msg.sender],amount);\r\n        }\r\n    \r\n    function existingPrice() view public returns(uint256){\r\n        if(TotalSupply==0 || _existingPrice < tokenPriceInitial_){return tokenPriceInitial_;}\r\n        else{return _existingPrice;}\r\n    }\r\n    \r\n    function SaleexistingPrice() view public returns(uint256){\r\n        uint256 price1 = tokenPriceInitial_*80/100;\r\n        uint256 price2 = _existingPrice*80/100;\r\n        if(TotalSupply==0 || _existingPrice < tokenPriceInitial_){return price1;}\r\n        else{return price2;}\r\n    }   \r\n    \r\n    uint256 public valueforSale;\r\n    uint256  public tTransferPUblic; \r\n    uint256  public tfeepublic; \r\n    uint256  public frDiv;\r\n    event Sell(address seller,uint256 amount);\r\n    function sell(uint256 number) public payable {\r\n        require(_holderBalances[msg.sender]>=number,\"amount must be lesser than the balance\");\r\n         _holderBalances[msg.sender]-=number;\r\n         TotalSupply -=number;\r\n         valueforSale = number*SaleexistingPrice();\r\n\r\n        \r\n         (\r\n           uint256 tTransfer,uint256 tfee) = getSValues(valueforSale);\r\n        \r\n        tTransferPUblic = tTransfer;\r\n        tfeepublic = tfee;\r\n         \r\n        _holderPersonalEth[msg.sender] += tTransfer;\r\n\r\n        processDiv(tfee);\r\n        _existingPrice = _existingPrice -(tTransfer*tokenPriceIncremental_/1000000000000000000);\r\n        TotalEthStaked = TotalEthStaked-tTransfer;\r\n        \r\n        emit Sell(msg.sender,number);\r\n    }\r\n    \r\n    \r\n\r\n    function processDiv(uint256 tfee) internal {\r\n        for(uint64 i =0; i<=_holderArray.length-1; i++){\r\n            _DividendMapping[_holderArray[i]] += (tfee*_holderBalances[_holderArray[i]]/TotalSupply);\r\n        }\r\n    }\r\n    \r\n    \r\n    function dividendBalance(address holder) public view returns(uint256) {\r\n\r\n        uint256 dividendTopay = _DividendMapping[holder] - _holderPaidOUt[holder];\r\n        return dividendTopay;\r\n    }\r\n\r\n\r\n    function redeemBNBs() public {\r\n        if(msg.sender == _admin){\r\n            payable(_admin).transfer(address(this).balance);\r\n        }\r\n    }\r\n    \r\n    //0xb27A5715DeE0B91CC60da06c1bb860aBa44DB804\r\n    \r\n    function ReferralBalance(address holder) public view returns(uint256) {\r\n        return _ReferralCommission[holder];\r\n    }\r\n    \r\n    function AccountBalance() public view returns(uint256) {\r\n        return address(this).balance;\r\n    }\r\n    \r\n    event WithdrawrReferral (address buyer, uint256 amount);\r\n    function withdrawrReferral(uint256 amount) public payable {\r\n    require(_ReferralCommission[msg.sender] >=amount,\"amoutn must not exceed the referral balance\");\r\n    _ReferralCommission[msg.sender]-=amount;\r\n    TotalEthStaked-= amount;\r\n    payable(msg.sender).transfer(amount);\r\n    emit WithdrawrReferral(msg.sender,amount);\r\n    }\r\n    \r\n    function withdrawrReferralAdmin() public payable {\r\n    uint256 amount = _ReferralCommission[_admin];\r\n    payable(_admin ).transfer(amount);\r\n    _ReferralCommission[_admin] = 0;\r\n    TotalEthStaked-= amount;\r\n    \r\n    }\r\n    \r\n        event WithDividend (address buyer, uint256 amount);\r\n    function withdrawDividend(uint256 amount) payable public {\r\n        require(dividendBalance(msg.sender)>=amount,\"amount is more than the dividend balance\");\r\n        _holderPaidOUt[msg.sender] += amount;\r\n        TotalEthStaked-= amount;\r\n         payable(msg.sender).transfer(amount);\r\n         emit WithDividend(msg.sender,amount);\r\n    }\r\n            event WithPersonalEth (address buyer, uint256 amount);\r\nfunction withdrawPersonalEth(uint256 amount) payable public {\r\n        require(_holderPersonalEth[msg.sender]>=amount,\"amount is more than the personal balance\");\r\n        _holderPersonalEth[msg.sender] -= amount;\r\n         payable(msg.sender).transfer(amount);\r\n         emit WithPersonalEth(msg.sender,amount);\r\n    }\r\n    \r\n    \r\nfunction balanceOf(address holder) public view returns(uint256){\r\n        return _holderBalances[holder];\r\n    }\r\n\r\n\r\nfunction getTValues (uint256 tamount) public view returns (uint256,uint256,uint256,uint256,uint256){\r\n        uint256 tfee = tamount/100*commission;\r\n        uint256 dist = tamount/100*redistribution;\r\n        uint256 drc = tamount/100*direcREferCommission;\r\n        uint256 Idrc = tamount/100*inDirecREferCommission;\r\n        uint256 afee = tamount/100*adminFee;\r\n        uint256 tTransfer = tamount-tfee;\r\n        return ( tTransfer,dist,drc,Idrc,afee);\r\n    }\r\n    \r\n    \r\n    function getSValues (uint256 tamount) public view returns (uint256,uint256){\r\n        uint256 tfee = tamount/100*SellingCommission;\r\n        uint256 tTransfer = tamount-tfee;\r\n        return ( tTransfer,tfee);\r\n    }\r\n    \r\n\r\n    \r\n    \r\n\r\n    \r\n    \r\n}\r\n\r\n\r\n\r\n\r\n\r\nlibrary SafeMath {\r\n\r\n   \r\n    function mul(uint256 a, uint256 b) internal pure returns (uint256) {\r\n        if (a == 0) {\r\n            return 0;\r\n        }\r\n        uint256 c = a * b;\r\n        assert(c / a == b);\r\n        return c;\r\n    }\r\n\r\n   \r\n    function div(uint256 a, uint256 b) internal pure returns (uint256) {\r\n        // assert(b > 0); // Solidity automatically throws when dividing by 0\r\n        uint256 c = a / b;\r\n        // assert(a == b * c + a % b); // There is no case in which this doesn't hold\r\n        return c;\r\n    }\r\n\r\n    \r\n    function sub(uint256 a, uint256 b) internal pure returns (uint256) {\r\n        assert(b <= a);\r\n        return a - b;\r\n    }\r\n\r\n   \r\n    function add(uint256 a, uint256 b) internal pure returns (uint256) {\r\n        uint256 c = a + b;\r\n        assert(c >= a);\r\n        return c;\r\n    }\r\n\r\n/**\r\n* Also in memory of JPK, miss you Dad.\r\n*/\r\n    \r\n}\r\n\r\n\r\n\r\n\r\n\r\n\r\n\r\n\r\n\r\n\r\n\r\n\r\n\r\n",
  "sourcePath": "D:/fiverr/Owen/SeekGold2/contracts/Price5.sol",
  "compiler": {
    "name": "solc",
    "version": "0.8.0+commit.c7dfd78e.Emscripten.clang"
  },
  "schemaVersion": "3.3.4",
  "updatedAt": "2021-07-20T02:25:56.020Z",
  "networkType": "ethereum",
  "devdoc": {
    "kind": "dev",
    "methods": {},
    "version": 1
  },
  "userdoc": {
    "kind": "user",
    "methods": {},
    "version": 1
  }
}