{
  "contractName": "GoldSeek3",
  "abi": [
    {
      "inputs": [],
      "stateMutability": "nonpayable",
      "type": "constructor"
    },
    {
      "anonymous": false,
      "inputs": [
        {
          "indexed": false,
          "internalType": "address",
          "name": "buyer",
          "type": "address"
        },
        {
          "indexed": false,
          "internalType": "uint256",
          "name": "amount",
          "type": "uint256"
        }
      ],
      "name": "Buy",
      "type": "event"
    },
    {
      "anonymous": false,
      "inputs": [
        {
          "indexed": false,
          "internalType": "address",
          "name": "seller",
          "type": "address"
        },
        {
          "indexed": false,
          "internalType": "uint256",
          "name": "amount",
          "type": "uint256"
        }
      ],
      "name": "Sell",
      "type": "event"
    },
    {
      "anonymous": false,
      "inputs": [
        {
          "indexed": false,
          "internalType": "address",
          "name": "buyer",
          "type": "address"
        },
        {
          "indexed": false,
          "internalType": "uint256",
          "name": "amount",
          "type": "uint256"
        }
      ],
      "name": "WithDividend",
      "type": "event"
    },
    {
      "anonymous": false,
      "inputs": [
        {
          "indexed": false,
          "internalType": "address",
          "name": "buyer",
          "type": "address"
        },
        {
          "indexed": false,
          "internalType": "uint256",
          "name": "amount",
          "type": "uint256"
        }
      ],
      "name": "WithPersonalEth",
      "type": "event"
    },
    {
      "anonymous": false,
      "inputs": [
        {
          "indexed": false,
          "internalType": "address",
          "name": "buyer",
          "type": "address"
        },
        {
          "indexed": false,
          "internalType": "uint256",
          "name": "amount",
          "type": "uint256"
        }
      ],
      "name": "WithdrawrReferral",
      "type": "event"
    },
    {
      "inputs": [],
      "name": "DividendPool",
      "outputs": [
        {
          "internalType": "uint256",
          "name": "",
          "type": "uint256"
        }
      ],
      "stateMutability": "view",
      "type": "function",
      "constant": true
    },
    {
      "inputs": [],
      "name": "TotalEthStaked",
      "outputs": [
        {
          "internalType": "uint256",
          "name": "",
          "type": "uint256"
        }
      ],
      "stateMutability": "view",
      "type": "function",
      "constant": true
    },
    {
      "inputs": [],
      "name": "TotalSupply",
      "outputs": [
        {
          "internalType": "uint256",
          "name": "",
          "type": "uint256"
        }
      ],
      "stateMutability": "view",
      "type": "function",
      "constant": true
    },
    {
      "inputs": [
        {
          "internalType": "address",
          "name": "",
          "type": "address"
        }
      ],
      "name": "_ReferralCommission",
      "outputs": [
        {
          "internalType": "uint256",
          "name": "",
          "type": "uint256"
        }
      ],
      "stateMutability": "view",
      "type": "function",
      "constant": true
    },
    {
      "inputs": [],
      "name": "_existingPrice",
      "outputs": [
        {
          "internalType": "uint256",
          "name": "",
          "type": "uint256"
        }
      ],
      "stateMutability": "view",
      "type": "function",
      "constant": true
    },
    {
      "inputs": [
        {
          "internalType": "address",
          "name": "",
          "type": "address"
        }
      ],
      "name": "_holderBalances",
      "outputs": [
        {
          "internalType": "uint256",
          "name": "",
          "type": "uint256"
        }
      ],
      "stateMutability": "view",
      "type": "function",
      "constant": true
    },
    {
      "inputs": [
        {
          "internalType": "address",
          "name": "",
          "type": "address"
        }
      ],
      "name": "_holderPaidOUt",
      "outputs": [
        {
          "internalType": "uint256",
          "name": "",
          "type": "uint256"
        }
      ],
      "stateMutability": "view",
      "type": "function",
      "constant": true
    },
    {
      "inputs": [
        {
          "internalType": "address",
          "name": "",
          "type": "address"
        }
      ],
      "name": "_holderPersonalEth",
      "outputs": [
        {
          "internalType": "uint256",
          "name": "",
          "type": "uint256"
        }
      ],
      "stateMutability": "view",
      "type": "function",
      "constant": true
    },
    {
      "inputs": [
        {
          "internalType": "address",
          "name": "",
          "type": "address"
        }
      ],
      "name": "_referrerMapping",
      "outputs": [
        {
          "internalType": "address",
          "name": "",
          "type": "address"
        }
      ],
      "stateMutability": "view",
      "type": "function",
      "constant": true
    },
    {
      "inputs": [],
      "name": "owner",
      "outputs": [
        {
          "internalType": "address",
          "name": "",
          "type": "address"
        }
      ],
      "stateMutability": "view",
      "type": "function",
      "constant": true
    },
    {
      "inputs": [],
      "name": "rateOfDiv",
      "outputs": [
        {
          "internalType": "uint256",
          "name": "",
          "type": "uint256"
        }
      ],
      "stateMutability": "view",
      "type": "function",
      "constant": true
    },
    {
      "inputs": [],
      "name": "tTransferPUblic",
      "outputs": [
        {
          "internalType": "uint256",
          "name": "",
          "type": "uint256"
        }
      ],
      "stateMutability": "view",
      "type": "function",
      "constant": true
    },
    {
      "inputs": [],
      "name": "tfeepublic",
      "outputs": [
        {
          "internalType": "uint256",
          "name": "",
          "type": "uint256"
        }
      ],
      "stateMutability": "view",
      "type": "function",
      "constant": true
    },
    {
      "inputs": [],
      "name": "tokenPriceInitial_",
      "outputs": [
        {
          "internalType": "uint256",
          "name": "",
          "type": "uint256"
        }
      ],
      "stateMutability": "view",
      "type": "function",
      "constant": true
    },
    {
      "inputs": [],
      "name": "valueforSale",
      "outputs": [
        {
          "internalType": "uint256",
          "name": "",
          "type": "uint256"
        }
      ],
      "stateMutability": "view",
      "type": "function",
      "constant": true
    },
    {
      "inputs": [
        {
          "internalType": "address",
          "name": "referrer",
          "type": "address"
        }
      ],
      "name": "buy",
      "outputs": [],
      "stateMutability": "payable",
      "type": "function",
      "payable": true
    },
    {
      "inputs": [],
      "name": "reinvest",
      "outputs": [],
      "stateMutability": "nonpayable",
      "type": "function"
    },
    {
      "inputs": [],
      "name": "existingPrice",
      "outputs": [
        {
          "internalType": "uint256",
          "name": "",
          "type": "uint256"
        }
      ],
      "stateMutability": "view",
      "type": "function",
      "constant": true
    },
    {
      "inputs": [],
      "name": "SaleexistingPrice",
      "outputs": [
        {
          "internalType": "uint256",
          "name": "",
          "type": "uint256"
        }
      ],
      "stateMutability": "view",
      "type": "function",
      "constant": true
    },
    {
      "inputs": [
        {
          "internalType": "uint256",
          "name": "number",
          "type": "uint256"
        }
      ],
      "name": "sell",
      "outputs": [],
      "stateMutability": "payable",
      "type": "function",
      "payable": true
    },
    {
      "inputs": [
        {
          "internalType": "address",
          "name": "holder",
          "type": "address"
        }
      ],
      "name": "dividendBalance",
      "outputs": [
        {
          "internalType": "uint256",
          "name": "",
          "type": "uint256"
        }
      ],
      "stateMutability": "view",
      "type": "function",
      "constant": true
    },
    {
      "inputs": [
        {
          "internalType": "address",
          "name": "holder",
          "type": "address"
        }
      ],
      "name": "ReferralBalance",
      "outputs": [
        {
          "internalType": "uint256",
          "name": "",
          "type": "uint256"
        }
      ],
      "stateMutability": "view",
      "type": "function",
      "constant": true
    },
    {
      "inputs": [
        {
          "internalType": "uint256",
          "name": "amount",
          "type": "uint256"
        }
      ],
      "name": "withdrawrReferral",
      "outputs": [],
      "stateMutability": "payable",
      "type": "function",
      "payable": true
    },
    {
      "inputs": [
        {
          "internalType": "uint256",
          "name": "amount",
          "type": "uint256"
        }
      ],
      "name": "withdrawDividend",
      "outputs": [],
      "stateMutability": "payable",
      "type": "function",
      "payable": true
    },
    {
      "inputs": [
        {
          "internalType": "uint256",
          "name": "amount",
          "type": "uint256"
        }
      ],
      "name": "withdrawPersonalEth",
      "outputs": [],
      "stateMutability": "payable",
      "type": "function",
      "payable": true
    },
    {
      "inputs": [],
      "name": "balanceOf",
      "outputs": [
        {
          "internalType": "uint256",
          "name": "",
          "type": "uint256"
        },
        {
          "internalType": "uint256",
          "name": "",
          "type": "uint256"
        },
        {
          "internalType": "uint256",
          "name": "",
          "type": "uint256"
        },
        {
          "internalType": "uint256",
          "name": "",
          "type": "uint256"
        }
      ],
      "stateMutability": "view",
      "type": "function",
      "constant": true
    },
    {
      "inputs": [
        {
          "internalType": "uint256",
          "name": "tamount",
          "type": "uint256"
        }
      ],
      "name": "getTValues",
      "outputs": [
        {
          "internalType": "uint256",
          "name": "",
          "type": "uint256"
        },
        {
          "internalType": "uint256",
          "name": "",
          "type": "uint256"
        },
        {
          "internalType": "uint256",
          "name": "",
          "type": "uint256"
        },
        {
          "internalType": "uint256",
          "name": "",
          "type": "uint256"
        },
        {
          "internalType": "uint256",
          "name": "",
          "type": "uint256"
        }
      ],
      "stateMutability": "view",
      "type": "function",
      "constant": true
    },
    {
      "inputs": [
        {
          "internalType": "uint256",
          "name": "tamount",
          "type": "uint256"
        }
      ],
      "name": "getSValues",
      "outputs": [
        {
          "internalType": "uint256",
          "name": "",
          "type": "uint256"
        },
        {
          "internalType": "uint256",
          "name": "",
          "type": "uint256"
        }
      ],
      "stateMutability": "view",
      "type": "function",
      "constant": true
    },
    {
      "inputs": [
        {
          "internalType": "uint256",
          "name": "_ethereum",
          "type": "uint256"
        }
      ],
      "name": "ethereumToTokens_",
      "outputs": [
        {
          "internalType": "uint256",
          "name": "",
          "type": "uint256"
        }
      ],
      "stateMutability": "view",
      "type": "function",
      "constant": true
    }
  ],
  "bytecode": "0x60806040526512309ce540006005556ba0d000000000000000000000600860006101000a81548173ffffffffffffffffffffffffffffffffffffffff021916908373ffffffffffffffffffffffffffffffffffffffff16021790555073412fc8f58d2c68d5c1c7a011660aefa5f261d862600960006101000a81548173ffffffffffffffffffffffffffffffffffffffff021916908373ffffffffffffffffffffffffffffffffffffffff160217905550737cfa8cd3da48de9d86ad221662f38a1295d177ec600a60006101000a81548173ffffffffffffffffffffffffffffffffffffffff021916908373ffffffffffffffffffffffffffffffffffffffff1602179055506019600b55600a600c556007600d556003600e556005600f556007601055600060135534801561013457600080fd5b5033600660006101000a81548173ffffffffffffffffffffffffffffffffffffffff021916908373ffffffffffffffffffffffffffffffffffffffff16021790555061278f806101856000396000f3fe6080604052600436106101c25760003560e01c80638e32380e116100f7578063bf3dd4f111610095578063e4849b3211610064578063e4849b3214610689578063f088d547146106a5578063f6efd4c3146106c1578063fdb5a03e146106ec576101c2565b8063bf3dd4f1146105a2578063c4c1b39a146105df578063da743da01461060a578063dceaa8471461064b576101c2565b8063a44b47f7116100d1578063a44b47f7146104e4578063b3d0b1211461050f578063b49fbd7e1461053a578063baa0523f14610565576101c2565b80638e32380e146104515780639a7727e71461047c578063a0afd731146104a7576101c2565b8063434590af116101645780635d2605271161013e5780635d2605271461039f5780635d9bd8b2146103dc578063722713f7146103f85780638da5cb5b14610426576101c2565b8063434590af1461030c57806346669e17146103375780634823fdd414610374576101c2565b80632388cc1a116101a05780632388cc1a1461026c5780632a562134146102885780632a9121c7146102b35780633998fc44146102f0576101c2565b806304cd9ccd146101c75780630ccd0834146102045780631a9fdbd514610241575b600080fd5b3480156101d357600080fd5b506101ee60048036038101906101e99190611f81565b610703565b6040516101fb91906122d3565b60405180910390f35b34801561021057600080fd5b5061022b60048036038101906102269190611f81565b61074c565b60405161023891906122d3565b60405180910390f35b34801561024d57600080fd5b50610256610764565b60405161026391906122d3565b60405180910390f35b61028660048036038101906102819190611faa565b610799565b005b34801561029457600080fd5b5061029d6108f4565b6040516102aa91906122d3565b60405180910390f35b3480156102bf57600080fd5b506102da60048036038101906102d59190611faa565b6108fa565b6040516102e791906122d3565b60405180910390f35b61030a60048036038101906103059190611faa565b610a1c565b005b34801561031857600080fd5b50610321610b77565b60405161032e91906122d3565b60405180910390f35b34801561034357600080fd5b5061035e60048036038101906103599190611f81565b610b7d565b60405161036b91906122d3565b60405180910390f35b34801561038057600080fd5b50610389610b95565b60405161039691906122d3565b60405180910390f35b3480156103ab57600080fd5b506103c660048036038101906103c19190611f81565b610c08565b6040516103d391906122d3565b60405180910390f35b6103f660048036038101906103f19190611faa565b610c20565b005b34801561040457600080fd5b5061040d610d44565b60405161041d9493929190612317565b60405180910390f35b34801561043257600080fd5b5061043b610e7e565b60405161044891906121ef565b60405180910390f35b34801561045d57600080fd5b50610466610ea4565b60405161047391906122d3565b60405180910390f35b34801561048857600080fd5b50610491610eaa565b60405161049e91906122d3565b60405180910390f35b3480156104b357600080fd5b506104ce60048036038101906104c99190611f81565b610eb0565b6040516104db91906122d3565b60405180910390f35b3480156104f057600080fd5b506104f9610f6e565b60405161050691906122d3565b60405180910390f35b34801561051b57600080fd5b50610524610f74565b60405161053191906122d3565b60405180910390f35b34801561054657600080fd5b5061054f610f7a565b60405161055c91906122d3565b60405180910390f35b34801561057157600080fd5b5061058c60048036038101906105879190611f81565b610f80565b60405161059991906121ef565b60405180910390f35b3480156105ae57600080fd5b506105c960048036038101906105c49190611f81565b610fb3565b6040516105d691906122d3565b60405180910390f35b3480156105eb57600080fd5b506105f4610fcb565b60405161060191906122d3565b60405180910390f35b34801561061657600080fd5b50610631600480360381019061062c9190611faa565b610fd5565b60405161064295949392919061235c565b60405180910390f35b34801561065757600080fd5b50610672600480360381019061066d9190611faa565b6110a0565b6040516106809291906122ee565b60405180910390f35b6106a3600480360381019061069e9190611faa565b6110de565b005b6106bf60048036038101906106ba9190611f81565b6112ef565b005b3480156106cd57600080fd5b506106d661185d565b6040516106e391906122d3565b60405180910390f35b3480156106f857600080fd5b50610701611863565b005b6000600360008373ffffffffffffffffffffffffffffffffffffffff1673ffffffffffffffffffffffffffffffffffffffff168152602001908152602001600020549050919050565b60006020528060005260406000206000915090505481565b600080601354148061077d57506512309ce54000600554105b15610790576512309ce540009050610796565b60055490505b90565b80600260003373ffffffffffffffffffffffffffffffffffffffff1673ffffffffffffffffffffffffffffffffffffffff16815260200190815260200160002054101561081b576040517f08c379a000000000000000000000000000000000000000000000000000000000815260040161081290612273565b60405180910390fd5b80600260003373ffffffffffffffffffffffffffffffffffffffff1673ffffffffffffffffffffffffffffffffffffffff168152602001908152602001600020600082825461086a9190612612565b925050819055503373ffffffffffffffffffffffffffffffffffffffff166108fc829081150290604051600060405180830381858888f193505050501580156108b7573d6000803e3d6000fd5b507fef38aa7fe00189425522db230e078a1c5e52ae4e3083e5f6757336cb3e95fc8b33826040516108e992919061220a565b60405180910390a150565b60075481565b600080670de0b6b3a76400006512309ce5400061091791906125b8565b905060006013546501d1a94a20006109fc6109f6601354866501d1a94a2000600261094291906125b8565b61094c91906125b8565b61095691906125b8565b6002601354610965919061249a565b60026501d1a94a2000610978919061249a565b61098291906125b8565b670de0b6b3a76400008a61099691906125b8565b670de0b6b3a76400006501d1a94a20006109b091906125b8565b60026109bc91906125b8565b6109c691906125b8565b6002896109d3919061249a565b6109dd91906123c0565b6109e791906123c0565b6109f191906123c0565b611e67565b85611ec4565b610a069190612416565b610a109190612612565b90508092505050919050565b80600360003373ffffffffffffffffffffffffffffffffffffffff1673ffffffffffffffffffffffffffffffffffffffff168152602001908152602001600020541015610a9e576040517f08c379a0000000000000000000000000000000000000000000000000000000008152600401610a9590612233565b60405180910390fd5b80600360003373ffffffffffffffffffffffffffffffffffffffff1673ffffffffffffffffffffffffffffffffffffffff1681526020019081526020016000206000828254610aed9190612612565b925050819055503373ffffffffffffffffffffffffffffffffffffffff166108fc829081150290604051600060405180830381858888f19350505050158015610b3a573d6000803e3d6000fd5b507feb6ab569e8b3852c92eb3556e2bf33e5c4054efca5babb26b8ff74654793a9123382604051610b6c92919061220a565b60405180910390a150565b60145481565b60036020528060005260406000206000915090505481565b600080606460506512309ce54000610bad91906125b8565b610bb79190612416565b9050600060646050600554610bcc91906125b8565b610bd69190612416565b905060006013541480610bf057506512309ce54000600554105b15610bff578192505050610c05565b80925050505b90565b60016020528060005260406000206000915090505481565b80610c2a33610eb0565b1015610c6b576040517f08c379a0000000000000000000000000000000000000000000000000000000008152600401610c62906122b3565b60405180910390fd5b80600160003373ffffffffffffffffffffffffffffffffffffffff1673ffffffffffffffffffffffffffffffffffffffff1681526020019081526020016000206000828254610cba91906123c0565b925050819055503373ffffffffffffffffffffffffffffffffffffffff166108fc829081150290604051600060405180830381858888f19350505050158015610d07573d6000803e3d6000fd5b507f5bbdaacc10fd21c95c884d00a49069ea25391d756bb1973cd4bf606dd3b6ee863382604051610d3992919061220a565b60405180910390a150565b600080600080601354600080600a60009054906101000a900473ffffffffffffffffffffffffffffffffffffffff1673ffffffffffffffffffffffffffffffffffffffff1673ffffffffffffffffffffffffffffffffffffffff16815260200190815260200160002054600080600960009054906101000a900473ffffffffffffffffffffffffffffffffffffffff1673ffffffffffffffffffffffffffffffffffffffff1673ffffffffffffffffffffffffffffffffffffffff16815260200190815260200160002054600080600860009054906101000a900473ffffffffffffffffffffffffffffffffffffffff1673ffffffffffffffffffffffffffffffffffffffff1673ffffffffffffffffffffffffffffffffffffffff16815260200190815260200160002054935093509350935090919293565b600660009054906101000a900473ffffffffffffffffffffffffffffffffffffffff1681565b60055481565b60165481565b600080680100000000000000006011546000808673ffffffffffffffffffffffffffffffffffffffff1673ffffffffffffffffffffffffffffffffffffffff16815260200190815260200160002054610f0991906125b8565b610f139190612416565b90506000600160008573ffffffffffffffffffffffffffffffffffffffff1673ffffffffffffffffffffffffffffffffffffffff1681526020019081526020016000205482610f629190612612565b90508092505050919050565b60135481565b60115481565b60155481565b60046020528060005260406000206000915054906101000a900473ffffffffffffffffffffffffffffffffffffffff1681565b60026020528060005260406000206000915090505481565b6512309ce5400081565b600080600080600080600b54606488610fee9190612416565b610ff891906125b8565b90506000600c5460648961100c9190612416565b61101691906125b8565b90506000600d5460648a61102a9190612416565b61103491906125b8565b90506000600e5460648b6110489190612416565b61105291906125b8565b90506000600f5460648c6110669190612416565b61107091906125b8565b90506000858c6110809190612612565b905080858585859a509a509a509a509a5050505050505091939590929450565b60008060006010546064856110b59190612416565b6110bf91906125b8565b9050600081856110cf9190612612565b90508082935093505050915091565b806000803373ffffffffffffffffffffffffffffffffffffffff1673ffffffffffffffffffffffffffffffffffffffff16815260200190815260200160002054101561115f576040517f08c379a000000000000000000000000000000000000000000000000000000000815260040161115690612293565b60405180910390fd5b806000803373ffffffffffffffffffffffffffffffffffffffff1673ffffffffffffffffffffffffffffffffffffffff16815260200190815260200160002060008282546111ad9190612612565b9250508190555080601360008282546111c69190612612565b925050819055506111d5610b95565b816111e091906125b8565b6014819055506000806111f46014546110a0565b91509150816015819055508060168190555081600260003373ffffffffffffffffffffffffffffffffffffffff1673ffffffffffffffffffffffffffffffffffffffff168152602001908152602001600020600082825461125591906123c0565b9250508190555061126581611f11565b670de0b6b3a76400006501d1a94a20008361128091906125b8565b61128a9190612416565b6005546112979190612612565b600581905550816007546112ab9190612612565b6007819055507f5e5e995ce3133561afceaa51a9a154d5db228cd7525d34df5185582c18d3df0933846040516112e292919061220a565b60405180910390a1505050565b600080600080600061130034610fd5565b9450945094509450945067016345785d8a0000341015611355576040517f08c379a000000000000000000000000000000000000000000000000000000000815260040161134c90612253565b60405180910390fd5b600061135f610764565b90506000818761136f919061268f565b90506000818861137f9190612612565b90506000838261138f9190612416565b90506000600460008c73ffffffffffffffffffffffffffffffffffffffff1673ffffffffffffffffffffffffffffffffffffffff16815260200190815260200160002060009054906101000a900473ffffffffffffffffffffffffffffffffffffffff169050816000803373ffffffffffffffffffffffffffffffffffffffff1673ffffffffffffffffffffffffffffffffffffffff168152602001908152602001600020600082825461144391906123c0565b925050819055508560036000600860009054906101000a900473ffffffffffffffffffffffffffffffffffffffff1673ffffffffffffffffffffffffffffffffffffffff1673ffffffffffffffffffffffffffffffffffffffff16815260200190815260200160002060008282546114bb91906123c0565b92505081905550600073ffffffffffffffffffffffffffffffffffffffff168b73ffffffffffffffffffffffffffffffffffffffff16146116d75787600360008d73ffffffffffffffffffffffffffffffffffffffff1673ffffffffffffffffffffffffffffffffffffffff168152602001908152602001600020600082825461154591906123c0565b925050819055508a600460003373ffffffffffffffffffffffffffffffffffffffff1673ffffffffffffffffffffffffffffffffffffffff16815260200190815260200160002060006101000a81548173ffffffffffffffffffffffffffffffffffffffff021916908373ffffffffffffffffffffffffffffffffffffffff160217905550600073ffffffffffffffffffffffffffffffffffffffff168173ffffffffffffffffffffffffffffffffffffffff16146116595786600360008373ffffffffffffffffffffffffffffffffffffffff1673ffffffffffffffffffffffffffffffffffffffff168152602001908152602001600020600082825461164d91906123c0565b925050819055506116d2565b8660036000600860009054906101000a900473ffffffffffffffffffffffffffffffffffffffff1673ffffffffffffffffffffffffffffffffffffffff1673ffffffffffffffffffffffffffffffffffffffff16815260200190815260200160002060008282546116ca91906123c0565b925050819055505b6117a4565b8760036000600860009054906101000a900473ffffffffffffffffffffffffffffffffffffffff1673ffffffffffffffffffffffffffffffffffffffff1673ffffffffffffffffffffffffffffffffffffffff168152602001908152602001600020819055508660036000600860009054906101000a900473ffffffffffffffffffffffffffffffffffffffff1673ffffffffffffffffffffffffffffffffffffffff1673ffffffffffffffffffffffffffffffffffffffff168152602001908152602001600020819055505b81601360008282546117b691906123c0565b925050819055506117c689611f11565b34600760008282546117d891906123c0565b92505081905550670de0b6b3a76400006501d1a94a2000346117fa91906125b8565b6118049190612416565b60055461181191906123c0565b6005819055507fe3d4187f6ca4248660cc0ac8b8056515bac4a8132be2eca31d6d0cc170722a7e338360405161184892919061220a565b60405180910390a15050505050505050505050565b60125481565b6000600360003373ffffffffffffffffffffffffffffffffffffffff1673ffffffffffffffffffffffffffffffffffffffff168152602001908152602001600020546118ae33610eb0565b6118b891906123c0565b905060008060008060006118cb86610fd5565b9450945094509450945060006118df610764565b9050600081876118ef919061268f565b9050600081886118ff9190612612565b90506000838261190f9190612416565b90506000600460003373ffffffffffffffffffffffffffffffffffffffff1673ffffffffffffffffffffffffffffffffffffffff16815260200190815260200160002060009054906101000a900473ffffffffffffffffffffffffffffffffffffffff1690506000600460008373ffffffffffffffffffffffffffffffffffffffff1673ffffffffffffffffffffffffffffffffffffffff16815260200190815260200160002060009054906101000a900473ffffffffffffffffffffffffffffffffffffffff169050826000803373ffffffffffffffffffffffffffffffffffffffff1673ffffffffffffffffffffffffffffffffffffffff1681526020019081526020016000206000828254611a2791906123c0565b925050819055508660036000600860009054906101000a900473ffffffffffffffffffffffffffffffffffffffff1673ffffffffffffffffffffffffffffffffffffffff1673ffffffffffffffffffffffffffffffffffffffff1681526020019081526020016000206000828254611a9f91906123c0565b92505081905550600073ffffffffffffffffffffffffffffffffffffffff168273ffffffffffffffffffffffffffffffffffffffff1614611c3d5788600360008473ffffffffffffffffffffffffffffffffffffffff1673ffffffffffffffffffffffffffffffffffffffff1681526020019081526020016000206000828254611b2991906123c0565b92505081905550600073ffffffffffffffffffffffffffffffffffffffff168173ffffffffffffffffffffffffffffffffffffffff1614611bbf5787600360008373ffffffffffffffffffffffffffffffffffffffff1673ffffffffffffffffffffffffffffffffffffffff1681526020019081526020016000206000828254611bb391906123c0565b92505081905550611c38565b8760036000600860009054906101000a900473ffffffffffffffffffffffffffffffffffffffff1673ffffffffffffffffffffffffffffffffffffffff1673ffffffffffffffffffffffffffffffffffffffff1681526020019081526020016000206000828254611c3091906123c0565b925050819055505b611d0a565b8860036000600860009054906101000a900473ffffffffffffffffffffffffffffffffffffffff1673ffffffffffffffffffffffffffffffffffffffff1673ffffffffffffffffffffffffffffffffffffffff168152602001908152602001600020819055508760036000600860009054906101000a900473ffffffffffffffffffffffffffffffffffffffff1673ffffffffffffffffffffffffffffffffffffffff1673ffffffffffffffffffffffffffffffffffffffff168152602001908152602001600020819055505b8260136000828254611d1c91906123c0565b92505081905550611d2c8a611f11565b8b60076000828254611d3e91906123c0565b92505081905550670de0b6b3a76400006501d1a94a20008d611d6091906125b8565b611d6a9190612416565b600554611d7791906123c0565b600581905550611d8633610eb0565b600160003373ffffffffffffffffffffffffffffffffffffffff1673ffffffffffffffffffffffffffffffffffffffff1681526020019081526020016000206000828254611dd491906123c0565b925050819055506000600360003373ffffffffffffffffffffffffffffffffffffffff1673ffffffffffffffffffffffffffffffffffffffff168152602001908152602001600020819055507fe3d4187f6ca4248660cc0ac8b8056515bac4a8132be2eca31d6d0cc170722a7e3384604051611e5192919061220a565b60405180910390a1505050505050505050505050565b6000806002600184611e7991906123c0565b611e839190612416565b90508291505b81811015611ebe578091506002818285611ea39190612416565b611ead91906123c0565b611eb79190612416565b9050611e89565b50919050565b600082821115611efd577f4e487b7100000000000000000000000000000000000000000000000000000000600052600160045260246000fd5b8183611f099190612612565b905092915050565b8060126000828254611f2391906123c0565b9250508190555060135468010000000000000000601254611f4491906125b8565b611f4e9190612416565b60118190555050565b600081359050611f668161272b565b92915050565b600081359050611f7b81612742565b92915050565b600060208284031215611f9357600080fd5b6000611fa184828501611f57565b91505092915050565b600060208284031215611fbc57600080fd5b6000611fca84828501611f6c565b91505092915050565b611fdc81612646565b82525050565b6000611fef602b836123af565b91507f616d6f75746e206d757374206e6f74206578636565642074686520726566657260008301527f72616c2062616c616e63650000000000000000000000000000000000000000006020830152604082019050919050565b60006120556026836123af565b91507f616d6f756e74206d757374206265206772656174686572207468616e20302e3060008301527f303120424e4200000000000000000000000000000000000000000000000000006020830152604082019050919050565b60006120bb6028836123af565b91507f616d6f756e74206973206d6f7265207468616e2074686520706572736f6e616c60008301527f2062616c616e63650000000000000000000000000000000000000000000000006020830152604082019050919050565b60006121216026836123af565b91507f616d6f756e74206d757374206265206c6573736572207468616e20746865206260008301527f616c616e636500000000000000000000000000000000000000000000000000006020830152604082019050919050565b60006121876028836123af565b91507f616d6f756e74206973206d6f7265207468616e20746865206469766964656e6460008301527f2062616c616e63650000000000000000000000000000000000000000000000006020830152604082019050919050565b6121e981612678565b82525050565b60006020820190506122046000830184611fd3565b92915050565b600060408201905061221f6000830185611fd3565b61222c60208301846121e0565b9392505050565b6000602082019050818103600083015261224c81611fe2565b9050919050565b6000602082019050818103600083015261226c81612048565b9050919050565b6000602082019050818103600083015261228c816120ae565b9050919050565b600060208201905081810360008301526122ac81612114565b9050919050565b600060208201905081810360008301526122cc8161217a565b9050919050565b60006020820190506122e860008301846121e0565b92915050565b600060408201905061230360008301856121e0565b61231060208301846121e0565b9392505050565b600060808201905061232c60008301876121e0565b61233960208301866121e0565b61234660408301856121e0565b61235360608301846121e0565b95945050505050565b600060a08201905061237160008301886121e0565b61237e60208301876121e0565b61238b60408301866121e0565b61239860608301856121e0565b6123a560808301846121e0565b9695505050505050565b600082825260208201905092915050565b60006123cb82612678565b91506123d683612678565b9250827fffffffffffffffffffffffffffffffffffffffffffffffffffffffffffffffff0382111561240b5761240a6126c0565b5b828201905092915050565b600061242182612678565b915061242c83612678565b92508261243c5761243b6126ef565b5b828204905092915050565b6000808291508390505b60018511156124915780860481111561246d5761246c6126c0565b5b600185161561247c5780820291505b808102905061248a8561271e565b9450612451565b94509492505050565b60006124a582612678565b91506124b083612682565b92506124dd7fffffffffffffffffffffffffffffffffffffffffffffffffffffffffffffffff84846124e5565b905092915050565b6000826124f557600190506125b1565b8161250357600090506125b1565b8160018114612519576002811461252357612552565b60019150506125b1565b60ff841115612535576125346126c0565b5b8360020a91508482111561254c5761254b6126c0565b5b506125b1565b5060208310610133831016604e8410600b84101617156125875782820a905083811115612582576125816126c0565b5b6125b1565b6125948484846001612447565b925090508184048111156125ab576125aa6126c0565b5b81810290505b9392505050565b60006125c382612678565b91506125ce83612678565b9250817fffffffffffffffffffffffffffffffffffffffffffffffffffffffffffffffff0483118215151615612607576126066126c0565b5b828202905092915050565b600061261d82612678565b915061262883612678565b92508282101561263b5761263a6126c0565b5b828203905092915050565b600061265182612658565b9050919050565b600073ffffffffffffffffffffffffffffffffffffffff82169050919050565b6000819050919050565b600060ff82169050919050565b600061269a82612678565b91506126a583612678565b9250826126b5576126b46126ef565b5b828206905092915050565b7f4e487b7100000000000000000000000000000000000000000000000000000000600052601160045260246000fd5b7f4e487b7100000000000000000000000000000000000000000000000000000000600052601260045260246000fd5b60008160011c9050919050565b61273481612646565b811461273f57600080fd5b50565b61274b81612678565b811461275657600080fd5b5056fea2646970667358221220cb65e6222211bfcd097753351a34908dd736e0ed8ce005c100a6f06e30e6b0aa64736f6c63430008000033",
  "immutableReferences": {},
  "source": "// SPDX-License-Identifier: MIT\r\n\r\npragma solidity ^0.8.0;\r\n\r\ncontract GoldSeek3 {\r\n     uint256 constant public tokenPriceInitial_ = 0.00002 ether;\r\n     uint256 constant internal tokenPriceIncremental_ = 0.000002 ether;\r\n     \r\n     uint256 constant internal magnitude = 2**64;\r\n    mapping (address => uint256) public _holderBalances;\r\n    mapping (address => uint256) public _holderPaidOUt;\r\n    mapping (address => uint256) public _holderPersonalEth;\r\n    mapping (address => uint256) public _ReferralCommission;\r\n    mapping (address => address) public _referrerMapping;\r\nuint256 public _existingPrice = tokenPriceInitial_;\r\n    address public owner;\r\n//    uint256 public RSupply;\r\n    uint256 public TotalEthStaked;\r\n    address _admin = 0x0000000000000000A0D000000000000000000000;  \r\n    address _Referer = 0x412fc8F58D2c68D5C1c7A011660aefA5f261d862;\r\n    address I_Referer = 0x7cfa8CD3DA48dE9D86aD221662f38A1295D177eC;\r\n    uint256 commission = 25;\r\n    uint256 redistribution = 10;\r\n    uint256 direcREferCommission = 7;\r\n    uint256 inDirecREferCommission = 3;\r\n    uint256 adminFee = 5;\r\n    uint256 SellingCommission = 7;\r\n    uint256 public rateOfDiv;\r\n    uint256 public DividendPool;\r\n\r\n //   uint256 public DividendPerToken;\r\n    \r\n    uint256 public TotalSupply = 0;\r\n    \r\n    constructor (){\r\n        owner = msg.sender;\r\n    }\r\n    \r\n    \r\n    event Buy (address buyer, uint256 amount);\r\n    function buy(address referrer)public payable {\r\n        \r\n        (\r\n          uint256 tTransfer,\r\n          uint256 dist,\r\n         uint256 drc,\r\n         uint256 Idrc,\r\n         uint256 afee) = getTValues(msg.value);\r\n        \r\n         require(msg.value>=0.1 ether,\"amount must be greather than 0.001 BNB\");\r\n         uint256 price = existingPrice();\r\n         uint256 Purremainder = tTransfer%price;\r\n         uint256 tokenValue = tTransfer - Purremainder;\r\n         uint256 tokenQty = tokenValue / price;\r\n        address indRferrer = _referrerMapping[referrer];\r\n        \r\n        _holderBalances[msg.sender] += tokenQty; \r\n        _ReferralCommission[_admin] += afee;\r\n    \r\n        if(referrer != 0x0000000000000000000000000000000000000000)\r\n            {_ReferralCommission[referrer] += drc;\r\n              _referrerMapping[msg.sender] = referrer;\r\n                if(indRferrer != 0x0000000000000000000000000000000000000000){_ReferralCommission[indRferrer] += Idrc;}\r\n                else{_ReferralCommission[_admin]+=Idrc;}\r\n            }\r\n        else{_ReferralCommission[_admin]= drc; _ReferralCommission[_admin]= Idrc;}\r\n        \r\n\r\n    \r\n        \r\n        TotalSupply += tokenQty;\r\n        processDiv(dist);\r\n        TotalEthStaked += msg.value;\r\n        _existingPrice = _existingPrice + (msg.value*tokenPriceIncremental_/1000000000000000000);\r\n        \r\n//        processEthStocked(msg.value,true);\r\n        \r\n        emit Buy(msg.sender,tokenQty);\r\n        \r\n        }\r\n        \r\n\r\n    function reinvest() public {\r\n        uint256 amount = dividendBalance(msg.sender) + _ReferralCommission[msg.sender];\r\n        \r\n        \r\n        (\r\n          uint256 tTransfer,\r\n          uint256 dist,\r\n         uint256 drc,\r\n         uint256 Idrc,\r\n         uint256 afee) = getTValues(amount);\r\n        \r\n\r\n         uint256 price = existingPrice();\r\n         uint256 Purremainder = tTransfer%price;\r\n         uint256 tokenValue = tTransfer - Purremainder;\r\n         uint256 tokenQty = tokenValue / price;\r\n         address referrer = _referrerMapping[msg.sender];\r\n         address indRferrer = _referrerMapping[referrer];\r\n        \r\n        _holderBalances[msg.sender] += tokenQty; \r\n        _ReferralCommission[_admin] += afee;\r\n    \r\n        if(referrer != 0x0000000000000000000000000000000000000000)\r\n            {_ReferralCommission[referrer] += drc;\r\n\r\n                if(indRferrer != 0x0000000000000000000000000000000000000000){_ReferralCommission[indRferrer] += Idrc;}\r\n                else{_ReferralCommission[_admin]+=Idrc;}\r\n            }\r\n        else{_ReferralCommission[_admin]= drc; _ReferralCommission[_admin]= Idrc;}\r\n        \r\n\r\n    \r\n        \r\n        TotalSupply += tokenQty;\r\n        processDiv(dist);\r\n        TotalEthStaked += amount;\r\n        _existingPrice = _existingPrice + (amount*tokenPriceIncremental_/1000000000000000000);\r\n        \r\n//        processEthStocked(msg.value,true);\r\n        _holderPaidOUt[msg.sender] += dividendBalance(msg.sender);\r\n        _ReferralCommission[msg.sender] = 0;\r\n        emit Buy(msg.sender,tokenQty);\r\n        \r\n    }\r\n    \r\n    function existingPrice() view public returns(uint256){\r\n        if(TotalSupply==0 || _existingPrice < tokenPriceInitial_){return tokenPriceInitial_;}\r\n        else{return _existingPrice;}\r\n    }\r\n    \r\n    function SaleexistingPrice() view public returns(uint256){\r\n        uint256 price1 = tokenPriceInitial_*80/100;\r\n        uint256 price2 = _existingPrice*80/100;\r\n        if(TotalSupply==0 || _existingPrice < tokenPriceInitial_){return price1;}\r\n        else{return price2;}\r\n    }   \r\n    \r\n    uint256 public valueforSale;\r\n    uint256  public tTransferPUblic; \r\n    uint256  public tfeepublic; \r\n    \r\n    event Sell(address seller,uint256 amount);\r\n    function sell(uint256 number) public payable {\r\n        \r\n        \r\n         require(_holderBalances[msg.sender]>=number,\"amount must be lesser than the balance\");\r\n         _holderBalances[msg.sender]-=number;\r\n         TotalSupply -=number;\r\n         valueforSale = number*SaleexistingPrice();\r\n\r\n        \r\n         (\r\n           uint256 tTransfer,uint256 tfee) = getSValues(valueforSale);\r\n        \r\n        tTransferPUblic = tTransfer;\r\n        tfeepublic = tfee;\r\n         \r\n        _holderPersonalEth[msg.sender] += tTransfer;\r\n\r\n        processDiv(tfee);\r\n        _existingPrice = _existingPrice -(tTransfer*tokenPriceIncremental_/1000000000000000000);\r\n        TotalEthStaked = TotalEthStaked-tTransfer;\r\n        emit Sell(msg.sender,number);\r\n    }\r\n    \r\n    \r\n    function processEthStocked (uint256 amount, bool trx)internal {\r\n      if(trx == true){TotalEthStaked += amount;}\r\n      else if(trx == false){TotalEthStaked -= amount;}\r\n    }\r\n    \r\n    // function Dividendsell(uint256 number) public payable {\r\n    \r\n        \r\n\r\n    //     _holderBalances[address(this)] -= number;\r\n    \r\n    //      TotalSupply -= number;\r\n         \r\n    //      uint256 rate = ethereumToTokens_(100000000000);\r\n    //      uint256 valueOFSell = number*rate / (100000000000 * 1000000000000000000);\r\n    //     _holderPersonalEth[msg.sender] += valueOFSell;\r\n        \r\n    // }\r\n    \r\n    function processDiv(uint256 tfee) internal {\r\n        DividendPool += tfee;\r\n        rateOfDiv = DividendPool * magnitude / TotalSupply;\r\n    }\r\n    \r\n    function dividendBalance(address holder) public view returns(uint256) {\r\n        uint256 _dividendBalance = _holderBalances[holder] * rateOfDiv / magnitude;\r\n        uint256 dividendTopay = _dividendBalance - _holderPaidOUt[holder];\r\n        return dividendTopay;\r\n    }\r\n    \r\n    function ReferralBalance(address holder) public view returns(uint256) {\r\n        return _ReferralCommission[holder];\r\n    }\r\n    \r\n    event WithdrawrReferral (address buyer, uint256 amount);\r\n    function withdrawrReferral(uint256 amount) public payable {\r\n    require(_ReferralCommission[msg.sender] >=amount,\"amoutn must not exceed the referral balance\");\r\n    _ReferralCommission[msg.sender]-=amount;\r\n    payable(msg.sender).transfer(amount);\r\n    emit WithdrawrReferral(msg.sender,amount);\r\n    }\r\n    \r\n        event WithDividend (address buyer, uint256 amount);\r\n    function withdrawDividend(uint256 amount) payable public {\r\n        require(dividendBalance(msg.sender)>=amount,\"amount is more than the dividend balance\");\r\n        _holderPaidOUt[msg.sender] += amount;\r\n         payable(msg.sender).transfer(amount);\r\n         emit WithDividend(msg.sender,amount);\r\n    }\r\n            event WithPersonalEth (address buyer, uint256 amount);\r\nfunction withdrawPersonalEth(uint256 amount) payable public {\r\n        require(_holderPersonalEth[msg.sender]>=amount,\"amount is more than the personal balance\");\r\n        _holderPersonalEth[msg.sender] -= amount;\r\n         payable(msg.sender).transfer(amount);\r\n         emit WithPersonalEth(msg.sender,amount);\r\n    }\r\n    \r\n    \r\nfunction balanceOf() public view returns(uint256,uint256,uint256,uint256){\r\n        return (TotalSupply,_holderBalances[I_Referer],_holderBalances[_Referer],_holderBalances[_admin]);\r\n    }\r\n\r\n\r\nfunction getTValues (uint256 tamount) public view returns (uint256,uint256,uint256,uint256,uint256){\r\n        uint256 tfee = tamount/100*commission;\r\n        uint256 dist = tamount/100*redistribution;\r\n        uint256 drc = tamount/100*direcREferCommission;\r\n        uint256 Idrc = tamount/100*inDirecREferCommission;\r\n        uint256 afee = tamount/100*adminFee;\r\n        uint256 tTransfer = tamount-tfee;\r\n        return ( tTransfer,dist,drc,Idrc,afee);\r\n    }\r\n    \r\n    \r\n    function getSValues (uint256 tamount) public view returns (uint256,uint256){\r\n        uint256 tfee = tamount/100*SellingCommission;\r\n        uint256 tTransfer = tamount-tfee;\r\n        return ( tTransfer,tfee);\r\n    }\r\n    \r\n\r\n    \r\n    \r\n    \r\n\r\nfunction ethereumToTokens_(uint256 _ethereum)\r\n        public\r\n        view\r\n        returns(uint256)\r\n    {\r\n        uint256 _tokenPriceInitial = tokenPriceInitial_ * 1e18;\r\n        uint256 _tokensReceived = \r\n         (\r\n            (\r\n                // underflow attempts BTFO\r\n                SafeMath.sub(\r\n                    (sqrt\r\n                        (\r\n                            (_tokenPriceInitial**2)\r\n                            +\r\n                            (2*(tokenPriceIncremental_ * 1e18)*(_ethereum * 1e18))\r\n                            +\r\n                            (((tokenPriceIncremental_)**2)*(TotalSupply**2))\r\n                            +\r\n                            (2*(tokenPriceIncremental_)*_tokenPriceInitial*TotalSupply)\r\n                        )\r\n                    ), _tokenPriceInitial\r\n                )\r\n            )/(tokenPriceIncremental_)\r\n        )-(TotalSupply)\r\n        ;\r\n        \r\n            return _tokensReceived;\r\n    }\r\n    \r\n    \r\n            function sqrt(uint x) internal pure returns (uint y) {\r\n        uint z = (x + 1) / 2;\r\n        y = x;\r\n        while (z < y) {\r\n            y = z;\r\n            z = (x / z + z) / 2;\r\n        }\r\n    }\r\n    \r\n    \r\n}\r\n\r\n\r\n\r\n\r\n\r\nlibrary SafeMath {\r\n\r\n   \r\n    function mul(uint256 a, uint256 b) internal pure returns (uint256) {\r\n        if (a == 0) {\r\n            return 0;\r\n        }\r\n        uint256 c = a * b;\r\n        assert(c / a == b);\r\n        return c;\r\n    }\r\n\r\n   \r\n    function div(uint256 a, uint256 b) internal pure returns (uint256) {\r\n        // assert(b > 0); // Solidity automatically throws when dividing by 0\r\n        uint256 c = a / b;\r\n        // assert(a == b * c + a % b); // There is no case in which this doesn't hold\r\n        return c;\r\n    }\r\n\r\n    \r\n    function sub(uint256 a, uint256 b) internal pure returns (uint256) {\r\n        assert(b <= a);\r\n        return a - b;\r\n    }\r\n\r\n   \r\n    function add(uint256 a, uint256 b) internal pure returns (uint256) {\r\n        uint256 c = a + b;\r\n        assert(c >= a);\r\n        return c;\r\n    }\r\n\r\n/**\r\n* Also in memory of JPK, miss you Dad.\r\n*/\r\n    \r\n}\r\n\r\n\r\n\r\n\r\n\r\n\r\n\r\n\r\n\r\n\r\n\r\n\r\n\r\n",
  "sourcePath": "D:/fiverr/Owen/SeekGold2/contracts/Price5.sol",
  "compiler": {
    "name": "solc",
    "version": "0.8.0+commit.c7dfd78e.Emscripten.clang"
  },
  "schemaVersion": "3.3.4",
  "updatedAt": "2021-07-06T02:49:50.910Z",
  "networkType": "ethereum",
  "devdoc": {
    "kind": "dev",
    "methods": {},
    "version": 1
  },
  "userdoc": {
    "kind": "user",
    "methods": {},
    "version": 1
  }
}