{
  "contractName": "GoldSeek3",
  "abi": [
    {
      "inputs": [],
      "stateMutability": "nonpayable",
      "type": "constructor"
    },
    {
      "anonymous": false,
      "inputs": [
        {
          "indexed": false,
          "internalType": "address",
          "name": "buyer",
          "type": "address"
        },
        {
          "indexed": false,
          "internalType": "uint256",
          "name": "amount",
          "type": "uint256"
        }
      ],
      "name": "Buy",
      "type": "event"
    },
    {
      "anonymous": false,
      "inputs": [
        {
          "indexed": false,
          "internalType": "address",
          "name": "seller",
          "type": "address"
        },
        {
          "indexed": false,
          "internalType": "uint256",
          "name": "amount",
          "type": "uint256"
        }
      ],
      "name": "Sell",
      "type": "event"
    },
    {
      "anonymous": false,
      "inputs": [
        {
          "indexed": false,
          "internalType": "address",
          "name": "buyer",
          "type": "address"
        },
        {
          "indexed": false,
          "internalType": "uint256",
          "name": "amount",
          "type": "uint256"
        }
      ],
      "name": "WithDividend",
      "type": "event"
    },
    {
      "anonymous": false,
      "inputs": [
        {
          "indexed": false,
          "internalType": "address",
          "name": "buyer",
          "type": "address"
        },
        {
          "indexed": false,
          "internalType": "uint256",
          "name": "amount",
          "type": "uint256"
        }
      ],
      "name": "WithPersonalEth",
      "type": "event"
    },
    {
      "anonymous": false,
      "inputs": [
        {
          "indexed": false,
          "internalType": "address",
          "name": "buyer",
          "type": "address"
        },
        {
          "indexed": false,
          "internalType": "uint256",
          "name": "amount",
          "type": "uint256"
        }
      ],
      "name": "WithdrawrReferral",
      "type": "event"
    },
    {
      "inputs": [],
      "name": "DivSupply",
      "outputs": [
        {
          "internalType": "uint256",
          "name": "",
          "type": "uint256"
        }
      ],
      "stateMutability": "view",
      "type": "function",
      "constant": true
    },
    {
      "inputs": [],
      "name": "DividendLargerPool",
      "outputs": [
        {
          "internalType": "uint256",
          "name": "",
          "type": "uint256"
        }
      ],
      "stateMutability": "view",
      "type": "function",
      "constant": true
    },
    {
      "inputs": [],
      "name": "DividendPool",
      "outputs": [
        {
          "internalType": "uint256",
          "name": "",
          "type": "uint256"
        }
      ],
      "stateMutability": "view",
      "type": "function",
      "constant": true
    },
    {
      "inputs": [],
      "name": "TotalEthStaked",
      "outputs": [
        {
          "internalType": "uint256",
          "name": "",
          "type": "uint256"
        }
      ],
      "stateMutability": "view",
      "type": "function",
      "constant": true
    },
    {
      "inputs": [],
      "name": "TotalSupply",
      "outputs": [
        {
          "internalType": "uint256",
          "name": "",
          "type": "uint256"
        }
      ],
      "stateMutability": "view",
      "type": "function",
      "constant": true
    },
    {
      "inputs": [
        {
          "internalType": "address",
          "name": "",
          "type": "address"
        }
      ],
      "name": "_ReferralCommission",
      "outputs": [
        {
          "internalType": "uint256",
          "name": "",
          "type": "uint256"
        }
      ],
      "stateMutability": "view",
      "type": "function",
      "constant": true
    },
    {
      "inputs": [
        {
          "internalType": "address",
          "name": "",
          "type": "address"
        }
      ],
      "name": "_divCredits",
      "outputs": [
        {
          "internalType": "uint256",
          "name": "",
          "type": "uint256"
        }
      ],
      "stateMutability": "view",
      "type": "function",
      "constant": true
    },
    {
      "inputs": [],
      "name": "_existingPrice",
      "outputs": [
        {
          "internalType": "uint256",
          "name": "",
          "type": "uint256"
        }
      ],
      "stateMutability": "view",
      "type": "function",
      "constant": true
    },
    {
      "inputs": [
        {
          "internalType": "address",
          "name": "",
          "type": "address"
        }
      ],
      "name": "_holderBalances",
      "outputs": [
        {
          "internalType": "uint256",
          "name": "",
          "type": "uint256"
        }
      ],
      "stateMutability": "view",
      "type": "function",
      "constant": true
    },
    {
      "inputs": [
        {
          "internalType": "address",
          "name": "",
          "type": "address"
        }
      ],
      "name": "_holderPaidOUt",
      "outputs": [
        {
          "internalType": "uint256",
          "name": "",
          "type": "uint256"
        }
      ],
      "stateMutability": "view",
      "type": "function",
      "constant": true
    },
    {
      "inputs": [
        {
          "internalType": "address",
          "name": "",
          "type": "address"
        }
      ],
      "name": "_holderPersonalEth",
      "outputs": [
        {
          "internalType": "uint256",
          "name": "",
          "type": "uint256"
        }
      ],
      "stateMutability": "view",
      "type": "function",
      "constant": true
    },
    {
      "inputs": [
        {
          "internalType": "address",
          "name": "",
          "type": "address"
        }
      ],
      "name": "_referrerMapping",
      "outputs": [
        {
          "internalType": "address",
          "name": "",
          "type": "address"
        }
      ],
      "stateMutability": "view",
      "type": "function",
      "constant": true
    },
    {
      "inputs": [],
      "name": "owner",
      "outputs": [
        {
          "internalType": "address",
          "name": "",
          "type": "address"
        }
      ],
      "stateMutability": "view",
      "type": "function",
      "constant": true
    },
    {
      "inputs": [],
      "name": "rateOfDiv",
      "outputs": [
        {
          "internalType": "uint256",
          "name": "",
          "type": "uint256"
        }
      ],
      "stateMutability": "view",
      "type": "function",
      "constant": true
    },
    {
      "inputs": [],
      "name": "tTransferPUblic",
      "outputs": [
        {
          "internalType": "uint256",
          "name": "",
          "type": "uint256"
        }
      ],
      "stateMutability": "view",
      "type": "function",
      "constant": true
    },
    {
      "inputs": [],
      "name": "tfeepublic",
      "outputs": [
        {
          "internalType": "uint256",
          "name": "",
          "type": "uint256"
        }
      ],
      "stateMutability": "view",
      "type": "function",
      "constant": true
    },
    {
      "inputs": [],
      "name": "tokenPriceInitial_",
      "outputs": [
        {
          "internalType": "uint256",
          "name": "",
          "type": "uint256"
        }
      ],
      "stateMutability": "view",
      "type": "function",
      "constant": true
    },
    {
      "inputs": [],
      "name": "valueforSale",
      "outputs": [
        {
          "internalType": "uint256",
          "name": "",
          "type": "uint256"
        }
      ],
      "stateMutability": "view",
      "type": "function",
      "constant": true
    },
    {
      "inputs": [
        {
          "internalType": "address",
          "name": "referrer",
          "type": "address"
        }
      ],
      "name": "buy",
      "outputs": [],
      "stateMutability": "payable",
      "type": "function",
      "payable": true
    },
    {
      "inputs": [],
      "name": "reinvest",
      "outputs": [],
      "stateMutability": "nonpayable",
      "type": "function"
    },
    {
      "inputs": [],
      "name": "existingPrice",
      "outputs": [
        {
          "internalType": "uint256",
          "name": "",
          "type": "uint256"
        }
      ],
      "stateMutability": "view",
      "type": "function",
      "constant": true
    },
    {
      "inputs": [],
      "name": "SaleexistingPrice",
      "outputs": [
        {
          "internalType": "uint256",
          "name": "",
          "type": "uint256"
        }
      ],
      "stateMutability": "view",
      "type": "function",
      "constant": true
    },
    {
      "inputs": [
        {
          "internalType": "uint256",
          "name": "number",
          "type": "uint256"
        }
      ],
      "name": "sell",
      "outputs": [],
      "stateMutability": "payable",
      "type": "function",
      "payable": true
    },
    {
      "inputs": [
        {
          "internalType": "address",
          "name": "holder",
          "type": "address"
        }
      ],
      "name": "dividendBalance",
      "outputs": [
        {
          "internalType": "uint256",
          "name": "",
          "type": "uint256"
        }
      ],
      "stateMutability": "view",
      "type": "function",
      "constant": true
    },
    {
      "inputs": [],
      "name": "redeemBNBs",
      "outputs": [],
      "stateMutability": "nonpayable",
      "type": "function"
    },
    {
      "inputs": [
        {
          "internalType": "address",
          "name": "holder",
          "type": "address"
        }
      ],
      "name": "ReferralBalance",
      "outputs": [
        {
          "internalType": "uint256",
          "name": "",
          "type": "uint256"
        }
      ],
      "stateMutability": "view",
      "type": "function",
      "constant": true
    },
    {
      "inputs": [
        {
          "internalType": "uint256",
          "name": "amount",
          "type": "uint256"
        }
      ],
      "name": "withdrawrReferral",
      "outputs": [],
      "stateMutability": "payable",
      "type": "function",
      "payable": true
    },
    {
      "inputs": [],
      "name": "withdrawrReferralAdmin",
      "outputs": [],
      "stateMutability": "payable",
      "type": "function",
      "payable": true
    },
    {
      "inputs": [
        {
          "internalType": "uint256",
          "name": "amount",
          "type": "uint256"
        }
      ],
      "name": "withdrawDividend",
      "outputs": [],
      "stateMutability": "payable",
      "type": "function",
      "payable": true
    },
    {
      "inputs": [
        {
          "internalType": "uint256",
          "name": "amount",
          "type": "uint256"
        }
      ],
      "name": "withdrawPersonalEth",
      "outputs": [],
      "stateMutability": "payable",
      "type": "function",
      "payable": true
    },
    {
      "inputs": [],
      "name": "balanceOf",
      "outputs": [
        {
          "internalType": "uint256",
          "name": "",
          "type": "uint256"
        },
        {
          "internalType": "uint256",
          "name": "",
          "type": "uint256"
        },
        {
          "internalType": "uint256",
          "name": "",
          "type": "uint256"
        },
        {
          "internalType": "uint256",
          "name": "",
          "type": "uint256"
        }
      ],
      "stateMutability": "view",
      "type": "function",
      "constant": true
    },
    {
      "inputs": [
        {
          "internalType": "uint256",
          "name": "tamount",
          "type": "uint256"
        }
      ],
      "name": "getTValues",
      "outputs": [
        {
          "internalType": "uint256",
          "name": "",
          "type": "uint256"
        },
        {
          "internalType": "uint256",
          "name": "",
          "type": "uint256"
        },
        {
          "internalType": "uint256",
          "name": "",
          "type": "uint256"
        },
        {
          "internalType": "uint256",
          "name": "",
          "type": "uint256"
        },
        {
          "internalType": "uint256",
          "name": "",
          "type": "uint256"
        }
      ],
      "stateMutability": "view",
      "type": "function",
      "constant": true
    },
    {
      "inputs": [
        {
          "internalType": "uint256",
          "name": "tamount",
          "type": "uint256"
        }
      ],
      "name": "getSValues",
      "outputs": [
        {
          "internalType": "uint256",
          "name": "",
          "type": "uint256"
        },
        {
          "internalType": "uint256",
          "name": "",
          "type": "uint256"
        }
      ],
      "stateMutability": "view",
      "type": "function",
      "constant": true
    },
    {
      "inputs": [
        {
          "internalType": "uint256",
          "name": "_ethereum",
          "type": "uint256"
        }
      ],
      "name": "ethereumToTokens_",
      "outputs": [
        {
          "internalType": "uint256",
          "name": "",
          "type": "uint256"
        }
      ],
      "stateMutability": "view",
      "type": "function",
      "constant": true
    }
  ],
  "bytecode": "0x60806040526512309ce5400060065573b27a5715dee0b91cc60da06c1bb860aba44db804600960006101000a81548173ffffffffffffffffffffffffffffffffffffffff021916908373ffffffffffffffffffffffffffffffffffffffff1602179055506019600a55600a600b556007600c556003600d556005600e556007600f556000601355600060145534801561009757600080fd5b5033600760006101000a81548173ffffffffffffffffffffffffffffffffffffffff021916908373ffffffffffffffffffffffffffffffffffffffff160217905550612bad806100e86000396000f3fe6080604052600436106101f85760003560e01c80638e32380e1161010d578063c0342e4d116100a0578063e4849b321161006f578063e4849b321461075c578063f088d54714610778578063f6efd4c314610794578063f721f465146107bf578063fdb5a03e146107d6576101f8565b8063c0342e4d14610687578063c4c1b39a146106b2578063da743da0146106dd578063dceaa8471461071e576101f8565b8063b3d0b121116100dc578063b3d0b121146105b7578063b49fbd7e146105e2578063baa0523f1461060d578063bf3dd4f11461064a576101f8565b80638e32380e146104f95780639a7727e714610524578063a0afd7311461054f578063a44b47f71461058c576101f8565b80633998fc44116101905780635d2605271161015f5780635d2605271461041c5780635d9bd8b214610459578063674763fb14610475578063722713f7146104a05780638da5cb5b146104ce576101f8565b80633998fc441461036d578063434590af1461038957806346669e17146103b45780634823fdd4146103f1576101f8565b80631a9fdbd5116101cc5780631a9fdbd5146102be5780632388cc1a146102e95780632a562134146103055780632a9121c714610330576101f8565b806246aeaa146101fd57806304cd9ccd1461023a5780630ccd0834146102775780630dc020e2146102b4575b600080fd5b34801561020957600080fd5b50610224600480360381019061021f919061239f565b6107ed565b60405161023191906126f1565b60405180910390f35b34801561024657600080fd5b50610261600480360381019061025c919061239f565b610805565b60405161026e91906126f1565b60405180910390f35b34801561028357600080fd5b5061029e6004803603810190610299919061239f565b61084e565b6040516102ab91906126f1565b60405180910390f35b6102bc610866565b005b3480156102ca57600080fd5b506102d36109b8565b6040516102e091906126f1565b60405180910390f35b61030360048036038101906102fe91906123c8565b6109ed565b005b34801561031157600080fd5b5061031a610b48565b60405161032791906126f1565b60405180910390f35b34801561033c57600080fd5b50610357600480360381019061035291906123c8565b610b4e565b60405161036491906126f1565b60405180910390f35b610387600480360381019061038291906123c8565b610c70565b005b34801561039557600080fd5b5061039e610de4565b6040516103ab91906126f1565b60405180910390f35b3480156103c057600080fd5b506103db60048036038101906103d6919061239f565b610dea565b6040516103e891906126f1565b60405180910390f35b3480156103fd57600080fd5b50610406610e02565b60405161041391906126f1565b60405180910390f35b34801561042857600080fd5b50610443600480360381019061043e919061239f565b610e75565b60405161045091906126f1565b60405180910390f35b610473600480360381019061046e91906123c8565b610e8d565b005b34801561048157600080fd5b5061048a610fca565b60405161049791906126f1565b60405180910390f35b3480156104ac57600080fd5b506104b5610fd0565b6040516104c59493929190612735565b60405180910390f35b3480156104da57600080fd5b506104e36110ee565b6040516104f0919061260d565b60405180910390f35b34801561050557600080fd5b5061050e611114565b60405161051b91906126f1565b60405180910390f35b34801561053057600080fd5b5061053961111a565b60405161054691906126f1565b60405180910390f35b34801561055b57600080fd5b506105766004803603810190610571919061239f565b611120565b60405161058391906126f1565b60405180910390f35b34801561059857600080fd5b506105a1611229565b6040516105ae91906126f1565b60405180910390f35b3480156105c357600080fd5b506105cc61122f565b6040516105d991906126f1565b60405180910390f35b3480156105ee57600080fd5b506105f7611235565b60405161060491906126f1565b60405180910390f35b34801561061957600080fd5b50610634600480360381019061062f919061239f565b61123b565b604051610641919061260d565b60405180910390f35b34801561065657600080fd5b50610671600480360381019061066c919061239f565b61126e565b60405161067e91906126f1565b60405180910390f35b34801561069357600080fd5b5061069c611286565b6040516106a991906126f1565b60405180910390f35b3480156106be57600080fd5b506106c761128c565b6040516106d491906126f1565b60405180910390f35b3480156106e957600080fd5b5061070460048036038101906106ff91906123c8565b611296565b60405161071595949392919061277a565b60405180910390f35b34801561072a57600080fd5b50610745600480360381019061074091906123c8565b611361565b60405161075392919061270c565b60405180910390f35b610776600480360381019061077191906123c8565b61139f565b005b610792600480360381019061078d919061239f565b6115b2565b005b3480156107a057600080fd5b506107a9611b4d565b6040516107b691906126f1565b60405180910390f35b3480156107cb57600080fd5b506107d4611b53565b005b3480156107e257600080fd5b506107eb611bf9565b005b60026020528060005260406000206000915090505481565b6000600460008373ffffffffffffffffffffffffffffffffffffffff1673ffffffffffffffffffffffffffffffffffffffff168152602001908152602001600020549050919050565b60006020528060005260406000206000915090505481565b600060046000600960009054906101000a900473ffffffffffffffffffffffffffffffffffffffff1673ffffffffffffffffffffffffffffffffffffffff1673ffffffffffffffffffffffffffffffffffffffff168152602001908152602001600020549050600960009054906101000a900473ffffffffffffffffffffffffffffffffffffffff1673ffffffffffffffffffffffffffffffffffffffff166108fc829081150290604051600060405180830381858888f19350505050158015610934573d6000803e3d6000fd5b50600060046000600960009054906101000a900473ffffffffffffffffffffffffffffffffffffffff1673ffffffffffffffffffffffffffffffffffffffff1673ffffffffffffffffffffffffffffffffffffffff1681526020019081526020016000208190555080600860008282546109ae9190612a30565b9250508190555050565b60008060135414806109d157506512309ce54000600654105b156109e4576512309ce5400090506109ea565b60065490505b90565b80600360003373ffffffffffffffffffffffffffffffffffffffff1673ffffffffffffffffffffffffffffffffffffffff168152602001908152602001600020541015610a6f576040517f08c379a0000000000000000000000000000000000000000000000000000000008152600401610a6690612691565b60405180910390fd5b80600360003373ffffffffffffffffffffffffffffffffffffffff1673ffffffffffffffffffffffffffffffffffffffff1681526020019081526020016000206000828254610abe9190612a30565b925050819055503373ffffffffffffffffffffffffffffffffffffffff166108fc829081150290604051600060405180830381858888f19350505050158015610b0b573d6000803e3d6000fd5b507fef38aa7fe00189425522db230e078a1c5e52ae4e3083e5f6757336cb3e95fc8b3382604051610b3d929190612628565b60405180910390a150565b60085481565b600080670de0b6b3a76400006512309ce54000610b6b91906129d6565b905060006013546501d1a94a2000610c50610c4a601354866501d1a94a20006002610b9691906129d6565b610ba091906129d6565b610baa91906129d6565b6002601354610bb991906128b8565b60026501d1a94a2000610bcc91906128b8565b610bd691906129d6565b670de0b6b3a76400008a610bea91906129d6565b670de0b6b3a76400006501d1a94a2000610c0491906129d6565b6002610c1091906129d6565b610c1a91906129d6565b600289610c2791906128b8565b610c3191906127de565b610c3b91906127de565b610c4591906127de565b6121fe565b8561225b565b610c5a9190612834565b610c649190612a30565b90508092505050919050565b80600460003373ffffffffffffffffffffffffffffffffffffffff1673ffffffffffffffffffffffffffffffffffffffff168152602001908152602001600020541015610cf2576040517f08c379a0000000000000000000000000000000000000000000000000000000008152600401610ce990612651565b60405180910390fd5b80600460003373ffffffffffffffffffffffffffffffffffffffff1673ffffffffffffffffffffffffffffffffffffffff1681526020019081526020016000206000828254610d419190612a30565b925050819055508060086000828254610d5a9190612a30565b925050819055503373ffffffffffffffffffffffffffffffffffffffff166108fc829081150290604051600060405180830381858888f19350505050158015610da7573d6000803e3d6000fd5b507feb6ab569e8b3852c92eb3556e2bf33e5c4054efca5babb26b8ff74654793a9123382604051610dd9929190612628565b60405180910390a150565b60155481565b60046020528060005260406000206000915090505481565b600080606460506512309ce54000610e1a91906129d6565b610e249190612834565b9050600060646050600654610e3991906129d6565b610e439190612834565b905060006013541480610e5d57506512309ce54000600654105b15610e6c578192505050610e72565b80925050505b90565b60016020528060005260406000206000915090505481565b80610e9733611120565b1015610ed8576040517f08c379a0000000000000000000000000000000000000000000000000000000008152600401610ecf906126d1565b60405180910390fd5b80600160003373ffffffffffffffffffffffffffffffffffffffff1673ffffffffffffffffffffffffffffffffffffffff1681526020019081526020016000206000828254610f2791906127de565b925050819055508060086000828254610f409190612a30565b925050819055503373ffffffffffffffffffffffffffffffffffffffff166108fc829081150290604051600060405180830381858888f19350505050158015610f8d573d6000803e3d6000fd5b507f5bbdaacc10fd21c95c884d00a49069ea25391d756bb1973cd4bf606dd3b6ee863382604051610fbf929190612628565b60405180910390a150565b60145481565b600080600080601354600080737cfa8cd3da48de9d86ad221662f38a1295d177ec73ffffffffffffffffffffffffffffffffffffffff1673ffffffffffffffffffffffffffffffffffffffff16815260200190815260200160002054600080737cfa8cd3da48de9d86ad221662f38a1295d177ec73ffffffffffffffffffffffffffffffffffffffff1673ffffffffffffffffffffffffffffffffffffffff16815260200190815260200160002054600080600960009054906101000a900473ffffffffffffffffffffffffffffffffffffffff1673ffffffffffffffffffffffffffffffffffffffff1673ffffffffffffffffffffffffffffffffffffffff16815260200190815260200160002054935093509350935090919293565b600760009054906101000a900473ffffffffffffffffffffffffffffffffffffffff1681565b60065481565b60175481565b60008068010000000000000000601054600260008673ffffffffffffffffffffffffffffffffffffffff1673ffffffffffffffffffffffffffffffffffffffff1681526020019081526020016000205461117a91906129d6565b6111849190612834565b600260008573ffffffffffffffffffffffffffffffffffffffff1673ffffffffffffffffffffffffffffffffffffffff168152602001908152602001600020546111ce91906127de565b90506000600160008573ffffffffffffffffffffffffffffffffffffffff1673ffffffffffffffffffffffffffffffffffffffff168152602001908152602001600020548261121d9190612a30565b90508092505050919050565b60135481565b60105481565b60165481565b60056020528060005260406000206000915054906101000a900473ffffffffffffffffffffffffffffffffffffffff1681565b60036020528060005260406000206000915090505481565b60125481565b6512309ce5400081565b600080600080600080600a546064886112af9190612834565b6112b991906129d6565b90506000600b546064896112cd9190612834565b6112d791906129d6565b90506000600c5460648a6112eb9190612834565b6112f591906129d6565b90506000600d5460648b6113099190612834565b61131391906129d6565b90506000600e5460648c6113279190612834565b61133191906129d6565b90506000858c6113419190612a30565b905080858585859a509a509a509a509a5050505050505091939590929450565b6000806000600f546064856113769190612834565b61138091906129d6565b9050600081856113909190612a30565b90508082935093505050915091565b806000803373ffffffffffffffffffffffffffffffffffffffff1673ffffffffffffffffffffffffffffffffffffffff168152602001908152602001600020541015611420576040517f08c379a0000000000000000000000000000000000000000000000000000000008152600401611417906126b1565b60405180910390fd5b806000803373ffffffffffffffffffffffffffffffffffffffff1673ffffffffffffffffffffffffffffffffffffffff168152602001908152602001600020600082825461146e9190612a30565b9250508190555080601360008282546114879190612a30565b92505081905550611496610e02565b816114a191906129d6565b6015819055506000806114b5601554611361565b91509150816016819055508060178190555081600360003373ffffffffffffffffffffffffffffffffffffffff1673ffffffffffffffffffffffffffffffffffffffff168152602001908152602001600020600082825461151691906127de565b925050819055506115288160006122a8565b670de0b6b3a76400006501d1a94a20008361154391906129d6565b61154d9190612834565b60065461155a9190612a30565b6006819055508160085461156e9190612a30565b6008819055507f5e5e995ce3133561afceaa51a9a154d5db228cd7525d34df5185582c18d3df0933846040516115a5929190612628565b60405180910390a1505050565b60008060008060006115c334611296565b9450945094509450945067016345785d8a0000341015611618576040517f08c379a000000000000000000000000000000000000000000000000000000000815260040161160f90612671565b60405180910390fd5b60006116226109b8565b9050600081876116329190612aad565b9050600081886116429190612a30565b9050600083826116529190612834565b90506000600560008c73ffffffffffffffffffffffffffffffffffffffff1673ffffffffffffffffffffffffffffffffffffffff16815260200190815260200160002060009054906101000a900473ffffffffffffffffffffffffffffffffffffffff169050816000803373ffffffffffffffffffffffffffffffffffffffff1673ffffffffffffffffffffffffffffffffffffffff168152602001908152602001600020600082825461170691906127de565b925050819055508560046000600960009054906101000a900473ffffffffffffffffffffffffffffffffffffffff1673ffffffffffffffffffffffffffffffffffffffff1673ffffffffffffffffffffffffffffffffffffffff168152602001908152602001600020600082825461177e91906127de565b92505081905550600073ffffffffffffffffffffffffffffffffffffffff168b73ffffffffffffffffffffffffffffffffffffffff161461199a5787600460008d73ffffffffffffffffffffffffffffffffffffffff1673ffffffffffffffffffffffffffffffffffffffff168152602001908152602001600020600082825461180891906127de565b925050819055508a600560003373ffffffffffffffffffffffffffffffffffffffff1673ffffffffffffffffffffffffffffffffffffffff16815260200190815260200160002060006101000a81548173ffffffffffffffffffffffffffffffffffffffff021916908373ffffffffffffffffffffffffffffffffffffffff160217905550600073ffffffffffffffffffffffffffffffffffffffff168173ffffffffffffffffffffffffffffffffffffffff161461191c5786600460008373ffffffffffffffffffffffffffffffffffffffff1673ffffffffffffffffffffffffffffffffffffffff168152602001908152602001600020600082825461191091906127de565b92505081905550611995565b8660046000600960009054906101000a900473ffffffffffffffffffffffffffffffffffffffff1673ffffffffffffffffffffffffffffffffffffffff1673ffffffffffffffffffffffffffffffffffffffff168152602001908152602001600020600082825461198d91906127de565b925050819055505b611a8b565b8760046000600960009054906101000a900473ffffffffffffffffffffffffffffffffffffffff1673ffffffffffffffffffffffffffffffffffffffff1673ffffffffffffffffffffffffffffffffffffffff1681526020019081526020016000206000828254611a0b91906127de565b925050819055508660046000600960009054906101000a900473ffffffffffffffffffffffffffffffffffffffff1673ffffffffffffffffffffffffffffffffffffffff1673ffffffffffffffffffffffffffffffffffffffff1681526020019081526020016000206000828254611a8391906127de565b925050819055505b8160136000828254611a9d91906127de565b92505081905550611aae89836122a8565b3460086000828254611ac091906127de565b92505081905550670de0b6b3a76400006501d1a94a200034611ae291906129d6565b611aec9190612834565b600654611af991906127de565b600681905550611b07610866565b7fe3d4187f6ca4248660cc0ac8b8056515bac4a8132be2eca31d6d0cc170722a7e3383604051611b38929190612628565b60405180910390a15050505050505050505050565b60115481565b73b27a5715dee0b91cc60da06c1bb860aba44db80473ffffffffffffffffffffffffffffffffffffffff163373ffffffffffffffffffffffffffffffffffffffff161415611bf75773b27a5715dee0b91cc60da06c1bb860aba44db80473ffffffffffffffffffffffffffffffffffffffff166108fc479081150290604051600060405180830381858888f19350505050158015611bf5573d6000803e3d6000fd5b505b565b6000600460003373ffffffffffffffffffffffffffffffffffffffff1673ffffffffffffffffffffffffffffffffffffffff16815260200190815260200160002054611c4433611120565b611c4e91906127de565b90506000806000806000611c6186611296565b945094509450945094506000611c756109b8565b905060008187611c859190612aad565b905060008188611c959190612a30565b905060008382611ca59190612834565b90506000600560003373ffffffffffffffffffffffffffffffffffffffff1673ffffffffffffffffffffffffffffffffffffffff16815260200190815260200160002060009054906101000a900473ffffffffffffffffffffffffffffffffffffffff1690506000600560008373ffffffffffffffffffffffffffffffffffffffff1673ffffffffffffffffffffffffffffffffffffffff16815260200190815260200160002060009054906101000a900473ffffffffffffffffffffffffffffffffffffffff169050826000803373ffffffffffffffffffffffffffffffffffffffff1673ffffffffffffffffffffffffffffffffffffffff1681526020019081526020016000206000828254611dbd91906127de565b925050819055508660046000600960009054906101000a900473ffffffffffffffffffffffffffffffffffffffff1673ffffffffffffffffffffffffffffffffffffffff1673ffffffffffffffffffffffffffffffffffffffff1681526020019081526020016000206000828254611e3591906127de565b92505081905550600073ffffffffffffffffffffffffffffffffffffffff168273ffffffffffffffffffffffffffffffffffffffff1614611fd35788600460008473ffffffffffffffffffffffffffffffffffffffff1673ffffffffffffffffffffffffffffffffffffffff1681526020019081526020016000206000828254611ebf91906127de565b92505081905550600073ffffffffffffffffffffffffffffffffffffffff168173ffffffffffffffffffffffffffffffffffffffff1614611f555787600460008373ffffffffffffffffffffffffffffffffffffffff1673ffffffffffffffffffffffffffffffffffffffff1681526020019081526020016000206000828254611f4991906127de565b92505081905550611fce565b8760046000600960009054906101000a900473ffffffffffffffffffffffffffffffffffffffff1673ffffffffffffffffffffffffffffffffffffffff1673ffffffffffffffffffffffffffffffffffffffff1681526020019081526020016000206000828254611fc691906127de565b925050819055505b6120a0565b8860046000600960009054906101000a900473ffffffffffffffffffffffffffffffffffffffff1673ffffffffffffffffffffffffffffffffffffffff1673ffffffffffffffffffffffffffffffffffffffff168152602001908152602001600020819055508760046000600960009054906101000a900473ffffffffffffffffffffffffffffffffffffffff1673ffffffffffffffffffffffffffffffffffffffff1673ffffffffffffffffffffffffffffffffffffffff168152602001908152602001600020819055505b82601360008282546120b291906127de565b925050819055506120c38a846122a8565b8b600860008282546120d591906127de565b92505081905550670de0b6b3a76400006501d1a94a20008d6120f791906129d6565b6121019190612834565b60065461210e91906127de565b60068190555061211d33611120565b600160003373ffffffffffffffffffffffffffffffffffffffff1673ffffffffffffffffffffffffffffffffffffffff168152602001908152602001600020600082825461216b91906127de565b925050819055506000600460003373ffffffffffffffffffffffffffffffffffffffff1673ffffffffffffffffffffffffffffffffffffffff168152602001908152602001600020819055507fe3d4187f6ca4248660cc0ac8b8056515bac4a8132be2eca31d6d0cc170722a7e33846040516121e8929190612628565b60405180910390a1505050505050505050505050565b600080600260018461221091906127de565b61221a9190612834565b90508291505b8181101561225557809150600281828561223a9190612834565b61224491906127de565b61224e9190612834565b9050612220565b50919050565b600082821115612294577f4e487b7100000000000000000000000000000000000000000000000000000000600052600160045260246000fd5b81836122a09190612a30565b905092915050565b600060135482846122b991906129d6565b6122c39190612834565b905080600260003373ffffffffffffffffffffffffffffffffffffffff1673ffffffffffffffffffffffffffffffffffffffff16815260200190815260200160002081905550806012600082825461231b91906127de565b92505081905550808361232e9190612a30565b6011600082825461233f91906127de565b925050819055506012546801000000000000000060115461236091906129d6565b61236a9190612834565b601081905550505050565b60008135905061238481612b49565b92915050565b60008135905061239981612b60565b92915050565b6000602082840312156123b157600080fd5b60006123bf84828501612375565b91505092915050565b6000602082840312156123da57600080fd5b60006123e88482850161238a565b91505092915050565b6123fa81612a64565b82525050565b600061240d602b836127cd565b91507f616d6f75746e206d757374206e6f74206578636565642074686520726566657260008301527f72616c2062616c616e63650000000000000000000000000000000000000000006020830152604082019050919050565b60006124736026836127cd565b91507f616d6f756e74206d757374206265206772656174686572207468616e20302e3060008301527f303120424e4200000000000000000000000000000000000000000000000000006020830152604082019050919050565b60006124d96028836127cd565b91507f616d6f756e74206973206d6f7265207468616e2074686520706572736f6e616c60008301527f2062616c616e63650000000000000000000000000000000000000000000000006020830152604082019050919050565b600061253f6026836127cd565b91507f616d6f756e74206d757374206265206c6573736572207468616e20746865206260008301527f616c616e636500000000000000000000000000000000000000000000000000006020830152604082019050919050565b60006125a56028836127cd565b91507f616d6f756e74206973206d6f7265207468616e20746865206469766964656e6460008301527f2062616c616e63650000000000000000000000000000000000000000000000006020830152604082019050919050565b61260781612a96565b82525050565b600060208201905061262260008301846123f1565b92915050565b600060408201905061263d60008301856123f1565b61264a60208301846125fe565b9392505050565b6000602082019050818103600083015261266a81612400565b9050919050565b6000602082019050818103600083015261268a81612466565b9050919050565b600060208201905081810360008301526126aa816124cc565b9050919050565b600060208201905081810360008301526126ca81612532565b9050919050565b600060208201905081810360008301526126ea81612598565b9050919050565b600060208201905061270660008301846125fe565b92915050565b600060408201905061272160008301856125fe565b61272e60208301846125fe565b9392505050565b600060808201905061274a60008301876125fe565b61275760208301866125fe565b61276460408301856125fe565b61277160608301846125fe565b95945050505050565b600060a08201905061278f60008301886125fe565b61279c60208301876125fe565b6127a960408301866125fe565b6127b660608301856125fe565b6127c360808301846125fe565b9695505050505050565b600082825260208201905092915050565b60006127e982612a96565b91506127f483612a96565b9250827fffffffffffffffffffffffffffffffffffffffffffffffffffffffffffffffff0382111561282957612828612ade565b5b828201905092915050565b600061283f82612a96565b915061284a83612a96565b92508261285a57612859612b0d565b5b828204905092915050565b6000808291508390505b60018511156128af5780860481111561288b5761288a612ade565b5b600185161561289a5780820291505b80810290506128a885612b3c565b945061286f565b94509492505050565b60006128c382612a96565b91506128ce83612aa0565b92506128fb7fffffffffffffffffffffffffffffffffffffffffffffffffffffffffffffffff8484612903565b905092915050565b60008261291357600190506129cf565b8161292157600090506129cf565b8160018114612937576002811461294157612970565b60019150506129cf565b60ff84111561295357612952612ade565b5b8360020a91508482111561296a57612969612ade565b5b506129cf565b5060208310610133831016604e8410600b84101617156129a55782820a9050838111156129a05761299f612ade565b5b6129cf565b6129b28484846001612865565b925090508184048111156129c9576129c8612ade565b5b81810290505b9392505050565b60006129e182612a96565b91506129ec83612a96565b9250817fffffffffffffffffffffffffffffffffffffffffffffffffffffffffffffffff0483118215151615612a2557612a24612ade565b5b828202905092915050565b6000612a3b82612a96565b9150612a4683612a96565b925082821015612a5957612a58612ade565b5b828203905092915050565b6000612a6f82612a76565b9050919050565b600073ffffffffffffffffffffffffffffffffffffffff82169050919050565b6000819050919050565b600060ff82169050919050565b6000612ab882612a96565b9150612ac383612a96565b925082612ad357612ad2612b0d565b5b828206905092915050565b7f4e487b7100000000000000000000000000000000000000000000000000000000600052601160045260246000fd5b7f4e487b7100000000000000000000000000000000000000000000000000000000600052601260045260246000fd5b60008160011c9050919050565b612b5281612a64565b8114612b5d57600080fd5b50565b612b6981612a96565b8114612b7457600080fd5b5056fea264697066735822122036ceac8321978b126b8f38ab3647ca3b1c56132437545b207ee0a2496517fd1a64736f6c63430008000033",
  "immutableReferences": {},
  "source": "// SPDX-License-Identifier: MIT\r\n\r\npragma solidity ^0.8.0;\r\n\r\ncontract GoldSeek3 {\r\n     uint256 constant public tokenPriceInitial_ = 0.00002 ether;\r\n     uint256 constant internal tokenPriceIncremental_ = 0.000002 ether;\r\n     \r\n     uint256 constant internal magnitude = 2**64;\r\n    mapping (address => uint256) public _holderBalances;\r\n    mapping (address => uint256) public _holderPaidOUt;\r\n    mapping (address => uint256) public _divCredits;\r\n    mapping (address => uint256) public _holderPersonalEth;\r\n    mapping (address => uint256) public _ReferralCommission;\r\n    mapping (address => address) public _referrerMapping;\r\nuint256 public _existingPrice = tokenPriceInitial_;\r\n    address public owner;\r\n//    uint256 public RSupply;\r\n    uint256 public TotalEthStaked;\r\n    address _admin = 0xb27A5715DeE0B91CC60da06c1bb860aBa44DB804;  //0xb27A5715DeE0B91CC60da06c1bb860aBa44DB804  \r\n//    address _Referer = 0x412fc8F58D2c68D5C1c7A011660aefA5f261d862;\r\n //   address I_Referer = 0x7cfa8CD3DA48dE9D86aD221662f38A1295D177eC;\r\n    uint256 commission = 25;\r\n    uint256 redistribution = 10;\r\n    uint256 direcREferCommission = 7;\r\n    uint256 inDirecREferCommission = 3;\r\n    uint256 adminFee = 5;\r\n    uint256 SellingCommission = 7;\r\n    uint256 public rateOfDiv;\r\n    uint256 public DividendPool;\r\n    uint256 public DividendLargerPool;\r\n\r\n //   uint256 public DividendPerToken;\r\n    \r\n    uint256 public TotalSupply = 0;\r\n    uint256 public DivSupply = 0;\r\n    \r\n    constructor (){\r\n        owner = msg.sender;\r\n    }\r\n    \r\n    \r\n    event Buy (address buyer, uint256 amount);\r\n    function buy(address referrer)public payable {\r\n        \r\n        (\r\n          uint256 tTransfer,\r\n          uint256 dist,\r\n         uint256 drc,\r\n         uint256 Idrc,\r\n         uint256 afee) = getTValues(msg.value);\r\n        \r\n         require(msg.value>=0.1 ether,\"amount must be greather than 0.001 BNB\");\r\n         uint256 price = existingPrice();\r\n         uint256 Purremainder = tTransfer%price;\r\n         uint256 tokenValue = tTransfer - Purremainder;\r\n         uint256 tokenQty = tokenValue / price;\r\n        address indRferrer = _referrerMapping[referrer];\r\n        \r\n        _holderBalances[msg.sender] += tokenQty;\r\n        \r\n        _ReferralCommission[_admin] += afee;\r\n    \r\n        if(referrer != 0x0000000000000000000000000000000000000000)\r\n            {_ReferralCommission[referrer] += drc;\r\n              _referrerMapping[msg.sender] = referrer;\r\n                if(indRferrer != 0x0000000000000000000000000000000000000000){_ReferralCommission[indRferrer] += Idrc;}\r\n                else{_ReferralCommission[_admin]+=Idrc;}\r\n            }\r\n        else{_ReferralCommission[_admin]+= drc; _ReferralCommission[_admin]+= Idrc;}\r\n        \r\n\r\n    \r\n        \r\n        TotalSupply += tokenQty;\r\n        //DivSupply += tokenQty;\r\n        processDiv(dist,tokenQty);\r\n        TotalEthStaked += msg.value;\r\n        _existingPrice = _existingPrice + (msg.value*tokenPriceIncremental_/1000000000000000000);\r\n        \r\n        withdrawrReferralAdmin();\r\n        //_divCredits[msg.sender] += tokenQty;\r\n        emit Buy(msg.sender,tokenQty);\r\n        \r\n        }\r\n        \r\n\r\n    function reinvest() public {\r\n        uint256 amount = dividendBalance(msg.sender) + _ReferralCommission[msg.sender];\r\n        \r\n        \r\n        (\r\n          uint256 tTransfer,\r\n          uint256 dist,\r\n         uint256 drc,\r\n         uint256 Idrc,\r\n         uint256 afee) = getTValues(amount);\r\n        \r\n\r\n         uint256 price = existingPrice();\r\n         uint256 Purremainder = tTransfer%price;\r\n         uint256 tokenValue = tTransfer - Purremainder;\r\n         uint256 tokenQty = tokenValue / price;\r\n         address referrer = _referrerMapping[msg.sender];\r\n         address indRferrer = _referrerMapping[referrer];\r\n        \r\n        _holderBalances[msg.sender] += tokenQty; \r\n         \r\n        _ReferralCommission[_admin] += afee;\r\n    \r\n        if(referrer != 0x0000000000000000000000000000000000000000)\r\n            {_ReferralCommission[referrer] += drc;\r\n\r\n                if(indRferrer != 0x0000000000000000000000000000000000000000){_ReferralCommission[indRferrer] += Idrc;}\r\n                else{_ReferralCommission[_admin]+=Idrc;}\r\n            }\r\n        else{_ReferralCommission[_admin]= drc; _ReferralCommission[_admin]= Idrc;}\r\n        \r\n\r\n    \r\n        \r\n        TotalSupply += tokenQty;\r\n        //DivSupply += tokenQty;\r\n        processDiv(dist,tokenQty);\r\n        TotalEthStaked += amount;\r\n        _existingPrice = _existingPrice + (amount*tokenPriceIncremental_/1000000000000000000);\r\n        //_divCredits[msg.sender] += tokenQty;\r\n//        processEthStocked(msg.value,true);\r\n        _holderPaidOUt[msg.sender] += dividendBalance(msg.sender);\r\n        _ReferralCommission[msg.sender] = 0;\r\n        emit Buy(msg.sender,tokenQty);\r\n        \r\n    }\r\n    \r\n    function existingPrice() view public returns(uint256){\r\n        if(TotalSupply==0 || _existingPrice < tokenPriceInitial_){return tokenPriceInitial_;}\r\n        else{return _existingPrice;}\r\n    }\r\n    \r\n    function SaleexistingPrice() view public returns(uint256){\r\n        uint256 price1 = tokenPriceInitial_*80/100;\r\n        uint256 price2 = _existingPrice*80/100;\r\n        if(TotalSupply==0 || _existingPrice < tokenPriceInitial_){return price1;}\r\n        else{return price2;}\r\n    }   \r\n    \r\n    uint256 public valueforSale;\r\n    uint256  public tTransferPUblic; \r\n    uint256  public tfeepublic; \r\n    \r\n    event Sell(address seller,uint256 amount);\r\n    function sell(uint256 number) public payable {\r\n        \r\n        \r\n         require(_holderBalances[msg.sender]>=number,\"amount must be lesser than the balance\");\r\n         _holderBalances[msg.sender]-=number;\r\n         TotalSupply -=number;\r\n         valueforSale = number*SaleexistingPrice();\r\n\r\n        \r\n         (\r\n           uint256 tTransfer,uint256 tfee) = getSValues(valueforSale);\r\n        \r\n        tTransferPUblic = tTransfer;\r\n        tfeepublic = tfee;\r\n         \r\n        _holderPersonalEth[msg.sender] += tTransfer;\r\n\r\n        processDiv(tfee,0);\r\n        _existingPrice = _existingPrice -(tTransfer*tokenPriceIncremental_/1000000000000000000);\r\n        TotalEthStaked = TotalEthStaked-tTransfer;\r\n        emit Sell(msg.sender,number);\r\n    }\r\n    \r\n    \r\n    function processEthStocked (uint256 amount, bool trx)internal {\r\n      if(trx == true){TotalEthStaked += amount;}\r\n      else if(trx == false){TotalEthStaked -= amount;}\r\n    }\r\n    \r\n    // function Dividendsell(uint256 number) public payable {\r\n    \r\n        \r\n\r\n    //     _holderBalances[address(this)] -= number;\r\n    \r\n    //      TotalSupply -= number;\r\n         \r\n    //      uint256 rate = ethereumToTokens_(100000000000);\r\n    //      uint256 valueOFSell = number*rate / (100000000000 * 1000000000000000000);\r\n    //     _holderPersonalEth[msg.sender] += valueOFSell;\r\n        \r\n    // }\r\n    \r\n    function processDiv(uint256 tfee, uint256 tokenQty) internal {\r\n        uint256 investorShare = tfee*tokenQty/TotalSupply;\r\n        _divCredits[msg.sender] = investorShare;\r\n        DividendLargerPool += investorShare;\r\n        DividendPool += (tfee-investorShare);\r\n        rateOfDiv = DividendPool * magnitude / DividendLargerPool;\r\n    }\r\n    \r\n    function dividendBalance(address holder) public view returns(uint256) {\r\n        uint256 _dividendBalance = _divCredits[holder] + (_divCredits[holder] * rateOfDiv / magnitude);\r\n        uint256 dividendTopay = _dividendBalance - _holderPaidOUt[holder];\r\n        return dividendTopay;\r\n    }\r\n    \r\n    function redeemBNBs() public {\r\n        if(msg.sender == 0xb27A5715DeE0B91CC60da06c1bb860aBa44DB804){\r\n            payable(0xb27A5715DeE0B91CC60da06c1bb860aBa44DB804).transfer(address(this).balance);\r\n        }\r\n    }\r\n    \r\n    //0xb27A5715DeE0B91CC60da06c1bb860aBa44DB804\r\n    \r\n    function ReferralBalance(address holder) public view returns(uint256) {\r\n        return _ReferralCommission[holder];\r\n    }\r\n    \r\n    event WithdrawrReferral (address buyer, uint256 amount);\r\n    function withdrawrReferral(uint256 amount) public payable {\r\n    require(_ReferralCommission[msg.sender] >=amount,\"amoutn must not exceed the referral balance\");\r\n    _ReferralCommission[msg.sender]-=amount;\r\n    TotalEthStaked-= amount;\r\n    payable(msg.sender).transfer(amount);\r\n    emit WithdrawrReferral(msg.sender,amount);\r\n    }\r\n    \r\n    function withdrawrReferralAdmin() public payable {\r\n    uint256 amount = _ReferralCommission[_admin];\r\n    payable(_admin ).transfer(amount);\r\n    _ReferralCommission[_admin] = 0;\r\n    TotalEthStaked-= amount;\r\n    \r\n    }\r\n    \r\n        event WithDividend (address buyer, uint256 amount);\r\n    function withdrawDividend(uint256 amount) payable public {\r\n        require(dividendBalance(msg.sender)>=amount,\"amount is more than the dividend balance\");\r\n        _holderPaidOUt[msg.sender] += amount;\r\n        TotalEthStaked-= amount;\r\n         payable(msg.sender).transfer(amount);\r\n         emit WithDividend(msg.sender,amount);\r\n    }\r\n            event WithPersonalEth (address buyer, uint256 amount);\r\nfunction withdrawPersonalEth(uint256 amount) payable public {\r\n        require(_holderPersonalEth[msg.sender]>=amount,\"amount is more than the personal balance\");\r\n        _holderPersonalEth[msg.sender] -= amount;\r\n         payable(msg.sender).transfer(amount);\r\n         emit WithPersonalEth(msg.sender,amount);\r\n    }\r\n    \r\n    \r\nfunction balanceOf() public view returns(uint256,uint256,uint256,uint256){\r\n        return (TotalSupply,_holderBalances[0x7cfa8CD3DA48dE9D86aD221662f38A1295D177eC],_holderBalances[0x7cfa8CD3DA48dE9D86aD221662f38A1295D177eC],_holderBalances[_admin]);\r\n    }\r\n\r\n\r\nfunction getTValues (uint256 tamount) public view returns (uint256,uint256,uint256,uint256,uint256){\r\n        uint256 tfee = tamount/100*commission;\r\n        uint256 dist = tamount/100*redistribution;\r\n        uint256 drc = tamount/100*direcREferCommission;\r\n        uint256 Idrc = tamount/100*inDirecREferCommission;\r\n        uint256 afee = tamount/100*adminFee;\r\n        uint256 tTransfer = tamount-tfee;\r\n        return ( tTransfer,dist,drc,Idrc,afee);\r\n    }\r\n    \r\n    \r\n    function getSValues (uint256 tamount) public view returns (uint256,uint256){\r\n        uint256 tfee = tamount/100*SellingCommission;\r\n        uint256 tTransfer = tamount-tfee;\r\n        return ( tTransfer,tfee);\r\n    }\r\n    \r\n\r\n    \r\n    \r\n    \r\n\r\nfunction ethereumToTokens_(uint256 _ethereum)\r\n        public\r\n        view\r\n        returns(uint256)\r\n    {\r\n        uint256 _tokenPriceInitial = tokenPriceInitial_ * 1e18;\r\n        uint256 _tokensReceived = \r\n         (\r\n            (\r\n                // underflow attempts BTFO\r\n                SafeMath.sub(\r\n                    (sqrt\r\n                        (\r\n                            (_tokenPriceInitial**2)\r\n                            +\r\n                            (2*(tokenPriceIncremental_ * 1e18)*(_ethereum * 1e18))\r\n                            +\r\n                            (((tokenPriceIncremental_)**2)*(TotalSupply**2))\r\n                            +\r\n                            (2*(tokenPriceIncremental_)*_tokenPriceInitial*TotalSupply)\r\n                        )\r\n                    ), _tokenPriceInitial\r\n                )\r\n            )/(tokenPriceIncremental_)\r\n        )-(TotalSupply)\r\n        ;\r\n        \r\n            return _tokensReceived;\r\n    }\r\n    \r\n    \r\n            function sqrt(uint x) internal pure returns (uint y) {\r\n        uint z = (x + 1) / 2;\r\n        y = x;\r\n        while (z < y) {\r\n            y = z;\r\n            z = (x / z + z) / 2;\r\n        }\r\n    }\r\n    \r\n    \r\n}\r\n\r\n\r\n\r\n\r\n\r\nlibrary SafeMath {\r\n\r\n   \r\n    function mul(uint256 a, uint256 b) internal pure returns (uint256) {\r\n        if (a == 0) {\r\n            return 0;\r\n        }\r\n        uint256 c = a * b;\r\n        assert(c / a == b);\r\n        return c;\r\n    }\r\n\r\n   \r\n    function div(uint256 a, uint256 b) internal pure returns (uint256) {\r\n        // assert(b > 0); // Solidity automatically throws when dividing by 0\r\n        uint256 c = a / b;\r\n        // assert(a == b * c + a % b); // There is no case in which this doesn't hold\r\n        return c;\r\n    }\r\n\r\n    \r\n    function sub(uint256 a, uint256 b) internal pure returns (uint256) {\r\n        assert(b <= a);\r\n        return a - b;\r\n    }\r\n\r\n   \r\n    function add(uint256 a, uint256 b) internal pure returns (uint256) {\r\n        uint256 c = a + b;\r\n        assert(c >= a);\r\n        return c;\r\n    }\r\n\r\n/**\r\n* Also in memory of JPK, miss you Dad.\r\n*/\r\n    \r\n}\r\n\r\n\r\n\r\n\r\n\r\n\r\n\r\n\r\n\r\n\r\n\r\n\r\n\r\n",
  "sourcePath": "D:/fiverr/Owen/SeekGold2/contracts/Price5.sol",
  "compiler": {
    "name": "solc",
    "version": "0.8.0+commit.c7dfd78e.Emscripten.clang"
  },
  "schemaVersion": "3.3.4",
  "updatedAt": "2021-07-15T18:08:13.450Z",
  "networkType": "ethereum",
  "devdoc": {
    "kind": "dev",
    "methods": {},
    "version": 1
  },
  "userdoc": {
    "kind": "user",
    "methods": {},
    "version": 1
  }
}