{
  "contractName": "GoldSeek3",
  "abi": [
    {
      "inputs": [],
      "stateMutability": "nonpayable",
      "type": "constructor"
    },
    {
      "anonymous": false,
      "inputs": [
        {
          "indexed": false,
          "internalType": "address",
          "name": "buyer",
          "type": "address"
        },
        {
          "indexed": false,
          "internalType": "uint256",
          "name": "amount",
          "type": "uint256"
        }
      ],
      "name": "Buy",
      "type": "event"
    },
    {
      "anonymous": false,
      "inputs": [
        {
          "indexed": false,
          "internalType": "address",
          "name": "seller",
          "type": "address"
        },
        {
          "indexed": false,
          "internalType": "uint256",
          "name": "amount",
          "type": "uint256"
        }
      ],
      "name": "Sell",
      "type": "event"
    },
    {
      "anonymous": false,
      "inputs": [
        {
          "indexed": false,
          "internalType": "address",
          "name": "buyer",
          "type": "address"
        },
        {
          "indexed": false,
          "internalType": "uint256",
          "name": "amount",
          "type": "uint256"
        }
      ],
      "name": "WithDividend",
      "type": "event"
    },
    {
      "anonymous": false,
      "inputs": [
        {
          "indexed": false,
          "internalType": "address",
          "name": "buyer",
          "type": "address"
        },
        {
          "indexed": false,
          "internalType": "uint256",
          "name": "amount",
          "type": "uint256"
        }
      ],
      "name": "WithPersonalEth",
      "type": "event"
    },
    {
      "anonymous": false,
      "inputs": [
        {
          "indexed": false,
          "internalType": "address",
          "name": "buyer",
          "type": "address"
        },
        {
          "indexed": false,
          "internalType": "uint256",
          "name": "amount",
          "type": "uint256"
        }
      ],
      "name": "WithdrawrReferral",
      "type": "event"
    },
    {
      "inputs": [],
      "name": "EthStaked",
      "outputs": [
        {
          "internalType": "uint256",
          "name": "",
          "type": "uint256"
        }
      ],
      "stateMutability": "view",
      "type": "function"
    },
    {
      "inputs": [],
      "name": "TotalSupply",
      "outputs": [
        {
          "internalType": "uint256",
          "name": "",
          "type": "uint256"
        }
      ],
      "stateMutability": "view",
      "type": "function"
    },
    {
      "inputs": [
        {
          "internalType": "address",
          "name": "",
          "type": "address"
        }
      ],
      "name": "_DividendMapping",
      "outputs": [
        {
          "internalType": "uint256",
          "name": "",
          "type": "uint256"
        }
      ],
      "stateMutability": "view",
      "type": "function"
    },
    {
      "inputs": [
        {
          "internalType": "address",
          "name": "",
          "type": "address"
        }
      ],
      "name": "_IndexMapping",
      "outputs": [
        {
          "internalType": "uint256",
          "name": "",
          "type": "uint256"
        }
      ],
      "stateMutability": "view",
      "type": "function"
    },
    {
      "inputs": [
        {
          "internalType": "address",
          "name": "",
          "type": "address"
        }
      ],
      "name": "_ReferralCommission",
      "outputs": [
        {
          "internalType": "uint256",
          "name": "",
          "type": "uint256"
        }
      ],
      "stateMutability": "view",
      "type": "function"
    },
    {
      "inputs": [],
      "name": "_existingPrice",
      "outputs": [
        {
          "internalType": "uint256",
          "name": "",
          "type": "uint256"
        }
      ],
      "stateMutability": "view",
      "type": "function"
    },
    {
      "inputs": [
        {
          "internalType": "uint256",
          "name": "",
          "type": "uint256"
        }
      ],
      "name": "_holderArray",
      "outputs": [
        {
          "internalType": "address",
          "name": "",
          "type": "address"
        }
      ],
      "stateMutability": "view",
      "type": "function"
    },
    {
      "inputs": [
        {
          "internalType": "address",
          "name": "",
          "type": "address"
        }
      ],
      "name": "_holderBalances",
      "outputs": [
        {
          "internalType": "uint256",
          "name": "",
          "type": "uint256"
        }
      ],
      "stateMutability": "view",
      "type": "function"
    },
    {
      "inputs": [
        {
          "internalType": "address",
          "name": "",
          "type": "address"
        }
      ],
      "name": "_holderPaidOUt",
      "outputs": [
        {
          "internalType": "uint256",
          "name": "",
          "type": "uint256"
        }
      ],
      "stateMutability": "view",
      "type": "function"
    },
    {
      "inputs": [
        {
          "internalType": "address",
          "name": "",
          "type": "address"
        }
      ],
      "name": "_holderPersonalEth",
      "outputs": [
        {
          "internalType": "uint256",
          "name": "",
          "type": "uint256"
        }
      ],
      "stateMutability": "view",
      "type": "function"
    },
    {
      "inputs": [
        {
          "internalType": "address",
          "name": "",
          "type": "address"
        }
      ],
      "name": "_referrerMapping",
      "outputs": [
        {
          "internalType": "address",
          "name": "",
          "type": "address"
        }
      ],
      "stateMutability": "view",
      "type": "function"
    },
    {
      "inputs": [],
      "name": "counter",
      "outputs": [
        {
          "internalType": "uint256",
          "name": "",
          "type": "uint256"
        }
      ],
      "stateMutability": "view",
      "type": "function"
    },
    {
      "inputs": [],
      "name": "frDiv",
      "outputs": [
        {
          "internalType": "uint256",
          "name": "",
          "type": "uint256"
        }
      ],
      "stateMutability": "view",
      "type": "function"
    },
    {
      "inputs": [],
      "name": "owner",
      "outputs": [
        {
          "internalType": "address",
          "name": "",
          "type": "address"
        }
      ],
      "stateMutability": "view",
      "type": "function"
    },
    {
      "inputs": [],
      "name": "tTransferPUblic",
      "outputs": [
        {
          "internalType": "uint256",
          "name": "",
          "type": "uint256"
        }
      ],
      "stateMutability": "view",
      "type": "function"
    },
    {
      "inputs": [],
      "name": "tfeepublic",
      "outputs": [
        {
          "internalType": "uint256",
          "name": "",
          "type": "uint256"
        }
      ],
      "stateMutability": "view",
      "type": "function"
    },
    {
      "inputs": [],
      "name": "tokenPriceInitial_",
      "outputs": [
        {
          "internalType": "uint256",
          "name": "",
          "type": "uint256"
        }
      ],
      "stateMutability": "view",
      "type": "function"
    },
    {
      "inputs": [],
      "name": "valueforSale",
      "outputs": [
        {
          "internalType": "uint256",
          "name": "",
          "type": "uint256"
        }
      ],
      "stateMutability": "view",
      "type": "function"
    },
    {
      "inputs": [
        {
          "internalType": "address",
          "name": "referrer",
          "type": "address"
        }
      ],
      "name": "buy",
      "outputs": [],
      "stateMutability": "payable",
      "type": "function"
    },
    {
      "inputs": [
        {
          "internalType": "address",
          "name": "referrer",
          "type": "address"
        },
        {
          "internalType": "uint256",
          "name": "value",
          "type": "uint256"
        }
      ],
      "name": "buyInvest",
      "outputs": [],
      "stateMutability": "payable",
      "type": "function"
    },
    {
      "inputs": [],
      "name": "reinvest",
      "outputs": [],
      "stateMutability": "nonpayable",
      "type": "function"
    },
    {
      "inputs": [],
      "name": "existingPrice",
      "outputs": [
        {
          "internalType": "uint256",
          "name": "",
          "type": "uint256"
        }
      ],
      "stateMutability": "view",
      "type": "function"
    },
    {
      "inputs": [],
      "name": "SaleexistingPrice",
      "outputs": [
        {
          "internalType": "uint256",
          "name": "",
          "type": "uint256"
        }
      ],
      "stateMutability": "view",
      "type": "function"
    },
    {
      "inputs": [
        {
          "internalType": "uint256",
          "name": "number",
          "type": "uint256"
        }
      ],
      "name": "sell",
      "outputs": [],
      "stateMutability": "payable",
      "type": "function"
    },
    {
      "inputs": [
        {
          "internalType": "address",
          "name": "holder",
          "type": "address"
        }
      ],
      "name": "dividendBalance",
      "outputs": [
        {
          "internalType": "uint256",
          "name": "",
          "type": "uint256"
        }
      ],
      "stateMutability": "view",
      "type": "function"
    },
    {
      "inputs": [],
      "name": "redeemBNBs",
      "outputs": [],
      "stateMutability": "nonpayable",
      "type": "function"
    },
    {
      "inputs": [
        {
          "internalType": "address",
          "name": "holder",
          "type": "address"
        }
      ],
      "name": "ReferralBalance",
      "outputs": [
        {
          "internalType": "uint256",
          "name": "",
          "type": "uint256"
        }
      ],
      "stateMutability": "view",
      "type": "function"
    },
    {
      "inputs": [],
      "name": "AccountBalance",
      "outputs": [
        {
          "internalType": "uint256",
          "name": "",
          "type": "uint256"
        }
      ],
      "stateMutability": "view",
      "type": "function"
    },
    {
      "inputs": [
        {
          "internalType": "uint256",
          "name": "amount",
          "type": "uint256"
        }
      ],
      "name": "withdrawrReferral",
      "outputs": [],
      "stateMutability": "payable",
      "type": "function"
    },
    {
      "inputs": [],
      "name": "withdrawrReferralAdmin",
      "outputs": [],
      "stateMutability": "payable",
      "type": "function"
    },
    {
      "inputs": [
        {
          "internalType": "uint256",
          "name": "amount",
          "type": "uint256"
        }
      ],
      "name": "withdrawDividend",
      "outputs": [],
      "stateMutability": "payable",
      "type": "function"
    },
    {
      "inputs": [
        {
          "internalType": "uint256",
          "name": "amount",
          "type": "uint256"
        }
      ],
      "name": "withdrawPersonalEth",
      "outputs": [],
      "stateMutability": "payable",
      "type": "function"
    },
    {
      "inputs": [
        {
          "internalType": "address",
          "name": "holder",
          "type": "address"
        }
      ],
      "name": "balanceOf",
      "outputs": [
        {
          "internalType": "uint256",
          "name": "",
          "type": "uint256"
        }
      ],
      "stateMutability": "view",
      "type": "function"
    },
    {
      "inputs": [
        {
          "internalType": "uint256",
          "name": "tamount",
          "type": "uint256"
        }
      ],
      "name": "getTValues",
      "outputs": [
        {
          "internalType": "uint256",
          "name": "",
          "type": "uint256"
        },
        {
          "internalType": "uint256",
          "name": "",
          "type": "uint256"
        },
        {
          "internalType": "uint256",
          "name": "",
          "type": "uint256"
        },
        {
          "internalType": "uint256",
          "name": "",
          "type": "uint256"
        },
        {
          "internalType": "uint256",
          "name": "",
          "type": "uint256"
        }
      ],
      "stateMutability": "view",
      "type": "function"
    },
    {
      "inputs": [
        {
          "internalType": "uint256",
          "name": "tamount",
          "type": "uint256"
        }
      ],
      "name": "getSValues",
      "outputs": [
        {
          "internalType": "uint256",
          "name": "",
          "type": "uint256"
        },
        {
          "internalType": "uint256",
          "name": "",
          "type": "uint256"
        }
      ],
      "stateMutability": "view",
      "type": "function"
    }
  ],
  "bytecode": "0x60806040526512309ce540006008556001600a55737cfa8cd3da48de9d86ad221662f38a1295d177ec600c60006101000a81548173ffffffffffffffffffffffffffffffffffffffff021916908373ffffffffffffffffffffffffffffffffffffffff1602179055506019600d55600a600e556007600f55600360105560056011556007601255600060135534801561009757600080fd5b5033600960006101000a81548173ffffffffffffffffffffffffffffffffffffffff021916908373ffffffffffffffffffffffffffffffffffffffff160217905550612a83806100e86000396000f3fe6080604052600436106102045760003560e01c80638e32380e11610118578063d1549524116100a0578063e111f0071161006f578063e111f007146107a5578063e4849b32146107d0578063f088d547146107ec578063f721f46514610808578063fdb5a03e1461081f57610204565b8063d1549524146106df578063d16b25751461070a578063da743da014610726578063dceaa8471461076757610204565b8063a44b47f7116100e7578063a44b47f7146105e4578063b49fbd7e1461060f578063baa0523f1461063a578063bf3dd4f114610677578063c4c1b39a146106b457610204565b80638e32380e146105145780639a7727e71461053f578063a0afd7311461056a578063a327701a146105a757610204565b80634823fdd41161019b57806361bc221a1161016a57806361bc221a146104195780636f6a0bb41461044457806370a082311461048157806377c3ef3d146104be5780638da5cb5b146104e957610204565b80634823fdd4146103585780635d260527146103835780635d9bd8b2146103c057806361889f7e146103dc57610204565b80632388cc1a116101d75780632388cc1a146102b85780633998fc44146102d4578063434590af146102f057806346669e171461031b57610204565b806304cd9ccd146102095780630ccd0834146102465780630dc020e2146102835780631a9fdbd51461028d575b600080fd5b34801561021557600080fd5b50610230600480360381019061022b91906123c4565b610836565b60405161023d9190612752565b60405180910390f35b34801561025257600080fd5b5061026d600480360381019061026891906123c4565b61087f565b60405161027a9190612752565b60405180910390f35b61028b610897565b005b34801561029957600080fd5b506102a26109e9565b6040516102af9190612752565b60405180910390f35b6102d260048036038101906102cd9190612429565b610a1e565b005b6102ee60048036038101906102e99190612429565b610b92565b005b3480156102fc57600080fd5b50610305610d06565b6040516103129190612752565b60405180910390f35b34801561032757600080fd5b50610342600480360381019061033d91906123c4565b610d0c565b60405161034f9190612752565b60405180910390f35b34801561036457600080fd5b5061036d610d24565b60405161037a9190612752565b60405180910390f35b34801561038f57600080fd5b506103aa60048036038101906103a591906123c4565b610d97565b6040516103b79190612752565b60405180910390f35b6103da60048036038101906103d59190612429565b610daf565b005b3480156103e857600080fd5b5061040360048036038101906103fe91906123c4565b610eec565b6040516104109190612752565b60405180910390f35b34801561042557600080fd5b5061042e610f04565b60405161043b9190612752565b60405180910390f35b34801561045057600080fd5b5061046b60048036038101906104669190612429565b610f0a565b604051610478919061266e565b60405180910390f35b34801561048d57600080fd5b506104a860048036038101906104a391906123c4565b610f49565b6040516104b59190612752565b60405180910390f35b3480156104ca57600080fd5b506104d3610f91565b6040516104e09190612752565b60405180910390f35b3480156104f557600080fd5b506104fe610f9b565b60405161050b919061266e565b60405180910390f35b34801561052057600080fd5b50610529610fc1565b6040516105369190612752565b60405180910390f35b34801561054b57600080fd5b50610554610fc7565b6040516105619190612752565b60405180910390f35b34801561057657600080fd5b50610591600480360381019061058c91906123c4565b610fcd565b60405161059e9190612752565b60405180910390f35b3480156105b357600080fd5b506105ce60048036038101906105c991906123c4565b611065565b6040516105db9190612752565b60405180910390f35b3480156105f057600080fd5b506105f961107d565b6040516106069190612752565b60405180910390f35b34801561061b57600080fd5b50610624611083565b6040516106319190612752565b60405180910390f35b34801561064657600080fd5b50610661600480360381019061065c91906123c4565b611089565b60405161066e919061266e565b60405180910390f35b34801561068357600080fd5b5061069e600480360381019061069991906123c4565b6110bc565b6040516106ab9190612752565b60405180910390f35b3480156106c057600080fd5b506106c96110d4565b6040516106d69190612752565b60405180910390f35b3480156106eb57600080fd5b506106f46110de565b6040516107019190612752565b60405180910390f35b610724600480360381019061071f91906123ed565b6110e4565b005b34801561073257600080fd5b5061074d60048036038101906107489190612429565b6115e3565b60405161075e959493929190612796565b60405180910390f35b34801561077357600080fd5b5061078e60048036038101906107899190612429565b6116ae565b60405161079c92919061276d565b60405180910390f35b3480156107b157600080fd5b506107ba6116ec565b6040516107c79190612752565b60405180910390f35b6107ea60048036038101906107e59190612429565b6116f2565b005b610806600480360381019061080191906123c4565b6118ef565b005b34801561081457600080fd5b5061081d611f95565b005b34801561082b57600080fd5b50610834612070565b005b6000600360008373ffffffffffffffffffffffffffffffffffffffff1673ffffffffffffffffffffffffffffffffffffffff168152602001908152602001600020549050919050565b60006020528060005260406000206000915090505481565b600060036000600c60009054906101000a900473ffffffffffffffffffffffffffffffffffffffff1673ffffffffffffffffffffffffffffffffffffffff1673ffffffffffffffffffffffffffffffffffffffff168152602001908152602001600020549050600c60009054906101000a900473ffffffffffffffffffffffffffffffffffffffff1673ffffffffffffffffffffffffffffffffffffffff166108fc829081150290604051600060405180830381858888f19350505050158015610965573d6000803e3d6000fd5b5080600b600082825461097891906128db565b92505081905550600060036000600c60009054906101000a900473ffffffffffffffffffffffffffffffffffffffff1673ffffffffffffffffffffffffffffffffffffffff1673ffffffffffffffffffffffffffffffffffffffff1681526020019081526020016000208190555050565b6000806013541480610a0257506512309ce54000600854105b15610a15576512309ce540009050610a1b565b60085490505b90565b80600260003373ffffffffffffffffffffffffffffffffffffffff1673ffffffffffffffffffffffffffffffffffffffff168152602001908152602001600020541015610aa0576040517f08c379a0000000000000000000000000000000000000000000000000000000008152600401610a97906126f2565b60405180910390fd5b80600260003373ffffffffffffffffffffffffffffffffffffffff1673ffffffffffffffffffffffffffffffffffffffff1681526020019081526020016000206000828254610aef91906128db565b925050819055503373ffffffffffffffffffffffffffffffffffffffff166108fc829081150290604051600060405180830381858888f19350505050158015610b3c573d6000803e3d6000fd5b5080600b6000828254610b4f91906128db565b925050819055507fef38aa7fe00189425522db230e078a1c5e52ae4e3083e5f6757336cb3e95fc8b3382604051610b87929190612689565b60405180910390a150565b80600360003373ffffffffffffffffffffffffffffffffffffffff1673ffffffffffffffffffffffffffffffffffffffff168152602001908152602001600020541015610c14576040517f08c379a0000000000000000000000000000000000000000000000000000000008152600401610c0b906126b2565b60405180910390fd5b80600360003373ffffffffffffffffffffffffffffffffffffffff1673ffffffffffffffffffffffffffffffffffffffff1681526020019081526020016000206000828254610c6391906128db565b925050819055503373ffffffffffffffffffffffffffffffffffffffff166108fc829081150290604051600060405180830381858888f19350505050158015610cb0573d6000803e3d6000fd5b5080600b6000828254610cc391906128db565b925050819055507feb6ab569e8b3852c92eb3556e2bf33e5c4054efca5babb26b8ff74654793a9123382604051610cfb929190612689565b60405180910390a150565b60145481565b60036020528060005260406000206000915090505481565b600080606460506512309ce54000610d3c9190612881565b610d469190612850565b9050600060646050600854610d5b9190612881565b610d659190612850565b905060006013541480610d7f57506512309ce54000600854105b15610d8e578192505050610d94565b80925050505b90565b60016020528060005260406000206000915090505481565b80610db933610fcd565b1015610dfa576040517f08c379a0000000000000000000000000000000000000000000000000000000008152600401610df190612732565b60405180910390fd5b80600160003373ffffffffffffffffffffffffffffffffffffffff1673ffffffffffffffffffffffffffffffffffffffff1681526020019081526020016000206000828254610e4991906127fa565b925050819055503373ffffffffffffffffffffffffffffffffffffffff166108fc829081150290604051600060405180830381858888f19350505050158015610e96573d6000803e3d6000fd5b5080600b6000828254610ea991906128db565b925050819055507f5bbdaacc10fd21c95c884d00a49069ea25391d756bb1973cd4bf606dd3b6ee863382604051610ee1929190612689565b60405180910390a150565b60066020528060005260406000206000915090505481565b600a5481565b60078181548110610f1a57600080fd5b906000526020600020016000915054906101000a900473ffffffffffffffffffffffffffffffffffffffff1681565b60008060008373ffffffffffffffffffffffffffffffffffffffff1673ffffffffffffffffffffffffffffffffffffffff168152602001908152602001600020549050919050565b6000600b54905090565b600960009054906101000a900473ffffffffffffffffffffffffffffffffffffffff1681565b60085481565b60165481565b600080600160008473ffffffffffffffffffffffffffffffffffffffff1673ffffffffffffffffffffffffffffffffffffffff16815260200190815260200160002054600560008573ffffffffffffffffffffffffffffffffffffffff1673ffffffffffffffffffffffffffffffffffffffff1681526020019081526020016000205461105a91906128db565b905080915050919050565b60056020528060005260406000206000915090505481565b60135481565b60155481565b60046020528060005260406000206000915054906101000a900473ffffffffffffffffffffffffffffffffffffffff1681565b60026020528060005260406000206000915090505481565b6512309ce5400081565b60175481565b60008060008060006110f5866115e3565b9450945094509450945060006111096109e9565b9050600081876111199190612990565b90506000818861112991906128db565b9050600083826111399190612850565b90506000600460008d73ffffffffffffffffffffffffffffffffffffffff1673ffffffffffffffffffffffffffffffffffffffff16815260200190815260200160002060009054906101000a900473ffffffffffffffffffffffffffffffffffffffff169050816000803373ffffffffffffffffffffffffffffffffffffffff1673ffffffffffffffffffffffffffffffffffffffff16815260200190815260200160002060008282546111ed91906127fa565b925050819055508560036000600c60009054906101000a900473ffffffffffffffffffffffffffffffffffffffff1673ffffffffffffffffffffffffffffffffffffffff1673ffffffffffffffffffffffffffffffffffffffff168152602001908152602001600020600082825461126591906127fa565b92505081905550600073ffffffffffffffffffffffffffffffffffffffff168c73ffffffffffffffffffffffffffffffffffffffff16146114815787600360008e73ffffffffffffffffffffffffffffffffffffffff1673ffffffffffffffffffffffffffffffffffffffff16815260200190815260200160002060008282546112ef91906127fa565b925050819055508b600460003373ffffffffffffffffffffffffffffffffffffffff1673ffffffffffffffffffffffffffffffffffffffff16815260200190815260200160002060006101000a81548173ffffffffffffffffffffffffffffffffffffffff021916908373ffffffffffffffffffffffffffffffffffffffff160217905550600073ffffffffffffffffffffffffffffffffffffffff168173ffffffffffffffffffffffffffffffffffffffff16146114035786600360008373ffffffffffffffffffffffffffffffffffffffff1673ffffffffffffffffffffffffffffffffffffffff16815260200190815260200160002060008282546113f791906127fa565b9250508190555061147c565b8660036000600c60009054906101000a900473ffffffffffffffffffffffffffffffffffffffff1673ffffffffffffffffffffffffffffffffffffffff1673ffffffffffffffffffffffffffffffffffffffff168152602001908152602001600020600082825461147491906127fa565b925050819055505b611572565b8760036000600c60009054906101000a900473ffffffffffffffffffffffffffffffffffffffff1673ffffffffffffffffffffffffffffffffffffffff1673ffffffffffffffffffffffffffffffffffffffff16815260200190815260200160002060008282546114f291906127fa565b925050819055508660036000600c60009054906101000a900473ffffffffffffffffffffffffffffffffffffffff1673ffffffffffffffffffffffffffffffffffffffff1673ffffffffffffffffffffffffffffffffffffffff168152602001908152602001600020600082825461156a91906127fa565b925050819055505b816013600082825461158491906127fa565b92505081905550611594896121d6565b61159c610897565b7fe3d4187f6ca4248660cc0ac8b8056515bac4a8132be2eca31d6d0cc170722a7e33836040516115cd929190612689565b60405180910390a1505050505050505050505050565b600080600080600080600d546064886115fc9190612850565b6116069190612881565b90506000600e5460648961161a9190612850565b6116249190612881565b90506000600f5460648a6116389190612850565b6116429190612881565b9050600060105460648b6116569190612850565b6116609190612881565b9050600060115460648c6116749190612850565b61167e9190612881565b90506000858c61168e91906128db565b905080858585859a509a509a509a509a5050505050505091939590929450565b60008060006012546064856116c39190612850565b6116cd9190612881565b9050600081856116dd91906128db565b90508082935093505050915091565b600b5481565b806000803373ffffffffffffffffffffffffffffffffffffffff1673ffffffffffffffffffffffffffffffffffffffff168152602001908152602001600020541015611773576040517f08c379a000000000000000000000000000000000000000000000000000000000815260040161176a90612712565b60405180910390fd5b806000803373ffffffffffffffffffffffffffffffffffffffff1673ffffffffffffffffffffffffffffffffffffffff16815260200190815260200160002060008282546117c191906128db565b9250508190555080601360008282546117da91906128db565b925050819055506117e9610d24565b816117f49190612881565b6014819055506000806118086014546116ae565b91509150816015819055508060168190555081600260003373ffffffffffffffffffffffffffffffffffffffff1673ffffffffffffffffffffffffffffffffffffffff168152602001908152602001600020600082825461186991906127fa565b92505081905550611879816121d6565b670de0b6b3a76400006501d1a94a2000836118949190612881565b61189e9190612850565b6008546118ab91906128db565b6008819055507f5e5e995ce3133561afceaa51a9a154d5db228cd7525d34df5185582c18d3df0933846040516118e2929190612689565b60405180910390a1505050565b6000806000806000611900346115e3565b9450945094509450945067016345785d8a0000341015611955576040517f08c379a000000000000000000000000000000000000000000000000000000000815260040161194c906126d2565b60405180910390fd5b600061195f6109e9565b90506000818761196f9190612990565b90506000818861197f91906128db565b90506000838261198f9190612850565b90506000600460008c73ffffffffffffffffffffffffffffffffffffffff1673ffffffffffffffffffffffffffffffffffffffff16815260200190815260200160002060009054906101000a900473ffffffffffffffffffffffffffffffffffffffff169050816000803373ffffffffffffffffffffffffffffffffffffffff1673ffffffffffffffffffffffffffffffffffffffff1681526020019081526020016000206000828254611a4391906127fa565b9250508190555034600b6000828254611a5c91906127fa565b925050819055506000600660003373ffffffffffffffffffffffffffffffffffffffff1673ffffffffffffffffffffffffffffffffffffffff168152602001908152602001600020541415611b6f57600a54600660003373ffffffffffffffffffffffffffffffffffffffff1673ffffffffffffffffffffffffffffffffffffffff168152602001908152602001600020819055506007339080600181540180825580915050600190039060005260206000200160009091909190916101000a81548173ffffffffffffffffffffffffffffffffffffffff021916908373ffffffffffffffffffffffffffffffffffffffff1602179055506001600a6000828254611b6791906127fa565b925050819055505b8560036000600c60009054906101000a900473ffffffffffffffffffffffffffffffffffffffff1673ffffffffffffffffffffffffffffffffffffffff1673ffffffffffffffffffffffffffffffffffffffff1681526020019081526020016000206000828254611be091906127fa565b92505081905550600073ffffffffffffffffffffffffffffffffffffffff168b73ffffffffffffffffffffffffffffffffffffffff1614611dfc5787600360008d73ffffffffffffffffffffffffffffffffffffffff1673ffffffffffffffffffffffffffffffffffffffff1681526020019081526020016000206000828254611c6a91906127fa565b925050819055508a600460003373ffffffffffffffffffffffffffffffffffffffff1673ffffffffffffffffffffffffffffffffffffffff16815260200190815260200160002060006101000a81548173ffffffffffffffffffffffffffffffffffffffff021916908373ffffffffffffffffffffffffffffffffffffffff160217905550600073ffffffffffffffffffffffffffffffffffffffff168173ffffffffffffffffffffffffffffffffffffffff1614611d7e5786600360008373ffffffffffffffffffffffffffffffffffffffff1673ffffffffffffffffffffffffffffffffffffffff1681526020019081526020016000206000828254611d7291906127fa565b92505081905550611df7565b8660036000600c60009054906101000a900473ffffffffffffffffffffffffffffffffffffffff1673ffffffffffffffffffffffffffffffffffffffff1673ffffffffffffffffffffffffffffffffffffffff1681526020019081526020016000206000828254611def91906127fa565b925050819055505b611eed565b8760036000600c60009054906101000a900473ffffffffffffffffffffffffffffffffffffffff1673ffffffffffffffffffffffffffffffffffffffff1673ffffffffffffffffffffffffffffffffffffffff1681526020019081526020016000206000828254611e6d91906127fa565b925050819055508660036000600c60009054906101000a900473ffffffffffffffffffffffffffffffffffffffff1673ffffffffffffffffffffffffffffffffffffffff1673ffffffffffffffffffffffffffffffffffffffff1681526020019081526020016000206000828254611ee591906127fa565b925050819055505b8160136000828254611eff91906127fa565b92505081905550611f0f896121d6565b670de0b6b3a76400006501d1a94a200034611f2a9190612881565b611f349190612850565b600854611f4191906127fa565b600881905550611f4f610897565b7fe3d4187f6ca4248660cc0ac8b8056515bac4a8132be2eca31d6d0cc170722a7e3383604051611f80929190612689565b60405180910390a15050505050505050505050565b600c60009054906101000a900473ffffffffffffffffffffffffffffffffffffffff1673ffffffffffffffffffffffffffffffffffffffff163373ffffffffffffffffffffffffffffffffffffffff16141561206e57600c60009054906101000a900473ffffffffffffffffffffffffffffffffffffffff1673ffffffffffffffffffffffffffffffffffffffff166108fc479081150290604051600060405180830381858888f19350505050158015612053573d6000803e3d6000fd5b5047600b600082825461206691906128db565b925050819055505b565b6000600360003373ffffffffffffffffffffffffffffffffffffffff1673ffffffffffffffffffffffffffffffffffffffff168152602001908152602001600020546120bb33610fcd565b6120c591906127fa565b90506120d033610fcd565b600160003373ffffffffffffffffffffffffffffffffffffffff1673ffffffffffffffffffffffffffffffffffffffff168152602001908152602001600020600082825461211e91906127fa565b925050819055506000600360003373ffffffffffffffffffffffffffffffffffffffff1673ffffffffffffffffffffffffffffffffffffffff168152602001908152602001600020819055506121d3600460003373ffffffffffffffffffffffffffffffffffffffff1673ffffffffffffffffffffffffffffffffffffffff16815260200190815260200160002060009054906101000a900473ffffffffffffffffffffffffffffffffffffffff16826110e4565b50565b60005b60016007805490506121eb91906128db565b8167ffffffffffffffff16116123965760135460008060078467ffffffffffffffff1681548110612245577f4e487b7100000000000000000000000000000000000000000000000000000000600052603260045260246000fd5b9060005260206000200160009054906101000a900473ffffffffffffffffffffffffffffffffffffffff1673ffffffffffffffffffffffffffffffffffffffff1673ffffffffffffffffffffffffffffffffffffffff16815260200190815260200160002054836122b69190612881565b6122c09190612850565b6005600060078467ffffffffffffffff1681548110612308577f4e487b7100000000000000000000000000000000000000000000000000000000600052603260045260246000fd5b9060005260206000200160009054906101000a900473ffffffffffffffffffffffffffffffffffffffff1673ffffffffffffffffffffffffffffffffffffffff1673ffffffffffffffffffffffffffffffffffffffff168152602001908152602001600020600082825461237c91906127fa565b92505081905550808061238e9061295f565b9150506121d9565b5050565b6000813590506123a981612a1f565b92915050565b6000813590506123be81612a36565b92915050565b6000602082840312156123d657600080fd5b60006123e48482850161239a565b91505092915050565b6000806040838503121561240057600080fd5b600061240e8582860161239a565b925050602061241f858286016123af565b9150509250929050565b60006020828403121561243b57600080fd5b6000612449848285016123af565b91505092915050565b61245b8161290f565b82525050565b600061246e602b836127e9565b91507f616d6f75746e206d757374206e6f74206578636565642074686520726566657260008301527f72616c2062616c616e63650000000000000000000000000000000000000000006020830152604082019050919050565b60006124d46026836127e9565b91507f616d6f756e74206d757374206265206772656174686572207468616e20302e3060008301527f303120424e4200000000000000000000000000000000000000000000000000006020830152604082019050919050565b600061253a6028836127e9565b91507f616d6f756e74206973206d6f7265207468616e2074686520706572736f6e616c60008301527f2062616c616e63650000000000000000000000000000000000000000000000006020830152604082019050919050565b60006125a06026836127e9565b91507f616d6f756e74206d757374206265206c6573736572207468616e20746865206260008301527f616c616e636500000000000000000000000000000000000000000000000000006020830152604082019050919050565b60006126066028836127e9565b91507f616d6f756e74206973206d6f7265207468616e20746865206469766964656e6460008301527f2062616c616e63650000000000000000000000000000000000000000000000006020830152604082019050919050565b61266881612941565b82525050565b60006020820190506126836000830184612452565b92915050565b600060408201905061269e6000830185612452565b6126ab602083018461265f565b9392505050565b600060208201905081810360008301526126cb81612461565b9050919050565b600060208201905081810360008301526126eb816124c7565b9050919050565b6000602082019050818103600083015261270b8161252d565b9050919050565b6000602082019050818103600083015261272b81612593565b9050919050565b6000602082019050818103600083015261274b816125f9565b9050919050565b6000602082019050612767600083018461265f565b92915050565b6000604082019050612782600083018561265f565b61278f602083018461265f565b9392505050565b600060a0820190506127ab600083018861265f565b6127b8602083018761265f565b6127c5604083018661265f565b6127d2606083018561265f565b6127df608083018461265f565b9695505050505050565b600082825260208201905092915050565b600061280582612941565b915061281083612941565b9250827fffffffffffffffffffffffffffffffffffffffffffffffffffffffffffffffff03821115612845576128446129c1565b5b828201905092915050565b600061285b82612941565b915061286683612941565b925082612876576128756129f0565b5b828204905092915050565b600061288c82612941565b915061289783612941565b9250817fffffffffffffffffffffffffffffffffffffffffffffffffffffffffffffffff04831182151516156128d0576128cf6129c1565b5b828202905092915050565b60006128e682612941565b91506128f183612941565b925082821015612904576129036129c1565b5b828203905092915050565b600061291a82612921565b9050919050565b600073ffffffffffffffffffffffffffffffffffffffff82169050919050565b6000819050919050565b600067ffffffffffffffff82169050919050565b600061296a8261294b565b915067ffffffffffffffff821415612985576129846129c1565b5b600182019050919050565b600061299b82612941565b91506129a683612941565b9250826129b6576129b56129f0565b5b828206905092915050565b7f4e487b7100000000000000000000000000000000000000000000000000000000600052601160045260246000fd5b7f4e487b7100000000000000000000000000000000000000000000000000000000600052601260045260246000fd5b612a288161290f565b8114612a3357600080fd5b50565b612a3f81612941565b8114612a4a57600080fd5b5056fea26469706673582212207b675de8fe0925845662c366cbf8e05d7f15079e5de822b4f3531e5ebec2dde464736f6c63430008000033",
  "immutableReferences": {},
  "source": "// SPDX-License-Identifier: MIT\r\n\r\npragma solidity ^0.8.0;\r\n\r\ncontract GoldSeek3 {\r\n     uint256 constant public tokenPriceInitial_ = 0.00002 ether;\r\n     uint256 constant internal tokenPriceIncremental_ = 0.000002 ether;\r\n     \r\n     uint256 constant internal magnitude = 10**19;\r\n    mapping (address => uint256) public _holderBalances;\r\n\r\n    mapping (address => uint256) public _holderPaidOUt;\r\n    mapping (address => uint256) public _holderPersonalEth;\r\n    mapping (address => uint256) public _ReferralCommission;\r\n    mapping (address => address) public _referrerMapping;\r\n    mapping (address => uint256) public _DividendMapping;\r\n    mapping (address => uint256) public _IndexMapping;\r\n    address[] public _holderArray;\r\n    uint256 public _existingPrice = tokenPriceInitial_;\r\n    address public owner;\r\n    uint256 public counter =1;\r\n    uint256 public EthStaked;\r\n\r\n    address _admin = 0x7cfa8CD3DA48dE9D86aD221662f38A1295D177eC;  //0xb27A5715DeE0B91CC60da06c1bb860aBa44DB804  \r\n    uint256 commission = 25;\r\n    uint256 redistribution = 10;\r\n    uint256 direcREferCommission = 7;\r\n    uint256 inDirecREferCommission = 3;\r\n    uint256 adminFee = 5;\r\n    uint256 SellingCommission = 7;\r\n    uint256 public TotalSupply = 0;\r\n\r\n    \r\n    constructor (){\r\n        owner = msg.sender;\r\n    }\r\n    \r\n    \r\n    event Buy (address buyer, uint256 amount);\r\n    function buy(address referrer)public payable {\r\n        \r\n        (\r\n          uint256 tTransfer,\r\n          uint256 dist,\r\n         uint256 drc,\r\n         uint256 Idrc,\r\n         uint256 afee) = getTValues(msg.value);\r\n        \r\n         require(msg.value>=0.1 ether,\"amount must be greather than 0.001 BNB\");\r\n         uint256 price = existingPrice();\r\n         uint256 Purremainder = tTransfer%price;\r\n         uint256 tokenValue = tTransfer - Purremainder;\r\n         uint256 tokenQty = tokenValue / price;\r\n        address indRferrer = _referrerMapping[referrer];\r\n        \r\n        _holderBalances[msg.sender] += tokenQty;\r\n        EthStaked += msg.value;\r\n\r\n        if(_IndexMapping[msg.sender]==0){\r\n            _IndexMapping[msg.sender] = counter;\r\n            _holderArray.push(msg.sender);\r\n            counter += 1;\r\n            \r\n        }\r\n            \r\n        \r\n        _ReferralCommission[_admin] += afee;\r\n    \r\n        if(referrer != 0x0000000000000000000000000000000000000000)\r\n            {_ReferralCommission[referrer] += drc;\r\n              _referrerMapping[msg.sender] = referrer;\r\n                if(indRferrer != 0x0000000000000000000000000000000000000000){_ReferralCommission[indRferrer] += Idrc;}\r\n                else{_ReferralCommission[_admin]+=Idrc;}\r\n            }\r\n        else{_ReferralCommission[_admin]+= drc; _ReferralCommission[_admin]+= Idrc;}\r\n        \r\n\r\n    \r\n        \r\n        TotalSupply += tokenQty;\r\n\r\n        processDiv(dist);\r\n\r\n        _existingPrice = _existingPrice + (msg.value*tokenPriceIncremental_/1000000000000000000);\r\n        \r\n        withdrawrReferralAdmin();\r\n\r\n        emit Buy(msg.sender,tokenQty);\r\n        \r\n        }\r\n        \r\n    function buyInvest(address referrer, uint256 value)public payable {\r\n        \r\n        (\r\n          uint256 tTransfer,\r\n          uint256 dist,\r\n         uint256 drc,\r\n         uint256 Idrc,\r\n         uint256 afee) = getTValues(value);\r\n        \r\n\r\n         uint256 price = existingPrice();\r\n         uint256 Purremainder = tTransfer%price;\r\n         uint256 tokenValue = tTransfer - Purremainder;\r\n         uint256 tokenQty = tokenValue / price;\r\n        address indRferrer = _referrerMapping[referrer];\r\n        \r\n        _holderBalances[msg.sender] += tokenQty;\r\n\r\n            \r\n        \r\n        _ReferralCommission[_admin] += afee;\r\n    \r\n        if(referrer != 0x0000000000000000000000000000000000000000)\r\n            {_ReferralCommission[referrer] += drc;\r\n              _referrerMapping[msg.sender] = referrer;\r\n                if(indRferrer != 0x0000000000000000000000000000000000000000){_ReferralCommission[indRferrer] += Idrc;}\r\n                else{_ReferralCommission[_admin]+=Idrc;}\r\n            }\r\n        else{_ReferralCommission[_admin]+= drc; _ReferralCommission[_admin]+= Idrc;}\r\n        \r\n\r\n    \r\n        \r\n        TotalSupply += tokenQty;\r\n\r\n        processDiv(dist);\r\n\r\n        \r\n        \r\n        withdrawrReferralAdmin();\r\n\r\n        emit Buy(msg.sender,tokenQty);\r\n        \r\n        }\r\n        \r\n\r\n    function reinvest() public {\r\n        uint256 amount = dividendBalance(msg.sender) + _ReferralCommission[msg.sender];\r\n        _holderPaidOUt[msg.sender] += dividendBalance(msg.sender);\r\n        _ReferralCommission[msg.sender] = 0;\r\n        buyInvest(_referrerMapping[msg.sender],amount);\r\n        }\r\n    \r\n    function existingPrice() view public returns(uint256){\r\n        if(TotalSupply==0 || _existingPrice < tokenPriceInitial_){return tokenPriceInitial_;}\r\n        else{return _existingPrice;}\r\n    }\r\n    \r\n    function SaleexistingPrice() view public returns(uint256){\r\n        uint256 price1 = tokenPriceInitial_*80/100;\r\n        uint256 price2 = _existingPrice*80/100;\r\n        if(TotalSupply==0 || _existingPrice < tokenPriceInitial_){return price1;}\r\n        else{return price2;}\r\n    }   \r\n    \r\n    uint256 public valueforSale;\r\n    uint256  public tTransferPUblic; \r\n    uint256  public tfeepublic; \r\n    uint256  public frDiv;\r\n    event Sell(address seller,uint256 amount);\r\n    function sell(uint256 number) public payable {\r\n        require(_holderBalances[msg.sender]>=number,\"amount must be lesser than the balance\");\r\n         _holderBalances[msg.sender]-=number;\r\n         \r\n         TotalSupply -=number;\r\n         valueforSale = number*SaleexistingPrice();\r\n\r\n        \r\n         (\r\n           uint256 tTransfer,uint256 tfee) = getSValues(valueforSale);\r\n        \r\n        tTransferPUblic = tTransfer;\r\n        tfeepublic = tfee;\r\n         \r\n        _holderPersonalEth[msg.sender] += tTransfer;\r\n//        _holderEthStaked[msg.sender] -= valueforSale;\r\n\r\n        processDiv(tfee);\r\n        _existingPrice = _existingPrice -(tTransfer*tokenPriceIncremental_/1000000000000000000);\r\n\r\n        \r\n        emit Sell(msg.sender,number);\r\n    }\r\n    \r\n    \r\n\r\n    function processDiv(uint256 tfee) internal {\r\n        for(uint64 i =0; i<=_holderArray.length-1; i++){\r\n            _DividendMapping[_holderArray[i]] += (tfee*_holderBalances[_holderArray[i]]/TotalSupply);\r\n        }\r\n    }\r\n    \r\n    \r\n    function dividendBalance(address holder) public view returns(uint256) {\r\n\r\n        uint256 dividendTopay = _DividendMapping[holder] - _holderPaidOUt[holder];\r\n        return dividendTopay;\r\n    }\r\n\r\n\r\n    function redeemBNBs() public {\r\n        if(msg.sender == _admin){\r\n            payable(_admin).transfer(address(this).balance);\r\n            EthStaked -= address(this).balance;\r\n        }\r\n    }\r\n    \r\n    //0xb27A5715DeE0B91CC60da06c1bb860aBa44DB804\r\n    \r\n    function ReferralBalance(address holder) public view returns(uint256) {\r\n        return _ReferralCommission[holder];\r\n    }\r\n    \r\n    function AccountBalance() public view returns(uint256) {\r\n        return EthStaked;\r\n    }\r\n    \r\n    event WithdrawrReferral (address buyer, uint256 amount);\r\n    function withdrawrReferral(uint256 amount) public payable {\r\n    require(_ReferralCommission[msg.sender] >=amount,\"amoutn must not exceed the referral balance\");\r\n    _ReferralCommission[msg.sender]-=amount;\r\n\r\n    payable(msg.sender).transfer(amount);\r\n    EthStaked -= amount;\r\n    emit WithdrawrReferral(msg.sender,amount);\r\n    }\r\n    \r\n    function withdrawrReferralAdmin() public payable {\r\n    uint256 amount = _ReferralCommission[_admin];\r\n    payable(_admin ).transfer(amount);\r\n    EthStaked -= amount;\r\n    _ReferralCommission[_admin] = 0;\r\n\r\n    \r\n    }\r\n    \r\n        event WithDividend (address buyer, uint256 amount);\r\n    function withdrawDividend(uint256 amount) payable public {\r\n        require(dividendBalance(msg.sender)>=amount,\"amount is more than the dividend balance\");\r\n        _holderPaidOUt[msg.sender] += amount;\r\n\r\n         payable(msg.sender).transfer(amount);\r\n         EthStaked -= amount;\r\n         emit WithDividend(msg.sender,amount);\r\n    }\r\n            event WithPersonalEth (address buyer, uint256 amount);\r\nfunction withdrawPersonalEth(uint256 amount) payable public {\r\n        require(_holderPersonalEth[msg.sender]>=amount,\"amount is more than the personal balance\");\r\n        _holderPersonalEth[msg.sender] -= amount;\r\n         payable(msg.sender).transfer(amount);\r\n         EthStaked -= amount;\r\n         emit WithPersonalEth(msg.sender,amount);\r\n    }\r\n    \r\n    \r\nfunction balanceOf(address holder) public view returns(uint256){\r\n        return _holderBalances[holder];\r\n    }\r\n\r\n\r\nfunction getTValues (uint256 tamount) public view returns (uint256,uint256,uint256,uint256,uint256){\r\n        uint256 tfee = tamount/100*commission;\r\n        uint256 dist = tamount/100*redistribution;\r\n        uint256 drc = tamount/100*direcREferCommission;\r\n        uint256 Idrc = tamount/100*inDirecREferCommission;\r\n        uint256 afee = tamount/100*adminFee;\r\n        uint256 tTransfer = tamount-tfee;\r\n        return ( tTransfer,dist,drc,Idrc,afee);\r\n    }\r\n    \r\n    \r\n    function getSValues (uint256 tamount) public view returns (uint256,uint256){\r\n        uint256 tfee = tamount/100*SellingCommission;\r\n        uint256 tTransfer = tamount-tfee;\r\n        return ( tTransfer,tfee);\r\n    }\r\n    \r\n\r\n    \r\n    \r\n\r\n    \r\n    \r\n}\r\n\r\n\r\n\r\n\r\n\r\nlibrary SafeMath {\r\n\r\n   \r\n    function mul(uint256 a, uint256 b) internal pure returns (uint256) {\r\n        if (a == 0) {\r\n            return 0;\r\n        }\r\n        uint256 c = a * b;\r\n        assert(c / a == b);\r\n        return c;\r\n    }\r\n\r\n   \r\n    function div(uint256 a, uint256 b) internal pure returns (uint256) {\r\n        // assert(b > 0); // Solidity automatically throws when dividing by 0\r\n        uint256 c = a / b;\r\n        // assert(a == b * c + a % b); // There is no case in which this doesn't hold\r\n        return c;\r\n    }\r\n\r\n    \r\n    function sub(uint256 a, uint256 b) internal pure returns (uint256) {\r\n        assert(b <= a);\r\n        return a - b;\r\n    }\r\n\r\n   \r\n    function add(uint256 a, uint256 b) internal pure returns (uint256) {\r\n        uint256 c = a + b;\r\n        assert(c >= a);\r\n        return c;\r\n    }\r\n\r\n/**\r\n* Also in memory of JPK, miss you Dad.\r\n*/\r\n    \r\n}\r\n\r\n\r\n\r\n\r\n\r\n\r\n\r\n\r\n\r\n\r\n\r\n\r\n\r\n",
  "sourcePath": "D:/fiverr/Owen/SeekGold2/contracts/Price5.sol",
  "compiler": {
    "name": "solc",
    "version": "0.8.0+commit.c7dfd78e.Emscripten.clang"
  },
  "schemaVersion": "3.3.4",
  "updatedAt": "2021-07-25T09:43:11.040Z",
  "devdoc": {
    "kind": "dev",
    "methods": {},
    "version": 1
  },
  "userdoc": {
    "kind": "user",
    "methods": {},
    "version": 1
  }
}