{
  "contractName": "GoldSeek3",
  "abi": [
    {
      "inputs": [],
      "stateMutability": "nonpayable",
      "type": "constructor"
    },
    {
      "anonymous": false,
      "inputs": [
        {
          "indexed": false,
          "internalType": "address",
          "name": "buyer",
          "type": "address"
        },
        {
          "indexed": false,
          "internalType": "uint256",
          "name": "amount",
          "type": "uint256"
        }
      ],
      "name": "Buy",
      "type": "event"
    },
    {
      "anonymous": false,
      "inputs": [
        {
          "indexed": false,
          "internalType": "address",
          "name": "seller",
          "type": "address"
        },
        {
          "indexed": false,
          "internalType": "uint256",
          "name": "amount",
          "type": "uint256"
        }
      ],
      "name": "Sell",
      "type": "event"
    },
    {
      "anonymous": false,
      "inputs": [
        {
          "indexed": false,
          "internalType": "address",
          "name": "buyer",
          "type": "address"
        },
        {
          "indexed": false,
          "internalType": "uint256",
          "name": "amount",
          "type": "uint256"
        }
      ],
      "name": "WithDividend",
      "type": "event"
    },
    {
      "anonymous": false,
      "inputs": [
        {
          "indexed": false,
          "internalType": "address",
          "name": "buyer",
          "type": "address"
        },
        {
          "indexed": false,
          "internalType": "uint256",
          "name": "amount",
          "type": "uint256"
        }
      ],
      "name": "WithPersonalEth",
      "type": "event"
    },
    {
      "anonymous": false,
      "inputs": [
        {
          "indexed": false,
          "internalType": "address",
          "name": "buyer",
          "type": "address"
        },
        {
          "indexed": false,
          "internalType": "uint256",
          "name": "amount",
          "type": "uint256"
        }
      ],
      "name": "WithdrawrReferral",
      "type": "event"
    },
    {
      "inputs": [],
      "name": "DividendPool",
      "outputs": [
        {
          "internalType": "uint256",
          "name": "",
          "type": "uint256"
        }
      ],
      "stateMutability": "view",
      "type": "function",
      "constant": true
    },
    {
      "inputs": [],
      "name": "TotalEthStaked",
      "outputs": [
        {
          "internalType": "uint256",
          "name": "",
          "type": "uint256"
        }
      ],
      "stateMutability": "view",
      "type": "function",
      "constant": true
    },
    {
      "inputs": [],
      "name": "TotalSupply",
      "outputs": [
        {
          "internalType": "uint256",
          "name": "",
          "type": "uint256"
        }
      ],
      "stateMutability": "view",
      "type": "function",
      "constant": true
    },
    {
      "inputs": [
        {
          "internalType": "address",
          "name": "",
          "type": "address"
        }
      ],
      "name": "_ReferralCommission",
      "outputs": [
        {
          "internalType": "uint256",
          "name": "",
          "type": "uint256"
        }
      ],
      "stateMutability": "view",
      "type": "function",
      "constant": true
    },
    {
      "inputs": [],
      "name": "_existingPrice",
      "outputs": [
        {
          "internalType": "uint256",
          "name": "",
          "type": "uint256"
        }
      ],
      "stateMutability": "view",
      "type": "function",
      "constant": true
    },
    {
      "inputs": [
        {
          "internalType": "address",
          "name": "",
          "type": "address"
        }
      ],
      "name": "_holderBalances",
      "outputs": [
        {
          "internalType": "uint256",
          "name": "",
          "type": "uint256"
        }
      ],
      "stateMutability": "view",
      "type": "function",
      "constant": true
    },
    {
      "inputs": [
        {
          "internalType": "address",
          "name": "",
          "type": "address"
        }
      ],
      "name": "_holderPaidOUt",
      "outputs": [
        {
          "internalType": "uint256",
          "name": "",
          "type": "uint256"
        }
      ],
      "stateMutability": "view",
      "type": "function",
      "constant": true
    },
    {
      "inputs": [
        {
          "internalType": "address",
          "name": "",
          "type": "address"
        }
      ],
      "name": "_holderPersonalEth",
      "outputs": [
        {
          "internalType": "uint256",
          "name": "",
          "type": "uint256"
        }
      ],
      "stateMutability": "view",
      "type": "function",
      "constant": true
    },
    {
      "inputs": [
        {
          "internalType": "address",
          "name": "",
          "type": "address"
        }
      ],
      "name": "_referrerMapping",
      "outputs": [
        {
          "internalType": "address",
          "name": "",
          "type": "address"
        }
      ],
      "stateMutability": "view",
      "type": "function",
      "constant": true
    },
    {
      "inputs": [],
      "name": "owner",
      "outputs": [
        {
          "internalType": "address",
          "name": "",
          "type": "address"
        }
      ],
      "stateMutability": "view",
      "type": "function",
      "constant": true
    },
    {
      "inputs": [],
      "name": "rateOfDiv",
      "outputs": [
        {
          "internalType": "uint256",
          "name": "",
          "type": "uint256"
        }
      ],
      "stateMutability": "view",
      "type": "function",
      "constant": true
    },
    {
      "inputs": [],
      "name": "tTransferPUblic",
      "outputs": [
        {
          "internalType": "uint256",
          "name": "",
          "type": "uint256"
        }
      ],
      "stateMutability": "view",
      "type": "function",
      "constant": true
    },
    {
      "inputs": [],
      "name": "tfeepublic",
      "outputs": [
        {
          "internalType": "uint256",
          "name": "",
          "type": "uint256"
        }
      ],
      "stateMutability": "view",
      "type": "function",
      "constant": true
    },
    {
      "inputs": [],
      "name": "tokenPriceInitial_",
      "outputs": [
        {
          "internalType": "uint256",
          "name": "",
          "type": "uint256"
        }
      ],
      "stateMutability": "view",
      "type": "function",
      "constant": true
    },
    {
      "inputs": [],
      "name": "valueforSale",
      "outputs": [
        {
          "internalType": "uint256",
          "name": "",
          "type": "uint256"
        }
      ],
      "stateMutability": "view",
      "type": "function",
      "constant": true
    },
    {
      "inputs": [
        {
          "internalType": "address",
          "name": "referrer",
          "type": "address"
        }
      ],
      "name": "buy",
      "outputs": [],
      "stateMutability": "payable",
      "type": "function",
      "payable": true
    },
    {
      "inputs": [],
      "name": "existingPrice",
      "outputs": [
        {
          "internalType": "uint256",
          "name": "",
          "type": "uint256"
        }
      ],
      "stateMutability": "view",
      "type": "function",
      "constant": true
    },
    {
      "inputs": [
        {
          "internalType": "uint256",
          "name": "number",
          "type": "uint256"
        }
      ],
      "name": "sell",
      "outputs": [],
      "stateMutability": "payable",
      "type": "function",
      "payable": true
    },
    {
      "inputs": [
        {
          "internalType": "address",
          "name": "holder",
          "type": "address"
        }
      ],
      "name": "dividendBalance",
      "outputs": [
        {
          "internalType": "uint256",
          "name": "",
          "type": "uint256"
        }
      ],
      "stateMutability": "view",
      "type": "function",
      "constant": true
    },
    {
      "inputs": [
        {
          "internalType": "address",
          "name": "holder",
          "type": "address"
        }
      ],
      "name": "ReferralBalance",
      "outputs": [
        {
          "internalType": "uint256",
          "name": "",
          "type": "uint256"
        }
      ],
      "stateMutability": "view",
      "type": "function",
      "constant": true
    },
    {
      "inputs": [
        {
          "internalType": "uint256",
          "name": "amount",
          "type": "uint256"
        }
      ],
      "name": "withdrawrReferral",
      "outputs": [],
      "stateMutability": "payable",
      "type": "function",
      "payable": true
    },
    {
      "inputs": [
        {
          "internalType": "uint256",
          "name": "amount",
          "type": "uint256"
        }
      ],
      "name": "withdrawDividend",
      "outputs": [],
      "stateMutability": "payable",
      "type": "function",
      "payable": true
    },
    {
      "inputs": [
        {
          "internalType": "uint256",
          "name": "amount",
          "type": "uint256"
        }
      ],
      "name": "withdrawPersonalEth",
      "outputs": [],
      "stateMutability": "payable",
      "type": "function",
      "payable": true
    },
    {
      "inputs": [],
      "name": "balanceOf",
      "outputs": [
        {
          "internalType": "uint256",
          "name": "",
          "type": "uint256"
        },
        {
          "internalType": "uint256",
          "name": "",
          "type": "uint256"
        },
        {
          "internalType": "uint256",
          "name": "",
          "type": "uint256"
        },
        {
          "internalType": "uint256",
          "name": "",
          "type": "uint256"
        }
      ],
      "stateMutability": "view",
      "type": "function",
      "constant": true
    },
    {
      "inputs": [
        {
          "internalType": "uint256",
          "name": "tamount",
          "type": "uint256"
        }
      ],
      "name": "getTValues",
      "outputs": [
        {
          "internalType": "uint256",
          "name": "",
          "type": "uint256"
        },
        {
          "internalType": "uint256",
          "name": "",
          "type": "uint256"
        },
        {
          "internalType": "uint256",
          "name": "",
          "type": "uint256"
        },
        {
          "internalType": "uint256",
          "name": "",
          "type": "uint256"
        },
        {
          "internalType": "uint256",
          "name": "",
          "type": "uint256"
        }
      ],
      "stateMutability": "view",
      "type": "function",
      "constant": true
    },
    {
      "inputs": [
        {
          "internalType": "uint256",
          "name": "tamount",
          "type": "uint256"
        }
      ],
      "name": "getSValues",
      "outputs": [
        {
          "internalType": "uint256",
          "name": "",
          "type": "uint256"
        },
        {
          "internalType": "uint256",
          "name": "",
          "type": "uint256"
        }
      ],
      "stateMutability": "view",
      "type": "function",
      "constant": true
    },
    {
      "inputs": [
        {
          "internalType": "uint256",
          "name": "_ethereum",
          "type": "uint256"
        }
      ],
      "name": "ethereumToTokens_",
      "outputs": [
        {
          "internalType": "uint256",
          "name": "",
          "type": "uint256"
        }
      ],
      "stateMutability": "view",
      "type": "function",
      "constant": true
    }
  ],
  "bytecode": "0x608060405264174876e8006005556ba0d000000000000000000000600860006101000a81548173ffffffffffffffffffffffffffffffffffffffff021916908373ffffffffffffffffffffffffffffffffffffffff16021790555073412fc8f58d2c68d5c1c7a011660aefa5f261d862600960006101000a81548173ffffffffffffffffffffffffffffffffffffffff021916908373ffffffffffffffffffffffffffffffffffffffff160217905550737cfa8cd3da48de9d86ad221662f38a1295d177ec600a60006101000a81548173ffffffffffffffffffffffffffffffffffffffff021916908373ffffffffffffffffffffffffffffffffffffffff1602179055506019600b55600a600c556007600d556003600e556005600f556007601055600060135534801561013357600080fd5b5033600660006101000a81548173ffffffffffffffffffffffffffffffffffffffff021916908373ffffffffffffffffffffffffffffffffffffffff1602179055506120c4806101846000396000f3fe60806040526004361061019c5760003560e01c80638e32380e116100ec578063bf3dd4f11161008a578063dceaa84711610064578063dceaa847146105fa578063e4849b3214610638578063f088d54714610654578063f6efd4c3146106705761019c565b8063bf3dd4f114610551578063c4c1b39a1461058e578063da743da0146105b95761019c565b8063a44b47f7116100c6578063a44b47f714610493578063b3d0b121146104be578063b49fbd7e146104e9578063baa0523f146105145761019c565b80638e32380e146104005780639a7727e71461042b578063a0afd731146104565761019c565b80633998fc44116101595780635d260527116101335780635d2605271461034e5780635d9bd8b21461038b578063722713f7146103a75780638da5cb5b146103d55761019c565b80633998fc44146102ca578063434590af146102e657806346669e17146103115761019c565b806304cd9ccd146101a15780630ccd0834146101de5780631a9fdbd51461021b5780632388cc1a146102465780632a562134146102625780632a9121c71461028d575b600080fd5b3480156101ad57600080fd5b506101c860048036038101906101c391906118b6565b61069b565b6040516101d59190611c08565b60405180910390f35b3480156101ea57600080fd5b50610205600480360381019061020091906118b6565b6106e4565b6040516102129190611c08565b60405180910390f35b34801561022757600080fd5b506102306106fc565b60405161023d9190611c08565b60405180910390f35b610260600480360381019061025b91906118df565b61072f565b005b34801561026e57600080fd5b5061027761088a565b6040516102849190611c08565b60405180910390f35b34801561029957600080fd5b506102b460048036038101906102af91906118df565b610890565b6040516102c19190611c08565b60405180910390f35b6102e460048036038101906102df91906118df565b6109ad565b005b3480156102f257600080fd5b506102fb610b08565b6040516103089190611c08565b60405180910390f35b34801561031d57600080fd5b50610338600480360381019061033391906118b6565b610b0e565b6040516103459190611c08565b60405180910390f35b34801561035a57600080fd5b50610375600480360381019061037091906118b6565b610b26565b6040516103829190611c08565b60405180910390f35b6103a560048036038101906103a091906118df565b610b3e565b005b3480156103b357600080fd5b506103bc610c62565b6040516103cc9493929190611c4c565b60405180910390f35b3480156103e157600080fd5b506103ea610d9c565b6040516103f79190611b24565b60405180910390f35b34801561040c57600080fd5b50610415610dc2565b6040516104229190611c08565b60405180910390f35b34801561043757600080fd5b50610440610dc8565b60405161044d9190611c08565b60405180910390f35b34801561046257600080fd5b5061047d600480360381019061047891906118b6565b610dce565b60405161048a9190611c08565b60405180910390f35b34801561049f57600080fd5b506104a8610e8c565b6040516104b59190611c08565b60405180910390f35b3480156104ca57600080fd5b506104d3610e92565b6040516104e09190611c08565b60405180910390f35b3480156104f557600080fd5b506104fe610e98565b60405161050b9190611c08565b60405180910390f35b34801561052057600080fd5b5061053b600480360381019061053691906118b6565b610e9e565b6040516105489190611b24565b60405180910390f35b34801561055d57600080fd5b50610578600480360381019061057391906118b6565b610ed1565b6040516105859190611c08565b60405180910390f35b34801561059a57600080fd5b506105a3610ee9565b6040516105b09190611c08565b60405180910390f35b3480156105c557600080fd5b506105e060048036038101906105db91906118df565b610ef2565b6040516105f1959493929190611c91565b60405180910390f35b34801561060657600080fd5b50610621600480360381019061061c91906118df565b610fbd565b60405161062f929190611c23565b60405180910390f35b610652600480360381019061064d91906118df565b610ffb565b005b61066e600480360381019061066991906118b6565b611208565b005b34801561067c57600080fd5b50610685611796565b6040516106929190611c08565b60405180910390f35b6000600360008373ffffffffffffffffffffffffffffffffffffffff1673ffffffffffffffffffffffffffffffffffffffff168152602001908152602001600020549050919050565b60006020528060005260406000206000915090505481565b6000806013541480610714575064174876e800600554105b156107265764174876e800905061072c565b60055490505b90565b80600260003373ffffffffffffffffffffffffffffffffffffffff1673ffffffffffffffffffffffffffffffffffffffff1681526020019081526020016000205410156107b1576040517f08c379a00000000000000000000000000000000000000000000000000000000081526004016107a890611b88565b60405180910390fd5b80600260003373ffffffffffffffffffffffffffffffffffffffff1673ffffffffffffffffffffffffffffffffffffffff16815260200190815260200160002060008282546108009190611f47565b925050819055503373ffffffffffffffffffffffffffffffffffffffff166108fc829081150290604051600060405180830381858888f1935050505015801561084d573d6000803e3d6000fd5b507fef38aa7fe00189425522db230e078a1c5e52ae4e3083e5f6757336cb3e95fc8b338260405161087f929190611b3f565b60405180910390a150565b60075481565b600080670de0b6b3a764000064174876e8006108ac9190611eed565b905060006013546402540be40061098d610987601354866402540be40060026108d59190611eed565b6108df9190611eed565b6108e99190611eed565b60026013546108f89190611dcf565b60026402540be40061090a9190611dcf565b6109149190611eed565b670de0b6b3a76400008a6109289190611eed565b670de0b6b3a76400006402540be4006109419190611eed565b600261094d9190611eed565b6109579190611eed565b6002896109649190611dcf565b61096e9190611cf5565b6109789190611cf5565b6109829190611cf5565b61179c565b856117f9565b6109979190611d4b565b6109a19190611f47565b90508092505050919050565b80600360003373ffffffffffffffffffffffffffffffffffffffff1673ffffffffffffffffffffffffffffffffffffffff168152602001908152602001600020541015610a2f576040517f08c379a0000000000000000000000000000000000000000000000000000000008152600401610a2690611b68565b60405180910390fd5b80600360003373ffffffffffffffffffffffffffffffffffffffff1673ffffffffffffffffffffffffffffffffffffffff1681526020019081526020016000206000828254610a7e9190611f47565b925050819055503373ffffffffffffffffffffffffffffffffffffffff166108fc829081150290604051600060405180830381858888f19350505050158015610acb573d6000803e3d6000fd5b507feb6ab569e8b3852c92eb3556e2bf33e5c4054efca5babb26b8ff74654793a9123382604051610afd929190611b3f565b60405180910390a150565b60145481565b60036020528060005260406000206000915090505481565b60016020528060005260406000206000915090505481565b80610b4833610dce565b1015610b89576040517f08c379a0000000000000000000000000000000000000000000000000000000008152600401610b8090611be8565b60405180910390fd5b80600160003373ffffffffffffffffffffffffffffffffffffffff1673ffffffffffffffffffffffffffffffffffffffff1681526020019081526020016000206000828254610bd89190611cf5565b925050819055503373ffffffffffffffffffffffffffffffffffffffff166108fc829081150290604051600060405180830381858888f19350505050158015610c25573d6000803e3d6000fd5b507f5bbdaacc10fd21c95c884d00a49069ea25391d756bb1973cd4bf606dd3b6ee863382604051610c57929190611b3f565b60405180910390a150565b600080600080601354600080600a60009054906101000a900473ffffffffffffffffffffffffffffffffffffffff1673ffffffffffffffffffffffffffffffffffffffff1673ffffffffffffffffffffffffffffffffffffffff16815260200190815260200160002054600080600960009054906101000a900473ffffffffffffffffffffffffffffffffffffffff1673ffffffffffffffffffffffffffffffffffffffff1673ffffffffffffffffffffffffffffffffffffffff16815260200190815260200160002054600080600860009054906101000a900473ffffffffffffffffffffffffffffffffffffffff1673ffffffffffffffffffffffffffffffffffffffff1673ffffffffffffffffffffffffffffffffffffffff16815260200190815260200160002054935093509350935090919293565b600660009054906101000a900473ffffffffffffffffffffffffffffffffffffffff1681565b60055481565b60165481565b600080680100000000000000006011546000808673ffffffffffffffffffffffffffffffffffffffff1673ffffffffffffffffffffffffffffffffffffffff16815260200190815260200160002054610e279190611eed565b610e319190611d4b565b90506000600160008573ffffffffffffffffffffffffffffffffffffffff1673ffffffffffffffffffffffffffffffffffffffff1681526020019081526020016000205482610e809190611f47565b90508092505050919050565b60135481565b60115481565b60155481565b60046020528060005260406000206000915054906101000a900473ffffffffffffffffffffffffffffffffffffffff1681565b60026020528060005260406000206000915090505481565b64174876e80081565b600080600080600080600b54606488610f0b9190611d4b565b610f159190611eed565b90506000600c54606489610f299190611d4b565b610f339190611eed565b90506000600d5460648a610f479190611d4b565b610f519190611eed565b90506000600e5460648b610f659190611d4b565b610f6f9190611eed565b90506000600f5460648c610f839190611d4b565b610f8d9190611eed565b90506000858c610f9d9190611f47565b905080858585859a509a509a509a509a5050505050505091939590929450565b6000806000601054606485610fd29190611d4b565b610fdc9190611eed565b905060008185610fec9190611f47565b90508082935093505050915091565b806000803373ffffffffffffffffffffffffffffffffffffffff1673ffffffffffffffffffffffffffffffffffffffff16815260200190815260200160002054101561107c576040517f08c379a000000000000000000000000000000000000000000000000000000000815260040161107390611ba8565b60405180910390fd5b806000803373ffffffffffffffffffffffffffffffffffffffff1673ffffffffffffffffffffffffffffffffffffffff16815260200190815260200160002060008282546110ca9190611f47565b9250508190555080601360008282546110e39190611f47565b92505081905550600554816110f89190611eed565b60148190555067016345785d8a00006402540be40060145461111a9190611eed565b6111249190611d4b565b6005546111319190611f47565b600581905550600080611145601454610fbd565b91509150816015819055508060168190555081600260003373ffffffffffffffffffffffffffffffffffffffff1673ffffffffffffffffffffffffffffffffffffffff16815260200190815260200160002060008282546111a69190611cf5565b925050819055506111b681611846565b816007546111c49190611f47565b6007819055507f5e5e995ce3133561afceaa51a9a154d5db228cd7525d34df5185582c18d3df0933846040516111fb929190611b3f565b60405180910390a1505050565b600080600080600061121934610ef2565b9450945094509450945064174876e80034101561126b576040517f08c379a000000000000000000000000000000000000000000000000000000000815260040161126290611bc8565b60405180910390fd5b6000806013541480611283575064174876e800600554105b61128f57600554611296565b64174876e8005b9050600081876112a69190611fc4565b9050600081886112b69190611f47565b9050600083826112c69190611d4b565b90506000600460008c73ffffffffffffffffffffffffffffffffffffffff1673ffffffffffffffffffffffffffffffffffffffff16815260200190815260200160002060009054906101000a900473ffffffffffffffffffffffffffffffffffffffff169050816000803373ffffffffffffffffffffffffffffffffffffffff1673ffffffffffffffffffffffffffffffffffffffff168152602001908152602001600020600082825461137a9190611cf5565b925050819055508560036000600860009054906101000a900473ffffffffffffffffffffffffffffffffffffffff1673ffffffffffffffffffffffffffffffffffffffff1673ffffffffffffffffffffffffffffffffffffffff16815260200190815260200160002060008282546113f29190611cf5565b92505081905550600073ffffffffffffffffffffffffffffffffffffffff168b73ffffffffffffffffffffffffffffffffffffffff161461160e5787600360008d73ffffffffffffffffffffffffffffffffffffffff1673ffffffffffffffffffffffffffffffffffffffff168152602001908152602001600020600082825461147c9190611cf5565b925050819055508a600460003373ffffffffffffffffffffffffffffffffffffffff1673ffffffffffffffffffffffffffffffffffffffff16815260200190815260200160002060006101000a81548173ffffffffffffffffffffffffffffffffffffffff021916908373ffffffffffffffffffffffffffffffffffffffff160217905550600073ffffffffffffffffffffffffffffffffffffffff168173ffffffffffffffffffffffffffffffffffffffff16146115905786600360008373ffffffffffffffffffffffffffffffffffffffff1673ffffffffffffffffffffffffffffffffffffffff16815260200190815260200160002060008282546115849190611cf5565b92505081905550611609565b8660036000600860009054906101000a900473ffffffffffffffffffffffffffffffffffffffff1673ffffffffffffffffffffffffffffffffffffffff1673ffffffffffffffffffffffffffffffffffffffff16815260200190815260200160002060008282546116019190611cf5565b925050819055505b6116db565b8760036000600860009054906101000a900473ffffffffffffffffffffffffffffffffffffffff1673ffffffffffffffffffffffffffffffffffffffff1673ffffffffffffffffffffffffffffffffffffffff168152602001908152602001600020819055508660036000600860009054906101000a900473ffffffffffffffffffffffffffffffffffffffff1673ffffffffffffffffffffffffffffffffffffffff1673ffffffffffffffffffffffffffffffffffffffff168152602001908152602001600020819055505b81601360008282546116ed9190611cf5565b925050819055506116fd89611846565b346007600082825461170f9190611cf5565b92505081905550670de0b6b3a76400006402540be400346117309190611eed565b61173a9190611d4b565b64174876e80061174a9190611cf5565b6005819055507fe3d4187f6ca4248660cc0ac8b8056515bac4a8132be2eca31d6d0cc170722a7e3383604051611781929190611b3f565b60405180910390a15050505050505050505050565b60125481565b60008060026001846117ae9190611cf5565b6117b89190611d4b565b90508291505b818110156117f35780915060028182856117d89190611d4b565b6117e29190611cf5565b6117ec9190611d4b565b90506117be565b50919050565b600082821115611832577f4e487b7100000000000000000000000000000000000000000000000000000000600052600160045260246000fd5b818361183e9190611f47565b905092915050565b80601260008282546118589190611cf5565b92505081905550601354680100000000000000006012546118799190611eed565b6118839190611d4b565b60118190555050565b60008135905061189b81612060565b92915050565b6000813590506118b081612077565b92915050565b6000602082840312156118c857600080fd5b60006118d68482850161188c565b91505092915050565b6000602082840312156118f157600080fd5b60006118ff848285016118a1565b91505092915050565b61191181611f7b565b82525050565b6000611924602b83611ce4565b91507f616d6f75746e206d757374206e6f74206578636565642074686520726566657260008301527f72616c2062616c616e63650000000000000000000000000000000000000000006020830152604082019050919050565b600061198a602883611ce4565b91507f616d6f756e74206973206d6f7265207468616e2074686520706572736f6e616c60008301527f2062616c616e63650000000000000000000000000000000000000000000000006020830152604082019050919050565b60006119f0602683611ce4565b91507f616d6f756e74206d757374206265206c6573736572207468616e20746865206260008301527f616c616e636500000000000000000000000000000000000000000000000000006020830152604082019050919050565b6000611a56602483611ce4565b91507f616d6f756e74206d757374206265206772656174686572207468616e20302e3160008301527f20424e42000000000000000000000000000000000000000000000000000000006020830152604082019050919050565b6000611abc602883611ce4565b91507f616d6f756e74206973206d6f7265207468616e20746865206469766964656e6460008301527f2062616c616e63650000000000000000000000000000000000000000000000006020830152604082019050919050565b611b1e81611fad565b82525050565b6000602082019050611b396000830184611908565b92915050565b6000604082019050611b546000830185611908565b611b616020830184611b15565b9392505050565b60006020820190508181036000830152611b8181611917565b9050919050565b60006020820190508181036000830152611ba18161197d565b9050919050565b60006020820190508181036000830152611bc1816119e3565b9050919050565b60006020820190508181036000830152611be181611a49565b9050919050565b60006020820190508181036000830152611c0181611aaf565b9050919050565b6000602082019050611c1d6000830184611b15565b92915050565b6000604082019050611c386000830185611b15565b611c456020830184611b15565b9392505050565b6000608082019050611c616000830187611b15565b611c6e6020830186611b15565b611c7b6040830185611b15565b611c886060830184611b15565b95945050505050565b600060a082019050611ca66000830188611b15565b611cb36020830187611b15565b611cc06040830186611b15565b611ccd6060830185611b15565b611cda6080830184611b15565b9695505050505050565b600082825260208201905092915050565b6000611d0082611fad565b9150611d0b83611fad565b9250827fffffffffffffffffffffffffffffffffffffffffffffffffffffffffffffffff03821115611d4057611d3f611ff5565b5b828201905092915050565b6000611d5682611fad565b9150611d6183611fad565b925082611d7157611d70612024565b5b828204905092915050565b6000808291508390505b6001851115611dc657808604811115611da257611da1611ff5565b5b6001851615611db15780820291505b8081029050611dbf85612053565b9450611d86565b94509492505050565b6000611dda82611fad565b9150611de583611fb7565b9250611e127fffffffffffffffffffffffffffffffffffffffffffffffffffffffffffffffff8484611e1a565b905092915050565b600082611e2a5760019050611ee6565b81611e385760009050611ee6565b8160018114611e4e5760028114611e5857611e87565b6001915050611ee6565b60ff841115611e6a57611e69611ff5565b5b8360020a915084821115611e8157611e80611ff5565b5b50611ee6565b5060208310610133831016604e8410600b8410161715611ebc5782820a905083811115611eb757611eb6611ff5565b5b611ee6565b611ec98484846001611d7c565b92509050818404811115611ee057611edf611ff5565b5b81810290505b9392505050565b6000611ef882611fad565b9150611f0383611fad565b9250817fffffffffffffffffffffffffffffffffffffffffffffffffffffffffffffffff0483118215151615611f3c57611f3b611ff5565b5b828202905092915050565b6000611f5282611fad565b9150611f5d83611fad565b925082821015611f7057611f6f611ff5565b5b828203905092915050565b6000611f8682611f8d565b9050919050565b600073ffffffffffffffffffffffffffffffffffffffff82169050919050565b6000819050919050565b600060ff82169050919050565b6000611fcf82611fad565b9150611fda83611fad565b925082611fea57611fe9612024565b5b828206905092915050565b7f4e487b7100000000000000000000000000000000000000000000000000000000600052601160045260246000fd5b7f4e487b7100000000000000000000000000000000000000000000000000000000600052601260045260246000fd5b60008160011c9050919050565b61206981611f7b565b811461207457600080fd5b50565b61208081611fad565b811461208b57600080fd5b5056fea264697066735822122049dc3a1069c9becfa34db5e5a293e97c4f7e06d3f508211c627e012f05df86b664736f6c63430008000033",
  "immutableReferences": {},
  "source": "// SPDX-License-Identifier: MIT\r\n\r\npragma solidity ^0.8.0;\r\n\r\ncontract GoldSeek3 {\r\n     uint256 constant public tokenPriceInitial_ = 0.0000001 ether;\r\n     uint256 constant internal tokenPriceIncremental_ = 0.00000001 ether;\r\n     \r\n     uint256 constant internal magnitude = 2**64;\r\n    mapping (address => uint256) public _holderBalances;\r\n    mapping (address => uint256) public _holderPaidOUt;\r\n    mapping (address => uint256) public _holderPersonalEth;\r\n    mapping (address => uint256) public _ReferralCommission;\r\n    mapping (address => address) public _referrerMapping;\r\nuint256 public _existingPrice = tokenPriceInitial_;\r\n    address public owner;\r\n//    uint256 public RSupply;\r\n    uint256 public TotalEthStaked;\r\n    address _admin = 0x0000000000000000A0D000000000000000000000;  \r\n    address _Referer = 0x412fc8F58D2c68D5C1c7A011660aefA5f261d862;\r\n    address I_Referer = 0x7cfa8CD3DA48dE9D86aD221662f38A1295D177eC;\r\n    uint256 commission = 25;\r\n    uint256 redistribution = 10;\r\n    uint256 direcREferCommission = 7;\r\n    uint256 inDirecREferCommission = 3;\r\n    uint256 adminFee = 5;\r\n    uint256 SellingCommission = 7;\r\n    uint256 public rateOfDiv;\r\n    uint256 public DividendPool;\r\n\r\n //   uint256 public DividendPerToken;\r\n    \r\n    uint256 public TotalSupply = 0;\r\n    \r\n    constructor (){\r\n        owner = msg.sender;\r\n    }\r\n    \r\n    \r\n    event Buy (address buyer, uint256 amount);\r\n    function buy(address referrer)public payable {\r\n        \r\n        (\r\n          uint256 tTransfer,\r\n          uint256 dist,\r\n         uint256 drc,\r\n         uint256 Idrc,\r\n         uint256 afee) = getTValues(msg.value);\r\n        \r\n         require(msg.value>=tokenPriceInitial_,\"amount must be greather than 0.1 BNB\");\r\n         uint256 price = TotalSupply==0 || _existingPrice< tokenPriceInitial_? tokenPriceInitial_ :_existingPrice;\r\n         uint256 Purremainder = tTransfer%price;\r\n         uint256 tokenValue = tTransfer - Purremainder;\r\n         uint256 tokenQty = tokenValue / price;\r\n        address indRferrer = _referrerMapping[referrer];\r\n        \r\n        _holderBalances[msg.sender] += tokenQty; \r\n        _ReferralCommission[_admin] += afee;\r\n    \r\n        if(referrer != 0x0000000000000000000000000000000000000000)\r\n            {_ReferralCommission[referrer] += drc;\r\n              _referrerMapping[msg.sender] = referrer;\r\n                if(indRferrer != 0x0000000000000000000000000000000000000000){_ReferralCommission[indRferrer] += Idrc;}\r\n                else{_ReferralCommission[_admin]+=Idrc;}\r\n            }\r\n        else{_ReferralCommission[_admin]= drc; _ReferralCommission[_admin]= Idrc;}\r\n        \r\n\r\n    \r\n        \r\n        TotalSupply += tokenQty;\r\n        processDiv(dist);\r\n        TotalEthStaked += msg.value;\r\n        _existingPrice = tokenPriceInitial_ + (msg.value*tokenPriceIncremental_/1000000000000000000);\r\n        \r\n//        processEthStocked(msg.value,true);\r\n        \r\n        emit Buy(msg.sender,tokenQty);\r\n        \r\n        }\r\n        \r\n\r\n    function existingPrice() view public returns(uint256){\r\n        if(TotalSupply==0 || _existingPrice < tokenPriceInitial_){return tokenPriceInitial_;}\r\n        else{return _existingPrice;}\r\n    }\r\n    \r\n    uint256 public valueforSale;\r\n    uint256  public tTransferPUblic; \r\n    uint256  public tfeepublic; \r\n    \r\n    event Sell(address seller,uint256 amount);\r\n    function sell(uint256 number) public payable {\r\n        \r\n        \r\n         require(_holderBalances[msg.sender]>=number,\"amount must be lesser than the balance\");\r\n         _holderBalances[msg.sender]-=number;\r\n         TotalSupply -=number;\r\n         valueforSale = number*(_existingPrice);\r\n         _existingPrice = _existingPrice -(valueforSale*tokenPriceIncremental_/100000000000000000);\r\n        \r\n         (\r\n           uint256 tTransfer,uint256 tfee) = getSValues(valueforSale);\r\n        \r\n        tTransferPUblic = tTransfer;\r\n        tfeepublic = tfee;\r\n         \r\n        _holderPersonalEth[msg.sender] += tTransfer;\r\n\r\n        processDiv(tfee);\r\n        TotalEthStaked = TotalEthStaked-tTransfer;\r\n        emit Sell(msg.sender,number);\r\n    }\r\n    \r\n    \r\n    function processEthStocked (uint256 amount, bool trx)internal {\r\n      if(trx == true){TotalEthStaked += amount;}\r\n      else if(trx == false){TotalEthStaked -= amount;}\r\n    }\r\n    \r\n    // function Dividendsell(uint256 number) public payable {\r\n    \r\n        \r\n\r\n    //     _holderBalances[address(this)] -= number;\r\n    \r\n    //      TotalSupply -= number;\r\n         \r\n    //      uint256 rate = ethereumToTokens_(100000000000);\r\n    //      uint256 valueOFSell = number*rate / (100000000000 * 1000000000000000000);\r\n    //     _holderPersonalEth[msg.sender] += valueOFSell;\r\n        \r\n    // }\r\n    \r\n    function processDiv(uint256 tfee) internal {\r\n        DividendPool += tfee;\r\n        rateOfDiv = DividendPool * magnitude / TotalSupply;\r\n    }\r\n    \r\n    function dividendBalance(address holder) public view returns(uint256) {\r\n        uint256 _dividendBalance = _holderBalances[holder] * rateOfDiv / magnitude;\r\n        uint256 dividendTopay = _dividendBalance - _holderPaidOUt[holder];\r\n        return dividendTopay;\r\n    }\r\n    \r\n    function ReferralBalance(address holder) public view returns(uint256) {\r\n        return _ReferralCommission[holder];\r\n    }\r\n    \r\n    event WithdrawrReferral (address buyer, uint256 amount);\r\n    function withdrawrReferral(uint256 amount) public payable {\r\n    require(_ReferralCommission[msg.sender] >=amount,\"amoutn must not exceed the referral balance\");\r\n    _ReferralCommission[msg.sender]-=amount;\r\n    payable(msg.sender).transfer(amount);\r\n    emit WithdrawrReferral(msg.sender,amount);\r\n    }\r\n    \r\n        event WithDividend (address buyer, uint256 amount);\r\n    function withdrawDividend(uint256 amount) payable public {\r\n        require(dividendBalance(msg.sender)>=amount,\"amount is more than the dividend balance\");\r\n        _holderPaidOUt[msg.sender] += amount;\r\n         payable(msg.sender).transfer(amount);\r\n         emit WithDividend(msg.sender,amount);\r\n    }\r\n            event WithPersonalEth (address buyer, uint256 amount);\r\nfunction withdrawPersonalEth(uint256 amount) payable public {\r\n        require(_holderPersonalEth[msg.sender]>=amount,\"amount is more than the personal balance\");\r\n        _holderPersonalEth[msg.sender] -= amount;\r\n         payable(msg.sender).transfer(amount);\r\n         emit WithPersonalEth(msg.sender,amount);\r\n    }\r\n    \r\n    \r\nfunction balanceOf() public view returns(uint256,uint256,uint256,uint256){\r\n        return (TotalSupply,_holderBalances[I_Referer],_holderBalances[_Referer],_holderBalances[_admin]);\r\n    }\r\n\r\n\r\nfunction getTValues (uint256 tamount) public view returns (uint256,uint256,uint256,uint256,uint256){\r\n        uint256 tfee = tamount/100*commission;\r\n        uint256 dist = tamount/100*redistribution;\r\n        uint256 drc = tamount/100*direcREferCommission;\r\n        uint256 Idrc = tamount/100*inDirecREferCommission;\r\n        uint256 afee = tamount/100*adminFee;\r\n        uint256 tTransfer = tamount-tfee;\r\n        return ( tTransfer,dist,drc,Idrc,afee);\r\n    }\r\n    \r\n    \r\n    function getSValues (uint256 tamount) public view returns (uint256,uint256){\r\n        uint256 tfee = tamount/100*SellingCommission;\r\n        uint256 tTransfer = tamount-tfee;\r\n        return ( tTransfer,tfee);\r\n    }\r\n    \r\n\r\n    \r\n    \r\n    \r\n\r\nfunction ethereumToTokens_(uint256 _ethereum)\r\n        public\r\n        view\r\n        returns(uint256)\r\n    {\r\n        uint256 _tokenPriceInitial = tokenPriceInitial_ * 1e18;\r\n        uint256 _tokensReceived = \r\n         (\r\n            (\r\n                // underflow attempts BTFO\r\n                SafeMath.sub(\r\n                    (sqrt\r\n                        (\r\n                            (_tokenPriceInitial**2)\r\n                            +\r\n                            (2*(tokenPriceIncremental_ * 1e18)*(_ethereum * 1e18))\r\n                            +\r\n                            (((tokenPriceIncremental_)**2)*(TotalSupply**2))\r\n                            +\r\n                            (2*(tokenPriceIncremental_)*_tokenPriceInitial*TotalSupply)\r\n                        )\r\n                    ), _tokenPriceInitial\r\n                )\r\n            )/(tokenPriceIncremental_)\r\n        )-(TotalSupply)\r\n        ;\r\n        \r\n            return _tokensReceived;\r\n    }\r\n    \r\n    \r\n            function sqrt(uint x) internal pure returns (uint y) {\r\n        uint z = (x + 1) / 2;\r\n        y = x;\r\n        while (z < y) {\r\n            y = z;\r\n            z = (x / z + z) / 2;\r\n        }\r\n    }\r\n    \r\n    \r\n}\r\n\r\n\r\n\r\n\r\n\r\nlibrary SafeMath {\r\n\r\n   \r\n    function mul(uint256 a, uint256 b) internal pure returns (uint256) {\r\n        if (a == 0) {\r\n            return 0;\r\n        }\r\n        uint256 c = a * b;\r\n        assert(c / a == b);\r\n        return c;\r\n    }\r\n\r\n   \r\n    function div(uint256 a, uint256 b) internal pure returns (uint256) {\r\n        // assert(b > 0); // Solidity automatically throws when dividing by 0\r\n        uint256 c = a / b;\r\n        // assert(a == b * c + a % b); // There is no case in which this doesn't hold\r\n        return c;\r\n    }\r\n\r\n    \r\n    function sub(uint256 a, uint256 b) internal pure returns (uint256) {\r\n        assert(b <= a);\r\n        return a - b;\r\n    }\r\n\r\n   \r\n    function add(uint256 a, uint256 b) internal pure returns (uint256) {\r\n        uint256 c = a + b;\r\n        assert(c >= a);\r\n        return c;\r\n    }\r\n\r\n/**\r\n* Also in memory of JPK, miss you Dad.\r\n*/\r\n    \r\n}\r\n\r\n\r\n\r\n\r\n\r\n\r\n\r\n\r\n\r\n\r\n\r\n\r\n\r\n",
  "sourcePath": "D:/fiverr/Owen/SeekGold2/contracts/Price5.sol",
  "compiler": {
    "name": "solc",
    "version": "0.8.0+commit.c7dfd78e.Emscripten.clang"
  },
  "schemaVersion": "3.3.4",
  "updatedAt": "2021-07-02T18:31:54.233Z",
  "networkType": "ethereum",
  "devdoc": {
    "kind": "dev",
    "methods": {},
    "version": 1
  },
  "userdoc": {
    "kind": "user",
    "methods": {},
    "version": 1
  }
}