{
  "contractName": "GoldSeek3",
  "abi": [
    {
      "inputs": [],
      "stateMutability": "nonpayable",
      "type": "constructor"
    },
    {
      "anonymous": false,
      "inputs": [
        {
          "indexed": false,
          "internalType": "address",
          "name": "buyer",
          "type": "address"
        },
        {
          "indexed": false,
          "internalType": "uint256",
          "name": "amount",
          "type": "uint256"
        }
      ],
      "name": "Buy",
      "type": "event"
    },
    {
      "anonymous": false,
      "inputs": [
        {
          "indexed": false,
          "internalType": "address",
          "name": "seller",
          "type": "address"
        },
        {
          "indexed": false,
          "internalType": "uint256",
          "name": "amount",
          "type": "uint256"
        }
      ],
      "name": "Sell",
      "type": "event"
    },
    {
      "anonymous": false,
      "inputs": [
        {
          "indexed": false,
          "internalType": "address",
          "name": "buyer",
          "type": "address"
        },
        {
          "indexed": false,
          "internalType": "uint256",
          "name": "amount",
          "type": "uint256"
        }
      ],
      "name": "WithDividend",
      "type": "event"
    },
    {
      "anonymous": false,
      "inputs": [
        {
          "indexed": false,
          "internalType": "address",
          "name": "buyer",
          "type": "address"
        },
        {
          "indexed": false,
          "internalType": "uint256",
          "name": "amount",
          "type": "uint256"
        }
      ],
      "name": "WithPersonalEth",
      "type": "event"
    },
    {
      "anonymous": false,
      "inputs": [
        {
          "indexed": false,
          "internalType": "address",
          "name": "buyer",
          "type": "address"
        },
        {
          "indexed": false,
          "internalType": "uint256",
          "name": "amount",
          "type": "uint256"
        }
      ],
      "name": "WithdrawrReferral",
      "type": "event"
    },
    {
      "inputs": [],
      "name": "TotalSupply",
      "outputs": [
        {
          "internalType": "uint256",
          "name": "",
          "type": "uint256"
        }
      ],
      "stateMutability": "view",
      "type": "function",
      "constant": true
    },
    {
      "inputs": [
        {
          "internalType": "address",
          "name": "",
          "type": "address"
        }
      ],
      "name": "_DividendMapping",
      "outputs": [
        {
          "internalType": "uint256",
          "name": "",
          "type": "uint256"
        }
      ],
      "stateMutability": "view",
      "type": "function",
      "constant": true
    },
    {
      "inputs": [
        {
          "internalType": "address",
          "name": "",
          "type": "address"
        }
      ],
      "name": "_IndexMapping",
      "outputs": [
        {
          "internalType": "uint256",
          "name": "",
          "type": "uint256"
        }
      ],
      "stateMutability": "view",
      "type": "function",
      "constant": true
    },
    {
      "inputs": [
        {
          "internalType": "address",
          "name": "",
          "type": "address"
        }
      ],
      "name": "_ReferralCommission",
      "outputs": [
        {
          "internalType": "uint256",
          "name": "",
          "type": "uint256"
        }
      ],
      "stateMutability": "view",
      "type": "function",
      "constant": true
    },
    {
      "inputs": [],
      "name": "_existingPrice",
      "outputs": [
        {
          "internalType": "uint256",
          "name": "",
          "type": "uint256"
        }
      ],
      "stateMutability": "view",
      "type": "function",
      "constant": true
    },
    {
      "inputs": [
        {
          "internalType": "uint256",
          "name": "",
          "type": "uint256"
        }
      ],
      "name": "_holderArray",
      "outputs": [
        {
          "internalType": "address",
          "name": "",
          "type": "address"
        }
      ],
      "stateMutability": "view",
      "type": "function",
      "constant": true
    },
    {
      "inputs": [
        {
          "internalType": "address",
          "name": "",
          "type": "address"
        }
      ],
      "name": "_holderBalances",
      "outputs": [
        {
          "internalType": "uint256",
          "name": "",
          "type": "uint256"
        }
      ],
      "stateMutability": "view",
      "type": "function",
      "constant": true
    },
    {
      "inputs": [
        {
          "internalType": "address",
          "name": "",
          "type": "address"
        }
      ],
      "name": "_holderPaidOUt",
      "outputs": [
        {
          "internalType": "uint256",
          "name": "",
          "type": "uint256"
        }
      ],
      "stateMutability": "view",
      "type": "function",
      "constant": true
    },
    {
      "inputs": [
        {
          "internalType": "address",
          "name": "",
          "type": "address"
        }
      ],
      "name": "_holderPersonalEth",
      "outputs": [
        {
          "internalType": "uint256",
          "name": "",
          "type": "uint256"
        }
      ],
      "stateMutability": "view",
      "type": "function",
      "constant": true
    },
    {
      "inputs": [
        {
          "internalType": "address",
          "name": "",
          "type": "address"
        }
      ],
      "name": "_referrerMapping",
      "outputs": [
        {
          "internalType": "address",
          "name": "",
          "type": "address"
        }
      ],
      "stateMutability": "view",
      "type": "function",
      "constant": true
    },
    {
      "inputs": [],
      "name": "counter",
      "outputs": [
        {
          "internalType": "uint256",
          "name": "",
          "type": "uint256"
        }
      ],
      "stateMutability": "view",
      "type": "function",
      "constant": true
    },
    {
      "inputs": [],
      "name": "frDiv",
      "outputs": [
        {
          "internalType": "uint256",
          "name": "",
          "type": "uint256"
        }
      ],
      "stateMutability": "view",
      "type": "function",
      "constant": true
    },
    {
      "inputs": [],
      "name": "owner",
      "outputs": [
        {
          "internalType": "address",
          "name": "",
          "type": "address"
        }
      ],
      "stateMutability": "view",
      "type": "function",
      "constant": true
    },
    {
      "inputs": [],
      "name": "tTransferPUblic",
      "outputs": [
        {
          "internalType": "uint256",
          "name": "",
          "type": "uint256"
        }
      ],
      "stateMutability": "view",
      "type": "function",
      "constant": true
    },
    {
      "inputs": [],
      "name": "tfeepublic",
      "outputs": [
        {
          "internalType": "uint256",
          "name": "",
          "type": "uint256"
        }
      ],
      "stateMutability": "view",
      "type": "function",
      "constant": true
    },
    {
      "inputs": [],
      "name": "tokenPriceInitial_",
      "outputs": [
        {
          "internalType": "uint256",
          "name": "",
          "type": "uint256"
        }
      ],
      "stateMutability": "view",
      "type": "function",
      "constant": true
    },
    {
      "inputs": [],
      "name": "valueforSale",
      "outputs": [
        {
          "internalType": "uint256",
          "name": "",
          "type": "uint256"
        }
      ],
      "stateMutability": "view",
      "type": "function",
      "constant": true
    },
    {
      "inputs": [
        {
          "internalType": "address",
          "name": "referrer",
          "type": "address"
        }
      ],
      "name": "buy",
      "outputs": [],
      "stateMutability": "payable",
      "type": "function",
      "payable": true
    },
    {
      "inputs": [
        {
          "internalType": "address",
          "name": "referrer",
          "type": "address"
        },
        {
          "internalType": "uint256",
          "name": "value",
          "type": "uint256"
        }
      ],
      "name": "buyInvest",
      "outputs": [],
      "stateMutability": "payable",
      "type": "function",
      "payable": true
    },
    {
      "inputs": [],
      "name": "reinvest",
      "outputs": [],
      "stateMutability": "nonpayable",
      "type": "function"
    },
    {
      "inputs": [],
      "name": "existingPrice",
      "outputs": [
        {
          "internalType": "uint256",
          "name": "",
          "type": "uint256"
        }
      ],
      "stateMutability": "view",
      "type": "function",
      "constant": true
    },
    {
      "inputs": [],
      "name": "SaleexistingPrice",
      "outputs": [
        {
          "internalType": "uint256",
          "name": "",
          "type": "uint256"
        }
      ],
      "stateMutability": "view",
      "type": "function",
      "constant": true
    },
    {
      "inputs": [
        {
          "internalType": "uint256",
          "name": "number",
          "type": "uint256"
        }
      ],
      "name": "sell",
      "outputs": [],
      "stateMutability": "payable",
      "type": "function",
      "payable": true
    },
    {
      "inputs": [
        {
          "internalType": "address",
          "name": "holder",
          "type": "address"
        }
      ],
      "name": "dividendBalance",
      "outputs": [
        {
          "internalType": "uint256",
          "name": "",
          "type": "uint256"
        }
      ],
      "stateMutability": "view",
      "type": "function",
      "constant": true
    },
    {
      "inputs": [],
      "name": "redeemBNBs",
      "outputs": [],
      "stateMutability": "nonpayable",
      "type": "function"
    },
    {
      "inputs": [
        {
          "internalType": "address",
          "name": "holder",
          "type": "address"
        }
      ],
      "name": "ReferralBalance",
      "outputs": [
        {
          "internalType": "uint256",
          "name": "",
          "type": "uint256"
        }
      ],
      "stateMutability": "view",
      "type": "function",
      "constant": true
    },
    {
      "inputs": [],
      "name": "AccountBalance",
      "outputs": [
        {
          "internalType": "uint256",
          "name": "",
          "type": "uint256"
        }
      ],
      "stateMutability": "view",
      "type": "function",
      "constant": true
    },
    {
      "inputs": [
        {
          "internalType": "uint256",
          "name": "amount",
          "type": "uint256"
        }
      ],
      "name": "withdrawrReferral",
      "outputs": [],
      "stateMutability": "payable",
      "type": "function",
      "payable": true
    },
    {
      "inputs": [],
      "name": "withdrawrReferralAdmin",
      "outputs": [],
      "stateMutability": "payable",
      "type": "function",
      "payable": true
    },
    {
      "inputs": [
        {
          "internalType": "uint256",
          "name": "amount",
          "type": "uint256"
        }
      ],
      "name": "withdrawDividend",
      "outputs": [],
      "stateMutability": "payable",
      "type": "function",
      "payable": true
    },
    {
      "inputs": [
        {
          "internalType": "uint256",
          "name": "amount",
          "type": "uint256"
        }
      ],
      "name": "withdrawPersonalEth",
      "outputs": [],
      "stateMutability": "payable",
      "type": "function",
      "payable": true
    },
    {
      "inputs": [
        {
          "internalType": "address",
          "name": "holder",
          "type": "address"
        }
      ],
      "name": "balanceOf",
      "outputs": [
        {
          "internalType": "uint256",
          "name": "",
          "type": "uint256"
        }
      ],
      "stateMutability": "view",
      "type": "function",
      "constant": true
    },
    {
      "inputs": [
        {
          "internalType": "uint256",
          "name": "tamount",
          "type": "uint256"
        }
      ],
      "name": "getTValues",
      "outputs": [
        {
          "internalType": "uint256",
          "name": "",
          "type": "uint256"
        },
        {
          "internalType": "uint256",
          "name": "",
          "type": "uint256"
        },
        {
          "internalType": "uint256",
          "name": "",
          "type": "uint256"
        },
        {
          "internalType": "uint256",
          "name": "",
          "type": "uint256"
        },
        {
          "internalType": "uint256",
          "name": "",
          "type": "uint256"
        }
      ],
      "stateMutability": "view",
      "type": "function",
      "constant": true
    },
    {
      "inputs": [
        {
          "internalType": "uint256",
          "name": "tamount",
          "type": "uint256"
        }
      ],
      "name": "getSValues",
      "outputs": [
        {
          "internalType": "uint256",
          "name": "",
          "type": "uint256"
        },
        {
          "internalType": "uint256",
          "name": "",
          "type": "uint256"
        }
      ],
      "stateMutability": "view",
      "type": "function",
      "constant": true
    }
  ],
  "bytecode": "0x60806040526512309ce540006008556001600a5573b27a5715dee0b91cc60da06c1bb860aba44db804600b60006101000a81548173ffffffffffffffffffffffffffffffffffffffff021916908373ffffffffffffffffffffffffffffffffffffffff1602179055506019600c55600a600d556007600e556003600f5560056010556007601155600060125534801561009757600080fd5b5033600960006101000a81548173ffffffffffffffffffffffffffffffffffffffff021916908373ffffffffffffffffffffffffffffffffffffffff16021790555061295d806100e86000396000f3fe6080604052600436106101f95760003560e01c80638e32380e1161010d578063c4c1b39a116100a0578063dceaa8471161006f578063dceaa8471461075c578063e4849b321461079a578063f088d547146107b6578063f721f465146107d2578063fdb5a03e146107e9576101f9565b8063c4c1b39a146106a9578063d1549524146106d4578063d16b2575146106ff578063da743da01461071b576101f9565b8063a44b47f7116100dc578063a44b47f7146105d9578063b49fbd7e14610604578063baa0523f1461062f578063bf3dd4f11461066c576101f9565b80638e32380e146105095780639a7727e714610534578063a0afd7311461055f578063a327701a1461059c576101f9565b80634823fdd41161019057806361bc221a1161015f57806361bc221a1461040e5780636f6a0bb41461043957806370a082311461047657806377c3ef3d146104b35780638da5cb5b146104de576101f9565b80634823fdd41461034d5780635d260527146103785780635d9bd8b2146103b557806361889f7e146103d1576101f9565b80632388cc1a116101cc5780632388cc1a146102ad5780633998fc44146102c9578063434590af146102e557806346669e1714610310576101f9565b806304cd9ccd146101fe5780630ccd08341461023b5780630dc020e2146102785780631a9fdbd514610282575b600080fd5b34801561020a57600080fd5b506102256004803603810190610220919061229e565b610800565b604051610232919061262c565b60405180910390f35b34801561024757600080fd5b50610262600480360381019061025d919061229e565b610849565b60405161026f919061262c565b60405180910390f35b610280610861565b005b34801561028e57600080fd5b5061029761099a565b6040516102a4919061262c565b60405180910390f35b6102c760048036038101906102c29190612303565b6109cf565b005b6102e360048036038101906102de9190612303565b610b2a565b005b3480156102f157600080fd5b506102fa610c85565b604051610307919061262c565b60405180910390f35b34801561031c57600080fd5b506103376004803603810190610332919061229e565b610c8b565b604051610344919061262c565b60405180910390f35b34801561035957600080fd5b50610362610ca3565b60405161036f919061262c565b60405180910390f35b34801561038457600080fd5b5061039f600480360381019061039a919061229e565b610d16565b6040516103ac919061262c565b60405180910390f35b6103cf60048036038101906103ca9190612303565b610d2e565b005b3480156103dd57600080fd5b506103f860048036038101906103f3919061229e565b610e52565b604051610405919061262c565b60405180910390f35b34801561041a57600080fd5b50610423610e6a565b604051610430919061262c565b60405180910390f35b34801561044557600080fd5b50610460600480360381019061045b9190612303565b610e70565b60405161046d9190612548565b60405180910390f35b34801561048257600080fd5b5061049d6004803603810190610498919061229e565b610eaf565b6040516104aa919061262c565b60405180910390f35b3480156104bf57600080fd5b506104c8610ef7565b6040516104d5919061262c565b60405180910390f35b3480156104ea57600080fd5b506104f3610eff565b6040516105009190612548565b60405180910390f35b34801561051557600080fd5b5061051e610f25565b60405161052b919061262c565b60405180910390f35b34801561054057600080fd5b50610549610f2b565b604051610556919061262c565b60405180910390f35b34801561056b57600080fd5b506105866004803603810190610581919061229e565b610f31565b604051610593919061262c565b60405180910390f35b3480156105a857600080fd5b506105c360048036038101906105be919061229e565b610fc9565b6040516105d0919061262c565b60405180910390f35b3480156105e557600080fd5b506105ee610fe1565b6040516105fb919061262c565b60405180910390f35b34801561061057600080fd5b50610619610fe7565b604051610626919061262c565b60405180910390f35b34801561063b57600080fd5b506106566004803603810190610651919061229e565b610fed565b6040516106639190612548565b60405180910390f35b34801561067857600080fd5b50610693600480360381019061068e919061229e565b611020565b6040516106a0919061262c565b60405180910390f35b3480156106b557600080fd5b506106be611038565b6040516106cb919061262c565b60405180910390f35b3480156106e057600080fd5b506106e9611042565b6040516106f6919061262c565b60405180910390f35b610719600480360381019061071491906122c7565b611048565b005b34801561072757600080fd5b50610742600480360381019061073d9190612303565b61153f565b604051610753959493929190612670565b60405180910390f35b34801561076857600080fd5b50610783600480360381019061077e9190612303565b61160a565b604051610791929190612647565b60405180910390f35b6107b460048036038101906107af9190612303565b611648565b005b6107d060048036038101906107cb919061229e565b611845565b005b3480156107de57600080fd5b506107e7611ed2565b005b3480156107f557600080fd5b506107fe611f94565b005b6000600360008373ffffffffffffffffffffffffffffffffffffffff1673ffffffffffffffffffffffffffffffffffffffff168152602001908152602001600020549050919050565b60006020528060005260406000206000915090505481565b600060036000600b60009054906101000a900473ffffffffffffffffffffffffffffffffffffffff1673ffffffffffffffffffffffffffffffffffffffff1673ffffffffffffffffffffffffffffffffffffffff168152602001908152602001600020549050600b60009054906101000a900473ffffffffffffffffffffffffffffffffffffffff1673ffffffffffffffffffffffffffffffffffffffff166108fc829081150290604051600060405180830381858888f1935050505015801561092f573d6000803e3d6000fd5b50600060036000600b60009054906101000a900473ffffffffffffffffffffffffffffffffffffffff1673ffffffffffffffffffffffffffffffffffffffff1673ffffffffffffffffffffffffffffffffffffffff1681526020019081526020016000208190555050565b60008060125414806109b357506512309ce54000600854105b156109c6576512309ce5400090506109cc565b60085490505b90565b80600260003373ffffffffffffffffffffffffffffffffffffffff1673ffffffffffffffffffffffffffffffffffffffff168152602001908152602001600020541015610a51576040517f08c379a0000000000000000000000000000000000000000000000000000000008152600401610a48906125cc565b60405180910390fd5b80600260003373ffffffffffffffffffffffffffffffffffffffff1673ffffffffffffffffffffffffffffffffffffffff1681526020019081526020016000206000828254610aa091906127b5565b925050819055503373ffffffffffffffffffffffffffffffffffffffff166108fc829081150290604051600060405180830381858888f19350505050158015610aed573d6000803e3d6000fd5b507fef38aa7fe00189425522db230e078a1c5e52ae4e3083e5f6757336cb3e95fc8b3382604051610b1f929190612563565b60405180910390a150565b80600360003373ffffffffffffffffffffffffffffffffffffffff1673ffffffffffffffffffffffffffffffffffffffff168152602001908152602001600020541015610bac576040517f08c379a0000000000000000000000000000000000000000000000000000000008152600401610ba39061258c565b60405180910390fd5b80600360003373ffffffffffffffffffffffffffffffffffffffff1673ffffffffffffffffffffffffffffffffffffffff1681526020019081526020016000206000828254610bfb91906127b5565b925050819055503373ffffffffffffffffffffffffffffffffffffffff166108fc829081150290604051600060405180830381858888f19350505050158015610c48573d6000803e3d6000fd5b507feb6ab569e8b3852c92eb3556e2bf33e5c4054efca5babb26b8ff74654793a9123382604051610c7a929190612563565b60405180910390a150565b60135481565b60036020528060005260406000206000915090505481565b600080606460506512309ce54000610cbb919061275b565b610cc5919061272a565b9050600060646050600854610cda919061275b565b610ce4919061272a565b905060006012541480610cfe57506512309ce54000600854105b15610d0d578192505050610d13565b80925050505b90565b60016020528060005260406000206000915090505481565b80610d3833610f31565b1015610d79576040517f08c379a0000000000000000000000000000000000000000000000000000000008152600401610d709061260c565b60405180910390fd5b80600160003373ffffffffffffffffffffffffffffffffffffffff1673ffffffffffffffffffffffffffffffffffffffff1681526020019081526020016000206000828254610dc891906126d4565b925050819055503373ffffffffffffffffffffffffffffffffffffffff166108fc829081150290604051600060405180830381858888f19350505050158015610e15573d6000803e3d6000fd5b507f5bbdaacc10fd21c95c884d00a49069ea25391d756bb1973cd4bf606dd3b6ee863382604051610e47929190612563565b60405180910390a150565b60066020528060005260406000206000915090505481565b600a5481565b60078181548110610e8057600080fd5b906000526020600020016000915054906101000a900473ffffffffffffffffffffffffffffffffffffffff1681565b60008060008373ffffffffffffffffffffffffffffffffffffffff1673ffffffffffffffffffffffffffffffffffffffff168152602001908152602001600020549050919050565b600047905090565b600960009054906101000a900473ffffffffffffffffffffffffffffffffffffffff1681565b60085481565b60155481565b600080600160008473ffffffffffffffffffffffffffffffffffffffff1673ffffffffffffffffffffffffffffffffffffffff16815260200190815260200160002054600560008573ffffffffffffffffffffffffffffffffffffffff1673ffffffffffffffffffffffffffffffffffffffff16815260200190815260200160002054610fbe91906127b5565b905080915050919050565b60056020528060005260406000206000915090505481565b60125481565b60145481565b60046020528060005260406000206000915054906101000a900473ffffffffffffffffffffffffffffffffffffffff1681565b60026020528060005260406000206000915090505481565b6512309ce5400081565b60165481565b60008060008060006110598661153f565b94509450945094509450600061106d61099a565b90506000818761107d919061286a565b90506000818861108d91906127b5565b90506000838261109d919061272a565b90506000600460008d73ffffffffffffffffffffffffffffffffffffffff1673ffffffffffffffffffffffffffffffffffffffff16815260200190815260200160002060009054906101000a900473ffffffffffffffffffffffffffffffffffffffff169050816000803373ffffffffffffffffffffffffffffffffffffffff1673ffffffffffffffffffffffffffffffffffffffff168152602001908152602001600020600082825461115191906126d4565b925050819055508560036000600b60009054906101000a900473ffffffffffffffffffffffffffffffffffffffff1673ffffffffffffffffffffffffffffffffffffffff1673ffffffffffffffffffffffffffffffffffffffff16815260200190815260200160002060008282546111c991906126d4565b92505081905550600073ffffffffffffffffffffffffffffffffffffffff168c73ffffffffffffffffffffffffffffffffffffffff16146113e55787600360008e73ffffffffffffffffffffffffffffffffffffffff1673ffffffffffffffffffffffffffffffffffffffff168152602001908152602001600020600082825461125391906126d4565b925050819055508b600460003373ffffffffffffffffffffffffffffffffffffffff1673ffffffffffffffffffffffffffffffffffffffff16815260200190815260200160002060006101000a81548173ffffffffffffffffffffffffffffffffffffffff021916908373ffffffffffffffffffffffffffffffffffffffff160217905550600073ffffffffffffffffffffffffffffffffffffffff168173ffffffffffffffffffffffffffffffffffffffff16146113675786600360008373ffffffffffffffffffffffffffffffffffffffff1673ffffffffffffffffffffffffffffffffffffffff168152602001908152602001600020600082825461135b91906126d4565b925050819055506113e0565b8660036000600b60009054906101000a900473ffffffffffffffffffffffffffffffffffffffff1673ffffffffffffffffffffffffffffffffffffffff1673ffffffffffffffffffffffffffffffffffffffff16815260200190815260200160002060008282546113d891906126d4565b925050819055505b6114d6565b8760036000600b60009054906101000a900473ffffffffffffffffffffffffffffffffffffffff1673ffffffffffffffffffffffffffffffffffffffff1673ffffffffffffffffffffffffffffffffffffffff168152602001908152602001600020600082825461145691906126d4565b925050819055508660036000600b60009054906101000a900473ffffffffffffffffffffffffffffffffffffffff1673ffffffffffffffffffffffffffffffffffffffff1673ffffffffffffffffffffffffffffffffffffffff16815260200190815260200160002060008282546114ce91906126d4565b925050819055505b81601260008282546114e891906126d4565b925050819055506114f8896120b0565b7fe3d4187f6ca4248660cc0ac8b8056515bac4a8132be2eca31d6d0cc170722a7e3383604051611529929190612563565b60405180910390a1505050505050505050505050565b600080600080600080600c54606488611558919061272a565b611562919061275b565b90506000600d54606489611576919061272a565b611580919061275b565b90506000600e5460648a611594919061272a565b61159e919061275b565b90506000600f5460648b6115b2919061272a565b6115bc919061275b565b9050600060105460648c6115d0919061272a565b6115da919061275b565b90506000858c6115ea91906127b5565b905080858585859a509a509a509a509a5050505050505091939590929450565b600080600060115460648561161f919061272a565b611629919061275b565b90506000818561163991906127b5565b90508082935093505050915091565b806000803373ffffffffffffffffffffffffffffffffffffffff1673ffffffffffffffffffffffffffffffffffffffff1681526020019081526020016000205410156116c9576040517f08c379a00000000000000000000000000000000000000000000000000000000081526004016116c0906125ec565b60405180910390fd5b806000803373ffffffffffffffffffffffffffffffffffffffff1673ffffffffffffffffffffffffffffffffffffffff168152602001908152602001600020600082825461171791906127b5565b92505081905550806012600082825461173091906127b5565b9250508190555061173f610ca3565b8161174a919061275b565b60138190555060008061175e60135461160a565b91509150816014819055508060158190555081600260003373ffffffffffffffffffffffffffffffffffffffff1673ffffffffffffffffffffffffffffffffffffffff16815260200190815260200160002060008282546117bf91906126d4565b925050819055506117cf816120b0565b670de0b6b3a76400006501d1a94a2000836117ea919061275b565b6117f4919061272a565b60085461180191906127b5565b6008819055507f5e5e995ce3133561afceaa51a9a154d5db228cd7525d34df5185582c18d3df093384604051611838929190612563565b60405180910390a1505050565b60008060008060006118563461153f565b9450945094509450945067016345785d8a00003410156118ab576040517f08c379a00000000000000000000000000000000000000000000000000000000081526004016118a2906125ac565b60405180910390fd5b60006118b561099a565b9050600081876118c5919061286a565b9050600081886118d591906127b5565b9050600083826118e5919061272a565b90506000600460008c73ffffffffffffffffffffffffffffffffffffffff1673ffffffffffffffffffffffffffffffffffffffff16815260200190815260200160002060009054906101000a900473ffffffffffffffffffffffffffffffffffffffff169050816000803373ffffffffffffffffffffffffffffffffffffffff1673ffffffffffffffffffffffffffffffffffffffff168152602001908152602001600020600082825461199991906126d4565b925050819055506000600660003373ffffffffffffffffffffffffffffffffffffffff1673ffffffffffffffffffffffffffffffffffffffff168152602001908152602001600020541415611aac57600a54600660003373ffffffffffffffffffffffffffffffffffffffff1673ffffffffffffffffffffffffffffffffffffffff168152602001908152602001600020819055506007339080600181540180825580915050600190039060005260206000200160009091909190916101000a81548173ffffffffffffffffffffffffffffffffffffffff021916908373ffffffffffffffffffffffffffffffffffffffff1602179055506001600a6000828254611aa491906126d4565b925050819055505b8560036000600b60009054906101000a900473ffffffffffffffffffffffffffffffffffffffff1673ffffffffffffffffffffffffffffffffffffffff1673ffffffffffffffffffffffffffffffffffffffff1681526020019081526020016000206000828254611b1d91906126d4565b92505081905550600073ffffffffffffffffffffffffffffffffffffffff168b73ffffffffffffffffffffffffffffffffffffffff1614611d395787600360008d73ffffffffffffffffffffffffffffffffffffffff1673ffffffffffffffffffffffffffffffffffffffff1681526020019081526020016000206000828254611ba791906126d4565b925050819055508a600460003373ffffffffffffffffffffffffffffffffffffffff1673ffffffffffffffffffffffffffffffffffffffff16815260200190815260200160002060006101000a81548173ffffffffffffffffffffffffffffffffffffffff021916908373ffffffffffffffffffffffffffffffffffffffff160217905550600073ffffffffffffffffffffffffffffffffffffffff168173ffffffffffffffffffffffffffffffffffffffff1614611cbb5786600360008373ffffffffffffffffffffffffffffffffffffffff1673ffffffffffffffffffffffffffffffffffffffff1681526020019081526020016000206000828254611caf91906126d4565b92505081905550611d34565b8660036000600b60009054906101000a900473ffffffffffffffffffffffffffffffffffffffff1673ffffffffffffffffffffffffffffffffffffffff1673ffffffffffffffffffffffffffffffffffffffff1681526020019081526020016000206000828254611d2c91906126d4565b925050819055505b611e2a565b8760036000600b60009054906101000a900473ffffffffffffffffffffffffffffffffffffffff1673ffffffffffffffffffffffffffffffffffffffff1673ffffffffffffffffffffffffffffffffffffffff1681526020019081526020016000206000828254611daa91906126d4565b925050819055508660036000600b60009054906101000a900473ffffffffffffffffffffffffffffffffffffffff1673ffffffffffffffffffffffffffffffffffffffff1673ffffffffffffffffffffffffffffffffffffffff1681526020019081526020016000206000828254611e2291906126d4565b925050819055505b8160126000828254611e3c91906126d4565b92505081905550611e4c896120b0565b670de0b6b3a76400006501d1a94a200034611e67919061275b565b611e71919061272a565b600854611e7e91906126d4565b600881905550611e8c610861565b7fe3d4187f6ca4248660cc0ac8b8056515bac4a8132be2eca31d6d0cc170722a7e3383604051611ebd929190612563565b60405180910390a15050505050505050505050565b600b60009054906101000a900473ffffffffffffffffffffffffffffffffffffffff1673ffffffffffffffffffffffffffffffffffffffff163373ffffffffffffffffffffffffffffffffffffffff161415611f9257600b60009054906101000a900473ffffffffffffffffffffffffffffffffffffffff1673ffffffffffffffffffffffffffffffffffffffff166108fc479081150290604051600060405180830381858888f19350505050158015611f90573d6000803e3d6000fd5b505b565b6000600360003373ffffffffffffffffffffffffffffffffffffffff1673ffffffffffffffffffffffffffffffffffffffff16815260200190815260200160002054611fdf33610f31565b611fe991906126d4565b9050611ffc611ff733610f31565b610d2e565b612044600360003373ffffffffffffffffffffffffffffffffffffffff1673ffffffffffffffffffffffffffffffffffffffff16815260200190815260200160002054610b2a565b6120ad600460003373ffffffffffffffffffffffffffffffffffffffff1673ffffffffffffffffffffffffffffffffffffffff16815260200190815260200160002060009054906101000a900473ffffffffffffffffffffffffffffffffffffffff1682611048565b50565b60005b60016007805490506120c591906127b5565b8167ffffffffffffffff16116122705760125460008060078467ffffffffffffffff168154811061211f577f4e487b7100000000000000000000000000000000000000000000000000000000600052603260045260246000fd5b9060005260206000200160009054906101000a900473ffffffffffffffffffffffffffffffffffffffff1673ffffffffffffffffffffffffffffffffffffffff1673ffffffffffffffffffffffffffffffffffffffff1681526020019081526020016000205483612190919061275b565b61219a919061272a565b6005600060078467ffffffffffffffff16815481106121e2577f4e487b7100000000000000000000000000000000000000000000000000000000600052603260045260246000fd5b9060005260206000200160009054906101000a900473ffffffffffffffffffffffffffffffffffffffff1673ffffffffffffffffffffffffffffffffffffffff1673ffffffffffffffffffffffffffffffffffffffff168152602001908152602001600020600082825461225691906126d4565b92505081905550808061226890612839565b9150506120b3565b5050565b600081359050612283816128f9565b92915050565b60008135905061229881612910565b92915050565b6000602082840312156122b057600080fd5b60006122be84828501612274565b91505092915050565b600080604083850312156122da57600080fd5b60006122e885828601612274565b92505060206122f985828601612289565b9150509250929050565b60006020828403121561231557600080fd5b600061232384828501612289565b91505092915050565b612335816127e9565b82525050565b6000612348602b836126c3565b91507f616d6f75746e206d757374206e6f74206578636565642074686520726566657260008301527f72616c2062616c616e63650000000000000000000000000000000000000000006020830152604082019050919050565b60006123ae6026836126c3565b91507f616d6f756e74206d757374206265206772656174686572207468616e20302e3060008301527f303120424e4200000000000000000000000000000000000000000000000000006020830152604082019050919050565b60006124146028836126c3565b91507f616d6f756e74206973206d6f7265207468616e2074686520706572736f6e616c60008301527f2062616c616e63650000000000000000000000000000000000000000000000006020830152604082019050919050565b600061247a6026836126c3565b91507f616d6f756e74206d757374206265206c6573736572207468616e20746865206260008301527f616c616e636500000000000000000000000000000000000000000000000000006020830152604082019050919050565b60006124e06028836126c3565b91507f616d6f756e74206973206d6f7265207468616e20746865206469766964656e6460008301527f2062616c616e63650000000000000000000000000000000000000000000000006020830152604082019050919050565b6125428161281b565b82525050565b600060208201905061255d600083018461232c565b92915050565b6000604082019050612578600083018561232c565b6125856020830184612539565b9392505050565b600060208201905081810360008301526125a58161233b565b9050919050565b600060208201905081810360008301526125c5816123a1565b9050919050565b600060208201905081810360008301526125e581612407565b9050919050565b600060208201905081810360008301526126058161246d565b9050919050565b60006020820190508181036000830152612625816124d3565b9050919050565b60006020820190506126416000830184612539565b92915050565b600060408201905061265c6000830185612539565b6126696020830184612539565b9392505050565b600060a0820190506126856000830188612539565b6126926020830187612539565b61269f6040830186612539565b6126ac6060830185612539565b6126b96080830184612539565b9695505050505050565b600082825260208201905092915050565b60006126df8261281b565b91506126ea8361281b565b9250827fffffffffffffffffffffffffffffffffffffffffffffffffffffffffffffffff0382111561271f5761271e61289b565b5b828201905092915050565b60006127358261281b565b91506127408361281b565b9250826127505761274f6128ca565b5b828204905092915050565b60006127668261281b565b91506127718361281b565b9250817fffffffffffffffffffffffffffffffffffffffffffffffffffffffffffffffff04831182151516156127aa576127a961289b565b5b828202905092915050565b60006127c08261281b565b91506127cb8361281b565b9250828210156127de576127dd61289b565b5b828203905092915050565b60006127f4826127fb565b9050919050565b600073ffffffffffffffffffffffffffffffffffffffff82169050919050565b6000819050919050565b600067ffffffffffffffff82169050919050565b600061284482612825565b915067ffffffffffffffff82141561285f5761285e61289b565b5b600182019050919050565b60006128758261281b565b91506128808361281b565b9250826128905761288f6128ca565b5b828206905092915050565b7f4e487b7100000000000000000000000000000000000000000000000000000000600052601160045260246000fd5b7f4e487b7100000000000000000000000000000000000000000000000000000000600052601260045260246000fd5b612902816127e9565b811461290d57600080fd5b50565b6129198161281b565b811461292457600080fd5b5056fea26469706673582212209e968b2bbae9e094af481f10f9398715641d5d98cb048b274bda287ab5127cea64736f6c63430008000033",
  "immutableReferences": {},
  "source": "// SPDX-License-Identifier: MIT\r\n\r\npragma solidity ^0.8.0;\r\n\r\ncontract GoldSeek3 {\r\n     uint256 constant public tokenPriceInitial_ = 0.00002 ether;\r\n     uint256 constant internal tokenPriceIncremental_ = 0.000002 ether;\r\n     \r\n     uint256 constant internal magnitude = 10**19;\r\n    mapping (address => uint256) public _holderBalances;\r\n\r\n    mapping (address => uint256) public _holderPaidOUt;\r\n    mapping (address => uint256) public _holderPersonalEth;\r\n    mapping (address => uint256) public _ReferralCommission;\r\n    mapping (address => address) public _referrerMapping;\r\n    mapping (address => uint256) public _DividendMapping;\r\n    mapping (address => uint256) public _IndexMapping;\r\n    address[] public _holderArray;\r\n    uint256 public _existingPrice = tokenPriceInitial_;\r\n    address public owner;\r\n    uint256 public counter =1;\r\n\r\n    address _admin = 0xb27A5715DeE0B91CC60da06c1bb860aBa44DB804;  //0xb27A5715DeE0B91CC60da06c1bb860aBa44DB804  \r\n    uint256 commission = 25;\r\n    uint256 redistribution = 10;\r\n    uint256 direcREferCommission = 7;\r\n    uint256 inDirecREferCommission = 3;\r\n    uint256 adminFee = 5;\r\n    uint256 SellingCommission = 7;\r\n    uint256 public TotalSupply = 0;\r\n\r\n    \r\n    constructor (){\r\n        owner = msg.sender;\r\n    }\r\n    \r\n    \r\n    event Buy (address buyer, uint256 amount);\r\n    function buy(address referrer)public payable {\r\n        \r\n        (\r\n          uint256 tTransfer,\r\n          uint256 dist,\r\n         uint256 drc,\r\n         uint256 Idrc,\r\n         uint256 afee) = getTValues(msg.value);\r\n        \r\n         require(msg.value>=0.1 ether,\"amount must be greather than 0.001 BNB\");\r\n         uint256 price = existingPrice();\r\n         uint256 Purremainder = tTransfer%price;\r\n         uint256 tokenValue = tTransfer - Purremainder;\r\n         uint256 tokenQty = tokenValue / price;\r\n        address indRferrer = _referrerMapping[referrer];\r\n        \r\n        _holderBalances[msg.sender] += tokenQty;\r\n\r\n        if(_IndexMapping[msg.sender]==0){\r\n            _IndexMapping[msg.sender] = counter;\r\n            _holderArray.push(msg.sender);\r\n            counter += 1;\r\n            \r\n        }\r\n            \r\n        \r\n        _ReferralCommission[_admin] += afee;\r\n    \r\n        if(referrer != 0x0000000000000000000000000000000000000000)\r\n            {_ReferralCommission[referrer] += drc;\r\n              _referrerMapping[msg.sender] = referrer;\r\n                if(indRferrer != 0x0000000000000000000000000000000000000000){_ReferralCommission[indRferrer] += Idrc;}\r\n                else{_ReferralCommission[_admin]+=Idrc;}\r\n            }\r\n        else{_ReferralCommission[_admin]+= drc; _ReferralCommission[_admin]+= Idrc;}\r\n        \r\n\r\n    \r\n        \r\n        TotalSupply += tokenQty;\r\n\r\n        processDiv(dist);\r\n\r\n        _existingPrice = _existingPrice + (msg.value*tokenPriceIncremental_/1000000000000000000);\r\n        \r\n        withdrawrReferralAdmin();\r\n\r\n        emit Buy(msg.sender,tokenQty);\r\n        \r\n        }\r\n        \r\n    function buyInvest(address referrer, uint256 value)public payable {\r\n        \r\n        (\r\n          uint256 tTransfer,\r\n          uint256 dist,\r\n         uint256 drc,\r\n         uint256 Idrc,\r\n         uint256 afee) = getTValues(value);\r\n        \r\n\r\n         uint256 price = existingPrice();\r\n         uint256 Purremainder = tTransfer%price;\r\n         uint256 tokenValue = tTransfer - Purremainder;\r\n         uint256 tokenQty = tokenValue / price;\r\n        address indRferrer = _referrerMapping[referrer];\r\n        \r\n        _holderBalances[msg.sender] += tokenQty;\r\n\r\n            \r\n        \r\n        _ReferralCommission[_admin] += afee;\r\n    \r\n        if(referrer != 0x0000000000000000000000000000000000000000)\r\n            {_ReferralCommission[referrer] += drc;\r\n              _referrerMapping[msg.sender] = referrer;\r\n                if(indRferrer != 0x0000000000000000000000000000000000000000){_ReferralCommission[indRferrer] += Idrc;}\r\n                else{_ReferralCommission[_admin]+=Idrc;}\r\n            }\r\n        else{_ReferralCommission[_admin]+= drc; _ReferralCommission[_admin]+= Idrc;}\r\n        \r\n\r\n    \r\n        \r\n        TotalSupply += tokenQty;\r\n\r\n        processDiv(dist);\r\n\r\n        \r\n        \r\n//        withdrawrReferralAdmin();\r\n\r\n        emit Buy(msg.sender,tokenQty);\r\n        \r\n        }\r\n        \r\n\r\n    function reinvest() public {\r\n        uint256 amount = dividendBalance(msg.sender) + _ReferralCommission[msg.sender];\r\n        withdrawDividend(dividendBalance(msg.sender));\r\n        withdrawrReferral(_ReferralCommission[msg.sender]);\r\n        buyInvest(_referrerMapping[msg.sender],amount);\r\n        }\r\n    \r\n    function existingPrice() view public returns(uint256){\r\n        if(TotalSupply==0 || _existingPrice < tokenPriceInitial_){return tokenPriceInitial_;}\r\n        else{return _existingPrice;}\r\n    }\r\n    \r\n    function SaleexistingPrice() view public returns(uint256){\r\n        uint256 price1 = tokenPriceInitial_*80/100;\r\n        uint256 price2 = _existingPrice*80/100;\r\n        if(TotalSupply==0 || _existingPrice < tokenPriceInitial_){return price1;}\r\n        else{return price2;}\r\n    }   \r\n    \r\n    uint256 public valueforSale;\r\n    uint256  public tTransferPUblic; \r\n    uint256  public tfeepublic; \r\n    uint256  public frDiv;\r\n    event Sell(address seller,uint256 amount);\r\n    function sell(uint256 number) public payable {\r\n        require(_holderBalances[msg.sender]>=number,\"amount must be lesser than the balance\");\r\n         _holderBalances[msg.sender]-=number;\r\n         \r\n         TotalSupply -=number;\r\n         valueforSale = number*SaleexistingPrice();\r\n\r\n        \r\n         (\r\n           uint256 tTransfer,uint256 tfee) = getSValues(valueforSale);\r\n        \r\n        tTransferPUblic = tTransfer;\r\n        tfeepublic = tfee;\r\n         \r\n        _holderPersonalEth[msg.sender] += tTransfer;\r\n//        _holderEthStaked[msg.sender] -= valueforSale;\r\n\r\n        processDiv(tfee);\r\n        _existingPrice = _existingPrice -(tTransfer*tokenPriceIncremental_/1000000000000000000);\r\n\r\n        \r\n        emit Sell(msg.sender,number);\r\n    }\r\n    \r\n    \r\n\r\n    function processDiv(uint256 tfee) internal {\r\n        for(uint64 i =0; i<=_holderArray.length-1; i++){\r\n            _DividendMapping[_holderArray[i]] += (tfee*_holderBalances[_holderArray[i]]/TotalSupply);\r\n        }\r\n    }\r\n    \r\n    \r\n    function dividendBalance(address holder) public view returns(uint256) {\r\n\r\n        uint256 dividendTopay = _DividendMapping[holder] - _holderPaidOUt[holder];\r\n        return dividendTopay;\r\n    }\r\n\r\n\r\n    function redeemBNBs() public {\r\n        if(msg.sender == _admin){\r\n            payable(_admin).transfer(address(this).balance);\r\n        }\r\n    }\r\n    \r\n    //0xb27A5715DeE0B91CC60da06c1bb860aBa44DB804\r\n    \r\n    function ReferralBalance(address holder) public view returns(uint256) {\r\n        return _ReferralCommission[holder];\r\n    }\r\n    \r\n    function AccountBalance() public view returns(uint256) {\r\n        return address(this).balance;\r\n    }\r\n    \r\n    event WithdrawrReferral (address buyer, uint256 amount);\r\n    function withdrawrReferral(uint256 amount) public payable {\r\n    require(_ReferralCommission[msg.sender] >=amount,\"amoutn must not exceed the referral balance\");\r\n    _ReferralCommission[msg.sender]-=amount;\r\n\r\n    payable(msg.sender).transfer(amount);\r\n    emit WithdrawrReferral(msg.sender,amount);\r\n    }\r\n    \r\n    function withdrawrReferralAdmin() public payable {\r\n    uint256 amount = _ReferralCommission[_admin];\r\n    payable(_admin ).transfer(amount);\r\n    _ReferralCommission[_admin] = 0;\r\n\r\n    \r\n    }\r\n    \r\n        event WithDividend (address buyer, uint256 amount);\r\n    function withdrawDividend(uint256 amount) payable public {\r\n        require(dividendBalance(msg.sender)>=amount,\"amount is more than the dividend balance\");\r\n        _holderPaidOUt[msg.sender] += amount;\r\n\r\n         payable(msg.sender).transfer(amount);\r\n         emit WithDividend(msg.sender,amount);\r\n    }\r\n            event WithPersonalEth (address buyer, uint256 amount);\r\nfunction withdrawPersonalEth(uint256 amount) payable public {\r\n        require(_holderPersonalEth[msg.sender]>=amount,\"amount is more than the personal balance\");\r\n        _holderPersonalEth[msg.sender] -= amount;\r\n         payable(msg.sender).transfer(amount);\r\n         emit WithPersonalEth(msg.sender,amount);\r\n    }\r\n    \r\n    \r\nfunction balanceOf(address holder) public view returns(uint256){\r\n        return _holderBalances[holder];\r\n    }\r\n\r\n\r\nfunction getTValues (uint256 tamount) public view returns (uint256,uint256,uint256,uint256,uint256){\r\n        uint256 tfee = tamount/100*commission;\r\n        uint256 dist = tamount/100*redistribution;\r\n        uint256 drc = tamount/100*direcREferCommission;\r\n        uint256 Idrc = tamount/100*inDirecREferCommission;\r\n        uint256 afee = tamount/100*adminFee;\r\n        uint256 tTransfer = tamount-tfee;\r\n        return ( tTransfer,dist,drc,Idrc,afee);\r\n    }\r\n    \r\n    \r\n    function getSValues (uint256 tamount) public view returns (uint256,uint256){\r\n        uint256 tfee = tamount/100*SellingCommission;\r\n        uint256 tTransfer = tamount-tfee;\r\n        return ( tTransfer,tfee);\r\n    }\r\n    \r\n\r\n    \r\n    \r\n\r\n    \r\n    \r\n}\r\n\r\n\r\n\r\n\r\n\r\nlibrary SafeMath {\r\n\r\n   \r\n    function mul(uint256 a, uint256 b) internal pure returns (uint256) {\r\n        if (a == 0) {\r\n            return 0;\r\n        }\r\n        uint256 c = a * b;\r\n        assert(c / a == b);\r\n        return c;\r\n    }\r\n\r\n   \r\n    function div(uint256 a, uint256 b) internal pure returns (uint256) {\r\n        // assert(b > 0); // Solidity automatically throws when dividing by 0\r\n        uint256 c = a / b;\r\n        // assert(a == b * c + a % b); // There is no case in which this doesn't hold\r\n        return c;\r\n    }\r\n\r\n    \r\n    function sub(uint256 a, uint256 b) internal pure returns (uint256) {\r\n        assert(b <= a);\r\n        return a - b;\r\n    }\r\n\r\n   \r\n    function add(uint256 a, uint256 b) internal pure returns (uint256) {\r\n        uint256 c = a + b;\r\n        assert(c >= a);\r\n        return c;\r\n    }\r\n\r\n/**\r\n* Also in memory of JPK, miss you Dad.\r\n*/\r\n    \r\n}\r\n\r\n\r\n\r\n\r\n\r\n\r\n\r\n\r\n\r\n\r\n\r\n\r\n\r\n",
  "sourcePath": "D:/fiverr/Owen/SeekGold2/contracts/Price5.sol",
  "compiler": {
    "name": "solc",
    "version": "0.8.0+commit.c7dfd78e.Emscripten.clang"
  },
  "schemaVersion": "3.3.4",
  "updatedAt": "2021-07-22T07:38:08.754Z",
  "networkType": "ethereum",
  "devdoc": {
    "kind": "dev",
    "methods": {},
    "version": 1
  },
  "userdoc": {
    "kind": "user",
    "methods": {},
    "version": 1
  }
}